{
	"data": {
		"bytecode": {
			"linkReferences": {},
			"object": "60808060405234604b5767016345785d8a000060015567016345785d8a0000600255600a6003553360018060a01b0319600d541617600d555f600c5560015f5561597490816100508239f35b5f80fdfe60a06040526004361015610011575f80fd5b5f6080525f3560e01c80630107e472146147595780630ff7c4a5146146e957806314205e281461465f578063154d20931461463057806319fac8fd1461457e5780631bd3528e146143bd5780631e0412ab146143a0578063320d88f9146141d1578063371512791461415f5780633e25e8371461404a5780634385963214613fd757806343eb921b14613f825780634e17b8e914613f5257806352ecab6f14613f1a5780635ea1d6f814613efd5780635ead1c0e14613ea45780636d245c3a14613d605780636d69fcaf14613ae85780636f9fb98a14613acd57806375151b6314613a9057806376319190146138cc57806386b646f21461386057806388aa8bee146136945780638ca34326146136305780638da5cb5b146136085780639207891d146135eb5780639534e6371461349a57806397a254611461347d57806399664e9c1461334e5780639a0040e41461324e5780639ecdc3a7146130de578063a333e6df146130ac578063aaaaea831461307e578063ac2f007414612f25578063ae169a50146129df578063aeaa6d75146121d3578063aeefe31f14610c9c578063b0c095e314612160578063b384abef146119e9578063bacc1f2414611972578063bd798a3f14611478578063c31a85771461143c578063c6255626146113fa578063c73cdd23146113db578063c8b727a114611360578063cde202c414611168578063d7b363e414610e43578063d7f644eb14610df3578063de12234b14610d63578063e271015b14610d35578063f184bab114610cd8578063f50ddbc714610c9c578063f6ff3fe21461046b578063f7562765146103905763f7e5058c1461027a575f80fd5b3461038a57602036600319011261038a576004356102a360018060a01b03600d54163314614f27565b62015180810290808204620151801490151715610372576102c49042615237565b6080515b600c5481101561036c578060019160805152600460205282600960406080512001541080610351575b6102fc575b016102c8565b80608051526004602052610317600260406080512001615034565b806080515260046020526103326007604060805120016150b5565b806080515260076020526040608051208260ff198254161790556102f6565b508060805152600760205260ff6040608051205416156102f1565b60805180f35b634e487b7160e01b6080515260116004526024608051fd5b60805180fd5b3461038a57602036600319011261038a576004356103b1600c548210614f7d565b806080515260076020526103ce60ff604060805120541615614fbf565b806080515260076020526103eb60ff604060805120541615615244565b6080515260046020526002604060805120018054610408816148df565b9161041660405193846148be565b818352602083019060805152602060805120608051915b83831061044e576040516020808252819061044a90820188614850565b0390f35b60016020819261045d85614948565b81520192019201919061042d565b61014036600319011261038a576004356001600160401b03811161038a57610497903690600401614a03565b6024356001600160401b03811161038a576104b6903690600401614a03565b906044356001600160401b03811161038a576104d6903690600401614a49565b6104de614ac7565b916104e7614add565b9060a435938415159586860361038a5760c4356001600160801b038116979088900361038a5760e435906006821015948561038a576105246147e2565b936001600160801b036101243596610542600260805154141561511a565b60026080515561055560018c51116154d3565b169687159a6105648c1561552d565b6080519015610b0657506001600160801b0389168015610ab1578c15610a6d5761058e908d61500b565b6105a7606461059f6003548461500b565b0480926153d7565b3403610a0d576105ba8291600e546153d7565b600e555b6109e7576002851480156109ff575b1561095b57506001600160a01b038516156109035785156108a1576001995b600c549889608051526004602052610616836040608051209d8e6106108882615579565b01615579565b600a8c01600160ff198254161790556001600160801b03421660088d0155610e10890291898304610e10141715610372576001600160801b0361065a8193426153d7565b1660098d0155600f8c01805491909216600d8d0181905560ff60a01b60a09690961b959095166001600160b01b03199091163361ffff60a01b191617179055600c8a019a8b556106ad8460108c01615671565b60118a0180546001600160a01b0319166001600160a01b03871617905560128a0186905560138a01805460ff1916905560808051339052600960205251604090208054600a81019190821061037257553360805152600b60205260ff604060805120541615610878575b9998993360805152600f602052604060805120610734815461529c565b905560026080519b019a5b89518110156107b957610752818b614c84565b51908c54600160401b8110156107a157808e600161077293018155614b1f565b6107885760019261078291615579565b0161073f565b634e487b7160e01b608051526080516004526024608051fd5b634e487b7160e01b6080515260416004526024608051fd5b5090610825610160996108176108489695946108097f9398fcefd4332528a93849bf2eb1fc24d001b3ce59cffe028340fd4b0321fcdd9e54956040519e8f9e8f908152816020820152019061482c565b8c810360408e01529061482c565b908a820360608c0152614850565b96608089015260a088015260c087015260805160e0870152610100860190614903565b6001600160a01b03166101208401526101408301520390a161086b600c5461529c565b600c556080516001815580f35b61088133615212565b3360805152600b602052604060805120600160ff19825416179055610717565b60405162461bcd60e51b815260206004820152603460248201527f5265717569726564204c53503720746f6b656e20616d6f756e74206d7573742060448201527362652067726561746572207468616e207a65726f60601b6064820152608490fd5b60405162461bcd60e51b815260206004820152602a60248201527f5265717569726564204c53503720746f6b656e20616464726573732063616e6e6044820152696f74206265207a65726f60b01b6064820152608490fd5b6109e7576003841480156109dd575b610977575b6001996105ec565b6001600160a01b03851661096f5760405162461bcd60e51b815260206004820152602a60248201527f5265717569726564204c53503820746f6b656e20616464726573732063616e6e6044820152696f74206265207a65726f60b01b6064820152608490fd5b506005841461096a565b634e487b7160e01b6080515260216004526024608051fd5b5050608051600485146105cd565b60405162461bcd60e51b815260206004820152603260248201527f496e636f7272656374204c59582073656e7420666f7220737065636966696564604482015271081c995dd85c9908185b99081d185c99d95d60721b6064820152608490fd5b606460405162461bcd60e51b815260206004820152602060248201527f5265776172642070657220766f7465206d75737420626520706f7369746976656044820152fd5b60405162461bcd60e51b815260206004820152602760248201527f54617267657420766f74657220636f756e7420726571756972656420666f72206044820152667265776172647360c81b6064820152608490fd5b90508b610c3b573360805152600f60205260406080512054610c32575b60805190600486148015610c23575b610c12575b8015610baf573410610b585780610b5034600e546153d7565b600e556105be565b60405162461bcd60e51b815260206004820152602960248201527f496e73756666696369656e74204c59582073656e7420666f722072657175697260448201526865642066656528732960b81b6064820152608490fd5b5034610bbb57806105be565b60405162461bcd60e51b815260206004820152602960248201527f53686f756c64206e6f742073656e64204c5958206966206e6f20666565206973604482015268081c995c5d5a5c995960ba1b6064820152608490fd5b600254610c1e916153d7565b610b37565b50608051915060058614610b32565b50600154610b23565b60405162461bcd60e51b815260206004820152603360248201527f5265776172642070657220766f7465206d757374206265207a65726f20666f72604482015272206e6f6e2d726577617264656420706f6c6c7360681b6064820152608490fd5b3461038a57602036600319011261038a576001600160a01b03610cbd6147b6565b16608051526009602052602060406080512054604051908152f35b3461038a57602036600319011261038a577f03dbcb098695fda7984304e63cf9483d2cd5b62644ccc62bd52309c83e12293f6020600435610d2460018060a01b03600d54163314614f27565b80600155604051908152a160805180f35b3461038a57602036600319011261038a57600435608051526005602052602060406080512054604051908152f35b3461038a57602036600319011261038a576001600160a01b03610d846147b6565b1660805152600860205260406080512060405190816020825491828152019160805152602060805120906080515b818110610ddd5761044a85610dc9818703826148be565b6040519182916020835260208301906147f9565b8254845260209093019260019283019201610db2565b3461038a57602036600319011261038a57610e0c6147b6565b610e2160018060a01b03600d54163314614f27565b60018060a01b0316608051526006602052602060406080512054604051908152f35b3461038a57602036600319011261038a57610e5c6147b6565b610e6c600260805154141561511a565b600260805155610e8760018060a01b03600d54163314614f27565b6001600160a01b0316801561110f5780608051526006602052604060805120549081156110be578060805152600660205260805160406080512055604051916370a0823160e01b8352306004840152602083602481855afa928315610fb85760805193611086575b50828111156110805750815b8215611030578211610fc557600d546001600160a01b0316813b1561038a5760405190633b06cddd60e11b82528180610f3c8660805194306004850161549d565b0381608051865af18015610fb857610f9f575b600d54604080516001600160a01b0390921682526020820185905281018390527f9a738a5c1058a1cd48022a48cbf5127657fdab65d8d9db8c36af972c2162006590606090a16080516001815580f35b608051610fab916148be565b60805161038a5782610f4f565b6040513d608051823e3d90fd5b60405162461bcd60e51b815260206004820152603a60248201527f496e73756666696369656e7420746f6b656e2062616c616e636520666f72206360448201527f6f6d6d697373696f6e207769746864726177616c20636865636b0000000000006064820152608490fd5b60405162461bcd60e51b815260206004820152602260248201527f43616c63756c6174656420776974686472617720616d6f756e74206973207a65604482015261726f60f01b6064820152608490fd5b91610efb565b9092506020813d6020116110b6575b816110a2602093836148be565b810103126110b257519183610eef565b5f80fd5b3d9150611095565b60405162461bcd60e51b815260206004820152602360248201527f4e6f20636f6d6d697373696f6e206561726e656420666f72207468697320746f60448201526235b2b760e91b6064820152608490fd5b60405162461bcd60e51b815260206004820152602b60248201527f43616e6e6f7420776974686472617720636f6d6d697373696f6e20666f72207a60448201526a65726f206164647265737360a81b6064820152608490fd5b3461038a57602036600319011261038a57600435611189600c548210614f7d565b806080515260076020526111a660ff604060805120541615614fbf565b80608051526004602052604060805120600a81019182549160ff83161561131b57600f8101546001600160a01b03811633036112dd5760a01c60ff16806112d0575b806112be575b61127957600901544211611234577f703c67c157a1afb7d386ce5212ee88bf0a690bca998060e9595ebdfd747100ce9260209260ff19169055604051908152a160805180f35b60405162461bcd60e51b815260206004820152601860248201527f43616e6e6f742070617573652c20706f6c6c20656e64656400000000000000006044820152606490fd5b60405162461bcd60e51b815260206004820152601c60248201527f43616e6e6f742070617573652c207461726765742072656163686564000000006044820152606490fd5b50600b810154600d82015411156111ee565b50600d81015415156111e8565b60405162461bcd60e51b81526020600482015260166024820152754f6e6c792063726561746f722063616e20706175736560501b6044820152606490fd5b60405162461bcd60e51b815260206004820152601860248201527f506f6c6c20697320616c726561647920696e61637469766500000000000000006044820152606490fd5b3461038a57604036600319011261038a5760043561137c6147cc565b9061138a600c548210614f7d565b806080515260076020526113a760ff604060805120541615614fbf565b6080515260046020526005604060805120019060018060a01b03165f52602052602060ff60405f2054166040519015158152f35b3461038a5760805136600319011261038a576020600e54604051908152f35b3461038a57602036600319011261038a5760043560105481101561038a57611423602091614af3565b905460405160039290921b1c6001600160a01b03168152f35b3461038a57602036600319011261038a576001600160a01b0361145d6147b6565b16608051526006602052602060406080512054604051908152f35b3461038a57602036600319011261038a5760043561149c600260805154141561511a565b6002608051556114af600c548210614f7d565b806080515260076020526114cc60ff604060805120541615614fbf565b8060805152600460205260406080512090600f820191825460018060a01b0381169081330361191c5760ff600a840154166118c75760138301805460ff811661186a5760ff1916600117905560a081901c60ff16611574575b5050505060018060a01b039054168060805152600f60205260406080512054611553575b6080516001815580f35b60805152600f60205260406080512061156c8154615290565b905580611549565b60a81c60ff1660028110156109e757806116bd5750506115d06115c7600c8301546115c16115a6600d8601548361500b565b91600e60646115b76003548661500b565b049601549061500b565b90615237565b91600e546153d7565b600e55801580156115e9575b5050505b81808080611525565b8147106116725783546080516001600160a01b0390911691611669575b60805191829182918291869190f115610fb8578254604080519384526001600160a01b0390911660208401528201525f60608201527ffd98ff9d94dd850cf17545108069e8c943c3b61429e4768185344ab344c5ad9890608090a18180806115dc565b506108fc611606565b60405162461bcd60e51b815260206004820152603060248201525f8051602061591f83398151915260448201526f1c88131656081dda5d1a191c985dd85b60821b6064820152608490fd5b919290916001146116d1575b5050506115e0565b6116fd601460018060a01b03601086015416940154826080515260056020526040608051205490615237565b918261170a575b506116c9565b6040516370a0823160e01b8152306004820152602081602481885afa8015610fb857849160805191611835575b50106117e857833b1561038a5760405190633b06cddd60e11b825281806117668660805194306004850161549d565b0381608051885af18015610fb8576117cf575b508354604080519283526001600160a01b039182166020840152820192909252911660608201527ffd98ff9d94dd850cf17545108069e8c943c3b61429e4768185344ab344c5ad9890608090a181808080611704565b6080516117db916148be565b60805161038a5784611779565b60405162461bcd60e51b815260206004820152603260248201525f8051602061591f8339815191526044820152711c881d1bdad95b881dda5d1a191c985dd85b60721b6064820152608490fd5b9150506020813d602011611862575b81611851602093836148be565b810103126110b25783905187611737565b3d9150611844565b60405162461bcd60e51b815260206004820152602f60248201527f46756e6473206861766520616c7265616479206265656e20776974686472617760448201526e1b88199bdc881d1a1a5cc81c1bdb1b608a1b6064820152608490fd5b60405162461bcd60e51b815260206004820152602760248201527f506f6c6c206d75737420626520696e61637469766520746f2077697468647261604482015266772066756e647360c81b6064820152608490fd5b60405162461bcd60e51b815260206004820152602860248201527f4f6e6c792074686520706f6c6c2063726561746f722063616e2077697468647260448201526761772066756e647360c01b6064820152608490fd5b3461038a5760805136600319011261038a5760805150604051600a548082526020820190600a60805152602060805120906080515b8181106119ca5761044a856119be818703826148be565b60405191829182614774565b82546001600160a01b03168452602090930192600192830192016119a7565b3461038a576119f7366148a8565b90611a05600c548210614f7d565b80608051526007602052611a2260ff604060805120541615614fbf565b611a32600260805154141561511a565b6002608051558060805152600460205260406080512090600a820192611a5b60ff855416615396565b60098301938454421161212357600f840190815460ff8160a01c1680612116575b6120c2575b600486019060018060a01b0333165f528160205260ff60405f20541661207157611ab0600288015486106150d6565b6001600160a01b03163381146120365760ff601088015460a01c1660068110156109e75760018103611d8a5750604051634cf61d2160e11b81523360048201526001600160a01b0391909116602482015260208160448173f01103e5a9909fc0dbe8166da7085e0285daddca5afa8015610fb857611b379160805191611d5b575b506156ad565b836080515260038601602052604060805120611b53815461529c565b9055335f90815260209182526040808220805460ff191660011790556006880190925220839055600b85018054909690611b8c9061529c565b875560078601805490600160401b8210156107a15781611bb4916001611bd294018155614b1f565b81546001600160a01b0360039290921b91821b19163390911b179055565b3360805152600860205260406080512096875496600160401b8810156107a157611c25887fd91ecafccf238642dccd41161308b3eebe62a12bc5819daf5164780c221ec95b9a600160609b018155614b1f565b81549060031b9089821b915f19901b1916179055611c42336158bf565b8454611c56906001600160a01b03166158bf565b6080519254421115611d175750505060015b80611d0c575b611c91575b50506040519182526020820152336040820152a16080516001815580f35b60ff19815416905560018060a01b039054168060805152600f60205260406080512054611ceb575b507f703c67c157a1afb7d386ce5212ee88bf0a690bca998060e9595ebdfd747100ce6020604051848152a18480611c73565b60805152600f602052604060805120611d048154615290565b905584611cb9565b5060ff815416611c6e565b60ff855460a01c169182611d4d575b82611d3b575b505015611c6857506001611c68565b600d9192505491015411158880611d2c565b600d82015415159250611d26565b611d7d915060203d602011611d83575b611d7581836148be565b810190615695565b89611b31565b503d611d6b565b60028103611e3157505060118601546024906001600160a01b0316611db08115156157a9565b6020601289015491611dc3831515615801565b6040516370a0823160e01b815233600482015293849182905afa8015610fb85760805190611dfd575b611df892501015615863565b611b37565b506020823d602011611e29575b81611e17602093836148be565b810103126110b257611df89151611dec565b3d9150611e0a565b60038103611ec357505060118601546024906020906001600160a01b0316611e5a811515615705565b6040516370a0823160e01b815233600482015292839182905afa8015610fb85760805190611e8f575b611df89150151561575d565b506020813d602011611ebb575b81611ea9602093836148be565b810103126110b257611df89051611e83565b3d9150611e9c565b60048103611f415750604051634cf61d2160e11b81523360048201526001600160a01b0391909116602482015260208160448173f01103e5a9909fc0dbe8166da7085e0285daddca5afa8015610fb857611f259160805191611d5b57506156ad565b60118601546024906001600160a01b0316611db08115156157a9565b600514611f4f575b50611b37565b604051634cf61d2160e11b81523360048201526001600160a01b0391909116602482015260208160448173f01103e5a9909fc0dbe8166da7085e0285daddca5afa8015610fb857611fa89160805191611d5b57506156ad565b60118601546024906020906001600160a01b0316611fc7811515615705565b6040516370a0823160e01b815233600482015292839182905afa8015610fb85760805190612002575b611ffc9150151561575d565b87611f49565b506020813d60201161202e575b8161201c602093836148be565b810103126110b257611ffc9051611ff0565b3d915061200f565b60405162461bcd60e51b815260206004820152601360248201527243726561746f722063616e6e6f7420766f746560681b6044820152606490fd5b60405162461bcd60e51b815260206004820152602360248201527f596f75206861766520616c726561647920766f74656420696e207468697320706044820152621bdb1b60ea1b6064820152608490fd5b600b860154600d87015411611a815760405162461bcd60e51b815260206004820152601f60248201527f506f6c6c2068617320656e6465642028746172676574207265616368656429006044820152606490fd5b50600d8601541515611a7c565b60405162461bcd60e51b8152602060048201526015602482015274506f6c6c2068617320656e646564202874696d652960581b6044820152606490fd5b3461038a57602036600319011261038a57600435612181600c548210614f7d565b8060805152600760205261219e60ff604060805120541615614fbf565b6080515260046020526060604060805120600960ff600a83015416910154604051911515825280421160208301526040820152f35b61014036600319011261038a576004356001600160401b03811161038a576121ff903690600401614a03565b6024356001600160401b03811161038a5761221e903690600401614a03565b6044356001600160401b03811161038a5761223d903690600401614a49565b612245614ac7565b9061224e614add565b60c4356001600160a01b038116919082900361038a5760e43592600684101561038a576001600160801b036122816147e2565b95612292600260805154141561511a565b6002608051556122a560018451116154d3565b16958615926122b4841561552d565b841561298e576001600160801b03169283156129335760a435156128d357610e108802978804610e1014171561037257426122ef88426153d7565b111561288e576080513360805152600f60205260406080512054612885575b60048614801561287b575b61286a575b340361282c576123308360a43561500b565b97606461233f6003548b61500b565b0461234a818b6153d7565b6040516365aeaa9560e01b81523060048201523360248201526020816044818b5afa8015610fb8578291608051916127f7575b501061278c576040516370a0823160e01b81523360048201526020816024818b5afa8015610fb857829160805191612757575b50106126ec57863b1561038a57604051633b06cddd60e11b815233600482015230602482015260448101919091526001606482015260a060848201526080805160a4830152518160c481838b5af18015610fb8576126d3575b50856080515260066020526124256040608051209182546153d7565b9055600c5498896080515260046020526040608051206124458382615579565b6124528460018301615579565b845160028201600160401b82116107a157805482825580831061264d575b50602087019060805152602060805120608051915b8383106126305750505050936125d97f9398fcefd4332528a93849bf2eb1fc24d001b3ce59cffe028340fd4b0321fcdd9b9997946125cb61260a98956125e795601460209f9d9a6124e08f42600884015560805150426153d7565b6009820155600a8101805460ff19166001179055600f81018054600d83018c905560ff60a81b1960ff60a01b1933166001600160a81b031990921691909117600160a01b1716600160a81b1790556010810180546001600160a01b0319168c17815560a435600c830155612555908d90615671565b8d601182019060018060a01b03166bffffffffffffffffffffffff60a01b82541617905561012435601282015501553360805152600f8e5260406080512061259d815461529c565b90556125aa600c5461529c565b600c55608051506101606040519e8f9e8f90815201526101608d019061482c565b908b820360408d015261482c565b9089820360608b0152614850565b95608088015260a43560a088015260c087015260e0860152610100850190614903565b6001600160a01b0316610120830152610124356101408301520390a16080516001815580f35b600160208261264183945186615579565b01920192019190612485565b8160805152602060805120908382015b818301811061266d575050612470565b8061267a60019254614910565b80612687575b500161265d565b601f8111831461269e575060805181555b5f612680565b6126be90826080515283601f602060805120920160051c8201910161501e565b60808051829052516020812081835555612698565b6080516126df916148be565b60805161038a578a612409565b60405162461bcd60e51b815260206004820152603b60248201527f496e73756666696369656e742062616c616e636520666f7220746f74616c206160448201527f6d6f756e742028726577617264202b20636f6d6d697373696f6e2900000000006064820152608490fd5b9150506020813d602011612784575b81612773602093836148be565b810103126110b2578190518d6123b0565b3d9150612766565b60405162461bcd60e51b815260206004820152603e60248201527f436f6e7472616374206e6f7420617574686f72697a656420666f7220746f746160448201527f6c20616d6f756e742028726577617264202b20636f6d6d697373696f6e2900006064820152608490fd5b9150506020813d602011612824575b81612813602093836148be565b810103126110b2578190518d61237d565b3d9150612806565b60405162461bcd60e51b8152602060048201526016602482015275125b98dbdc9c9958dd0813165608199959481cd95b9d60521b6044820152606490fd5b600254612876916153d7565b61231e565b5060058614612319565b5060015461230e565b60405162461bcd60e51b815260206004820152601860248201527f4475726174696f6e20636175736573206f766572666c6f7700000000000000006044820152606490fd5b60405162461bcd60e51b815260206004820152603260248201527f5265776172642070657220766f7465206d75737420626520706f73697469766560448201527120666f7220746f6b656e207265776172647360701b6064820152608490fd5b60405162461bcd60e51b815260206004820152602d60248201527f54617267657420766f74657220636f756e7420726571756972656420666f722060448201526c746f6b656e207265776172647360981b6064820152608490fd5b60405162461bcd60e51b815260206004820152602360248201527f52657761726420746f6b656e20616464726573732063616e6e6f74206265207a60448201526265726f60e81b6064820152608490fd5b346110b25760203660031901126110b257600435612a0160025f54141561511a565b60025f55612a12600c548210614f7d565b805f526007602052612a2b60ff60405f20541615614fbf565b805f52600460205260405f2090600f820160ff815460a01c1615612ed257335f90815260048401602052604090205460ff1615612e8d57600583019060018060a01b0333165f528160205260ff60405f205416612e3c5760ff600a8501541615600d8501548015159081612e2d575b508115612e25575b5015612dcd5760ff91612ab4336158bf565b60018060a01b0333165f5260205260405f2060018319825416179055600e8401612ade815461529c565b90555460a81c166002811015612db95780612bb4575090600c0154804710612b6d576080518115612b64575b6080519081908190819085903390f115610fb857604080519283523360208401528201525f60608201527f42c422b3d1b2dd27b20890a92c61d761f550e54f2983bfee95c55102ea8234a890608090a16080516001815580f35b506108fc612b0a565b60405162461bcd60e51b815260206004820152602c60248201525f8051602061591f83398151915260448201526b1c88131656081c995dd85c9960a21b6064820152608490fd5b600114612bc3575b5050611549565b600c8201549060018060a01b03601084015416926040516370a0823160e01b8152306004820152602081602481885afa8015612ce15784915f91612d84575b5010612d3b57815f5260056020526014612c208460405f20546153d7565b9101548111612cec57815f52600560205260405f2055823b156110b257604051633b06cddd60e11b8152925f8480612c5d8633306004850161549d565b038183855af1908115612ce1577f42c422b3d1b2dd27b20890a92c61d761f550e54f2983bfee95c55102ea8234a894612cc392612ccd575b50604080519384523360208501528301939093526001600160a01b0390921660608201529081906080820190565b0390a18080612bbc565b5f612cd7916148be565b5f60805285612c95565b6040513d5f823e3d90fd5b60405162461bcd60e51b815260206004820152602160248201527f436c61696d2065786365656473206c6f636b656420746f6b656e20616d6f756e6044820152601d60fa1b6064820152608490fd5b60405162461bcd60e51b815260206004820152602e60248201525f8051602061591f83398151915260448201526d1c881d1bdad95b881c995dd85c9960921b6064820152608490fd5b9150506020813d602011612db1575b81612da0602093836148be565b810103126110b25783905186612c02565b3d9150612d93565b634e487b7160e01b5f52602160045260245ffd5b60405162461bcd60e51b815260206004820152602a60248201527f506f6c6c206973207374696c6c20616374697665206f7220746172676574206e6044820152691bdd081c995858da195960b21b6064820152608490fd5b905085612aa2565b9050600b860154101586612a9a565b60405162461bcd60e51b8152602060048201526024808201527f596f75206861766520616c726561647920636c61696d656420796f75722072656044820152631dd85c9960e21b6064820152608490fd5b60405162461bcd60e51b815260206004820152601f60248201527f596f752068617665206e6f7420766f74656420696e207468697320706f6c6c006044820152606490fd5b60405162461bcd60e51b815260206004820152602560248201527f5265776172647320617265206e6f7420656e61626c656420666f722074686973604482015264081c1bdb1b60da1b6064820152608490fd5b346110b25760203660031901126110b2576004355f52600460205260405f20612f4d81614948565b90612f5a60018201614948565b90600881015490600981015490600a81015460ff16600b820154600c830154600d840154600e850154600f86015491601087015493600160a01b600190036011890154169560128901549760138a015460ff1699601401549a6040519e8f9e8f9161024083526102408301612fce9161482c565b8281036020840152612fdf9161482c565b9d604082015260600152151560808d015260a08c015260c08b015260e08a0152610100890152600160a01b6001900381166101208901528060a01c60ff16151561014089015261016088019060a81c60ff169061303b916148f6565b6001600160a01b038116610180880152613060906101a088019060a01c60ff16614903565b6101c08601526101e085015215156102008401526102208301520390f35b346110b25760403660031901126110b25760206130a461309c6147cc565b6004356153e4565b604051908152f35b346110b2575f3660031901126110b2576130d160018060a01b03600d54163314614f27565b6020600e54604051908152f35b346110b25760403660031901126110b2576004356024359063ffffffff82168092036110b257613111600c548210614f7d565b805f52600760205261312a60ff60405f20541615614fbf565b5f52600460205260405f2061314560ff600a83015416615396565b600d546001600160a01b031633148015613238575b156131f45781156131a557610e108202918204610e1003613191576001600160801b03600961318d9201921682546153d7565b9055005b634e487b7160e01b5f52601160045260245ffd5b60405162461bcd60e51b815260206004820152602160248201527f4164646974696f6e616c20686f757273206d75737420626520706f73697469766044820152606560f81b6064820152608490fd5b606460405162461bcd60e51b815260206004820152602060248201527f4f6e6c79206f776e6572206f722063726561746f722063616e20657874656e646044820152fd5b50600f8101546001600160a01b0316331461315a565b346110b25760203660031901126110b257600435600c54811061327090614f7d565b805f52600760205260405f205460ff161561328a90614fbf565b613293906152aa565b9a60409a919a999299989398979497969596519e8f9e8f916101e083526101e083016132be9161482c565b82810360208401526132cf9161482c565b604082019e909e5260600152151560808d015260a08c015260c08b015260e08a01526001600160a01b03166101008901521515610120880152613317906101408801906148f6565b6001600160a01b031661016086015261333590610180860190614903565b6001600160a01b03166101a08401526101c08301520390f35b346110b25761335c366148a8565b613369600c548310614f7d565b815f52600760205261338260ff60405f20541615614fbf565b815f52600760205261339b60ff60405f20541615615244565b815f5260046020526133b5600260405f20015482106150d6565b5f91805f5260046020526133ce600760405f2001614b85565b926133d98451614bd6565b915f5b8551811015613432576001600160a01b036133f78288614c84565b51168561340482856153e4565b14613413575b506001016133dc565b8361342b916134256001949688614c84565b5261529c565b929061340a565b505061343d81614bd6565b915f5b828110613455576040518061044a8682614774565b6001906001600160a01b0361346a8285614c84565b51166134768287614c84565b5201613440565b346110b2575f3660031901126110b2576020600254604051908152f35b346110b25760203660031901126110b2576004356134bb600c548210614f7d565b805f5260076020526134d460ff60405f20541615614fbf565b805f52600460205260405f2060018060a01b03600d5416331480156135d5575b1561357a57600a81019182549160ff831661350b57005b7f703c67c157a1afb7d386ce5212ee88bf0a690bca998060e9595ebdfd747100ce9360209360ff19169055600f60018060a01b0391015416805f52600f835260405f205461355e575b50604051908152a1005b5f52600f825260405f206135728154615290565b905583613554565b60405162461bcd60e51b815260206004820152602d60248201527f4f6e6c79206f776e6572206f7220706f6c6c2063726561746f722063616e206360448201526c1b1bdcd9481d1a19481c1bdb1b609a1b6064820152608490fd5b50600f8101546001600160a01b031633146134f4565b346110b2575f3660031901126110b2576020600c54604051908152f35b346110b2575f3660031901126110b257600d546040516001600160a01b039091168152602090f35b346110b25760203660031901126110b257600435613651600c548210614f7d565b805f52600760205261366a60ff60405f20541615614fbf565b5f52600460205261044a61368060405f20614948565b60405191829160208352602083019061482c565b346110b25760203660031901126110b2576136ad6147b6565b6001600160a01b03168015613823576136c4615166565b6136cc61518e565b6040516306fdde0360e01b81525f81600481875afa5f9181613807575b506137ff575b506040516395d89b4160e01b81525f81600481875afa5f91816137db575b506137d3575b5060405163313ce56760e01b81529260129190602085600481845afa80955f91613793575b5061376b9561378b575b505f52601160205260ff6137798160405f2054169260405196879660808852608088019061482c565b90868203602088015261482c565b92166040840152151560608301520390f35b925085613742565b90506020813d6020116137cb575b816137ae602093836148be565b810103126110b257519460ff861686036110b2579461376b613738565b3d91506137a1565b905083613713565b6137f89192503d805f833e6137f081836148be565b8101906151b0565b908561370d565b9150836136ef565b61381c9192503d805f833e6137f081836148be565b90856136e9565b60405162461bcd60e51b8152602060048201526015602482015274496e76616c696420746f6b656e206164647265737360581b6044820152606490fd5b346110b25760203660031901126110b257600435613881600c548210614f7d565b805f52600760205261389a60ff60405f20541615614fbf565b805f5260076020526138b360ff60405f20541615615244565b5f52600460205261044a6119be600760405f2001614b85565b346110b25760203660031901126110b2576138e56147b6565b6138fa60018060a01b03600d54163314614f27565b6001600160a01b03165f8181526011602052604090205460ff1615613a55575f818152601160205260408120805460ff191690555b6010549081811015613a2a578261394582614af3565b905460039190911b1c6001600160a01b03161461396657600191500161392f565b5f198201918211613191576139986139806139bc93614af3565b905460039190911b1c6001600160a01b031691614af3565b81546001600160a01b0393841660039290921b91821b9390911b1916919091179055565b6010548015613a16577f4c910b69fe65a61f7531b9c5042b2329ca7179c77290aa7e2eb3afa3c8511fd3916020915f19016139f681614af3565b81549060018060a01b039060031b1b191690556010555b604051908152a1005b634e487b7160e01b5f52603160045260245ffd5b505060207f4c910b69fe65a61f7531b9c5042b2329ca7179c77290aa7e2eb3afa3c8511fd391613a0d565b60405162461bcd60e51b8152602060048201526013602482015272151bdad95b881b9bdd081cdd5c1c1bdc9d1959606a1b6044820152606490fd5b346110b25760203660031901126110b2576001600160a01b03613ab16147b6565b165f526011602052602060ff60405f2054166040519015158152f35b346110b2575f3660031901126110b257602047604051908152f35b346110b25760203660031901126110b257613b016147b6565b613b1660018060a01b03600d54163314614f27565b6001600160a01b0381168015613d1c57805f52601160205260ff60405f205416613cd7576040516370a0823160e01b8152306004820152602081602481855afa8015612ce157613ca8575b50613b6a615166565b90613b7361518e565b926040516306fdde0360e01b81525f81600481865afa5f9181613c8c575b50613c84575b506040516395d89b4160e01b81525f81600481865afa5f9181613c68575b50613c60575b5060105493600160401b851015613c4c57613c06613c47926139988760017f2fb34ce114a136590b874d8cf80e7652adda576578bacfa4f8023f720f56939499016010556010614b1f565b825f52601160205260405f20600160ff19825416179055613c39604051948594855260606020860152606085019061482c565b90838203604085015261482c565b0390a1005b634e487b7160e01b5f52604160045260245ffd5b935084613bbb565b613c7d9192503d805f833e6137f081836148be565b9086613bb5565b925084613b97565b613ca19192503d805f833e6137f081836148be565b9086613b91565b6020813d602011613ccf575b81613cc1602093836148be565b810103126110b25751613b61565b3d9150613cb4565b60405162461bcd60e51b815260206004820152601760248201527f546f6b656e20616c726561647920737570706f727465640000000000000000006044820152606490fd5b606460405162461bcd60e51b815260206004820152602060248201527f43616e6e6f7420616464207a65726f206164647265737320617320746f6b656e6044820152fd5b346110b25760203660031901126110b2576004356001600160401b0381116110b257366023820112156110b257806004013590613d9c826148df565b91613daa60405193846148be565b8083526024602084019160051b830101913683116110b257602401905b828210613e945783613de460018060a01b03600d54163314614f27565b5f5b8151811015613e925780613dfc60019284614c84565b51600c54811080613e7a575b80613e63575b613e1a575b5001613de6565b805f526004602052613e31600260405f2001615034565b805f526004602052613e48600760405f20016150b5565b5f52600760205260405f208260ff1982541617905583613e13565b50805f52600760205260ff60405f20541615613e0e565b50805f526004602052600960405f2001544211613e08565b005b8135815260209182019101613dc7565b346110b25760203660031901126110b2577f12a789aa8036f83fcf7f3ed64a8a6b82429f262256a1b44b7689344ba4f96bf46020600435613ef060018060a01b03600d54163314614f27565b80600255604051908152a1005b346110b2575f3660031901126110b2576020600354604051908152f35b346110b25760203660031901126110b2576001600160a01b03613f3b6147b6565b165f52600f602052602060405f2054604051908152f35b346110b2575f3660031901126110b257613f7760018060a01b03600d54163314614f27565b61044a6119be614b34565b346110b25760203660031901126110b257600435613fa3600c548210614f7d565b805f526007602052613fbc60ff60405f20541615614fbf565b5f526007602052602060ff60405f2054166040519015158152f35b346110b25760403660031901126110b257600435613ff36147cc565b90614001600c548210614f7d565b805f52600760205261401a60ff60405f20541615614fbf565b5f526004602052600460405f20019060018060a01b03165f52602052602060ff60405f2054166040519015158152f35b346110b2575f3660031901126110b25761406860025f54141561511a565b60025f55600d546001600160a01b0316614083338214614f27565b600e54908115908115614097575b60015f55005b5f600e5582471061410a575f808481949382948390614101575bf115612ce15760607f9a738a5c1058a1cd48022a48cbf5127657fdab65d8d9db8c36af972c216200659160018060a01b03600d54169060405191825260208201525f6040820152a1808080614091565b506108fc6140b1565b60405162461bcd60e51b815260206004820152602760248201527f496e73756666696369656e74204c59582062616c616e636520666f7220636f6d60448201526636b4b9b9b4b7b760c91b6064820152608490fd5b346110b25761416d366148a8565b9061417b600c548210614f7d565b805f52600760205261419460ff60405f20541615614fbf565b805f5260046020526141ae600260405f20015483106150d6565b5f526004602052600360405f2001905f52602052602060405f2054604051908152f35b346110b25760203660031901126110b2576004356141f2600c548210614f7d565b805f52600760205261420b60ff60405f20541615614fbf565b805f52600460205260405f2060018060a01b03600d54163314801561438a575b1561432b57600901544211156142dc57805f52600760205260ff60405f20541661429757805f526004602052614266600260405f2001615034565b805f52600460205261427d600760405f20016150b5565b5f908152600760205260409020805460ff19166001179055005b60405162461bcd60e51b815260206004820152601c60248201527f506f6c6c206461746120697320616c72656164792064656c65746564000000006044820152606490fd5b60405162461bcd60e51b815260206004820152602160248201527f506f6c6c206d75737420626520656e646564206265666f726520636c65616e756044820152600760fc1b6064820152608490fd5b60405162461bcd60e51b815260206004820152603160248201527f4f6e6c79206f776e6572206f7220706f6c6c2063726561746f722063616e20636044820152706c65616e20757020706f6c6c206461746160781b6064820152608490fd5b50600f8101546001600160a01b0316331461422b565b346110b2575f3660031901126110b2576020600154604051908152f35b346110b25760203660031901126110b2576004356143de600c548210614f7d565b805f5260076020526143f760ff60405f20541615614fbf565b5f52600460205260405f20600a81019081549060ff821661454057600f8101546001600160a01b03811633036144fb5760a01c60ff16806144ee575b806144dc575b614497576009015442116144525760ff19166001179055005b60405162461bcd60e51b815260206004820152601960248201527f43616e6e6f7420726573756d652c20706f6c6c20656e646564000000000000006044820152606490fd5b60405162461bcd60e51b815260206004820152601d60248201527f43616e6e6f7420726573756d652c2074617267657420726561636865640000006044820152606490fd5b50600b810154600d8201541115614439565b50600d8101541515614433565b60405162461bcd60e51b815260206004820152601760248201527f4f6e6c792063726561746f722063616e20726573756d650000000000000000006044820152606490fd5b60405162461bcd60e51b8152602060048201526016602482015275506f6c6c20697320616c72656164792061637469766560501b6044820152606490fd5b346110b25760203660031901126110b2576004356145a760018060a01b03600d54163314614f27565b606481116145e0576020817f7944cc49dc8637e3cacb75b6261e778f93a87026e0357ae7c3b0e434324afa3592600355604051908152a1005b60405162461bcd60e51b815260206004820152602260248201527f436f6d6d697373696f6e20726174652063616e6e6f7420657863656564203130604482015261302560f01b6064820152608490fd5b346110b25760203660031901126110b2576004355f526007602052602060ff60405f2054166040519015158152f35b346110b25760203660031901126110b257602460206001600160a01b036146846147b6565b16604051928380926370a0823160e01b82523060048301525afa8015612ce1575f906146b6575b602090604051908152f35b506020813d6020116146e1575b816146d0602093836148be565b810103126110b257602090516146ab565b3d91506146c3565b346110b25760203660031901126110b25761472f61473d61044a61474b6147166147116147b6565b614c98565b93929590916040519788976080895260808901906147f9565b9087820360208901526147f9565b908582036040870152614850565b908382036060850152614850565b346110b2575f3660031901126110b25761044a6119be614b34565b60206040818301928281528451809452019201905f5b8181106147975750505090565b82516001600160a01b031684526020938401939092019160010161478a565b600435906001600160a01b03821682036110b257565b602435906001600160a01b03821682036110b257565b61010435906001600160a01b03821682036110b257565b90602080835192838152019201905f5b8181106148165750505090565b8251845260209384019390920191600101614809565b805180835260209291819084018484015e5f828201840152601f01601f1916010190565b9080602083519182815201916020808360051b8301019401925f915b83831061487b57505050505090565b9091929394602080614899600193601f19868203018752895161482c565b9701930193019193929061486c565b60409060031901126110b2576004359060243590565b90601f801991011681019081106001600160401b03821117613c4c57604052565b6001600160401b038111613c4c5760051b60200190565b906002821015612db95752565b906006821015612db95752565b90600182811c9216801561493e575b602083101461492a57565b634e487b7160e01b5f52602260045260245ffd5b91607f169161491f565b9060405191825f82549261495b84614910565b80845293600181169081156149c65750600114614982575b50614980925003836148be565b565b90505f9291925260205f20905f915b8183106149aa575050906020614980928201015f614973565b6020919350806001915483858901015201910190918492614991565b90506020925061498094915060ff191682840152151560051b8201015f614973565b6001600160401b038111613c4c57601f01601f191660200190565b81601f820112156110b257803590614a1a826149e8565b92614a2860405194856148be565b828452602083830101116110b257815f926020809301838601378301015290565b9080601f830112156110b2578135614a60816148df565b92614a6e60405194856148be565b81845260208085019260051b820101918383116110b25760208201905b838210614a9a57505050505090565b81356001600160401b0381116110b257602091614abc87848094880101614a03565b815201910190614a8b565b606435906001600160801b03821682036110b257565b608435906001600160801b03821682036110b257565b601054811015614b0b5760105f5260205f2001905f90565b634e487b7160e01b5f52603260045260245ffd5b8054821015614b0b575f5260205f2001905f90565b60405190601054808352826020810160105f5260205f20925f5b818110614b63575050614980925003836148be565b84546001600160a01b0316835260019485019487945060209093019201614b4e565b90604051918281549182825260208201905f5260205f20925f5b818110614bb4575050614980925003836148be565b84546001600160a01b0316835260019485019487945060209093019201614b9f565b90614be0826148df565b614bed60405191826148be565b8281528092614bfe601f19916148df565b0190602036910137565b60405190614c176020836148be565b5f80835282815b828110614c2a57505050565b806060602080938501015201614c1e565b90614c45826148df565b614c5260405191826148be565b8281528092614c63601f19916148df565b01905f5b828110614c7357505050565b806060602080938501015201614c67565b8051821015614b0b5760209160051b010190565b60018060a01b0381165f52600860205260405f20604051808260208294549384815201905f5260205f20925f5b818110614f0e575050614cda925003826148be565b8051928315614ec557614cec84614bd6565b614cf585614bd6565b94614cff81614c3b565b94614d0982614c3b565b945f5b838110614d1d575050505093929190565b808981614d2c60019486614c84565b51805f5260076020528860ff60405f2054168015614eb9575b614e2b57614d858360029495845f52600460205260405f2094898060a01b038c165f5260068601602052614d7f60405f2054988996614c84565b52614c84565b528b614d9a85614d9484614948565b92614c84565b52614da5848d614c84565b50018054821015614de057614dc391614dbd91614b1f565b50614948565b614dcd828a614c84565b52614dd88189614c84565b505b01614d0c565b50506040614df0815191826148be565b601381527242696c696e6d6579656e205365c3a7656e656b60681b6020820152614e1a828a614c84565b52614e258189614c84565b50614dda565b614e3792919350614c84565b525f614e43828c614c84565b5260408051614e5282826148be565b600f81526e14da5b1a5b9b5a7167c8105b9ad95d608a1b6020820152614e78838c614c84565b52614e83828b614c84565b50614e90815191826148be565b601281527153696c696e6d69c59f205365c3a7656e656b60701b6020820152614e1a828a614c84565b50600c54821015614d45565b92505050602090604051614ed983826148be565b5f81525f36813760405192614eee81856148be565b5f8452505f368137614efe614c08565b91614f07614c08565b9193929190565b8454835260019485019486945060209093019201614cc5565b15614f2e57565b60405162461bcd60e51b815260206004820152602160248201527f4f6e6c79206f776e65722063616e2063616c6c20746869732066756e6374696f6044820152603760f91b6064820152608490fd5b15614f8457565b60405162461bcd60e51b8152602060048201526013602482015272141bdb1b08191bd95cc81b9bdd08195e1a5cdd606a1b6044820152606490fd5b15614fc657565b60405162461bcd60e51b815260206004820152601a60248201527f506f6c6c206461746120686173206265656e2064656c657465640000000000006044820152606490fd5b8181029291811591840414171561319157565b818110615029575050565b5f815560010161501e565b8054905f815581615043575050565b5f5260205f20908101905b818110615059575050565b8061506660019254614910565b80615073575b500161504e565b601f8111831461508857505f81555b5f61506c565b6150a490825f5283601f60205f20920160051c8201910161501e565b805f525f6020812081835555615082565b80545f8255806150c3575050565b614980915f5260205f209081019061501e565b156150dd57565b60405162461bcd60e51b815260206004820152601560248201527413dc1d1a5bdb88191bd95cc81b9bdd08195e1a5cdd605a1b6044820152606490fd5b1561512157565b60405162461bcd60e51b815260206004820152601f60248201527f5265656e7472616e637947756172643a207265656e7472616e742063616c6c006044820152606490fd5b604051906151756040836148be565b600a8252692629a81b902a37b5b2b760b11b6020830152565b6040519061519d6040836148be565b60048252634c53503760e01b6020830152565b6020818303126110b2578051906001600160401b0382116110b2570181601f820112156110b2578051906151e3826149e8565b926151f160405194856148be565b828452602083830101116110b257815f9260208093018386015e8301015290565b600a5490600160401b821015613c4c576139988260016149809401600a55600a614b1f565b9190820391821161319157565b1561524b57565b60405162461bcd60e51b815260206004820152601d60248201527f506f6c6c206461746120686173206265656e20636c65616e65642075700000006044820152606490fd5b8015613191575f190190565b5f1981146131915760010190565b90815f52600460205260405f20915f52600760205260ff60405f2054166153545760088201549060098301549060ff600a8501541690600b85015490600d86015490600c8701549087600f81015460108201549260018060a01b0360118401541693615326600161531f601287015496614948565b9d01614948565b9a9998979695946001600160a01b038481169560ff60a087811c82169760a81c82169693861695901c169291565b90506040516153646020826148be565b5f8152906040516153766020826148be565b5f8152905f905f905f905f905f905f905f905f905f905f905f905f905f90565b1561539d57565b60405162461bcd60e51b8152602060048201526012602482015271506f6c6c206973206e6f742061637469766560701b6044820152606490fd5b9190820180921161319157565b6153f1600c548210614f7d565b805f52600760205261540a60ff60405f20541615614fbf565b805f526004602052600460405f200160018060a01b0383165f5260205260ff60405f20541615615458575f526004602052600660405f20019060018060a01b03165f5260205260405f205490565b60405162461bcd60e51b815260206004820152601f60248201527f5573657220686173206e6f7420766f74656420696e207468697320706f6c6c006044820152606490fd5b6001600160a01b0391821681529116602082015260408101919091525f6060820181905260a06080830181905282015260c00190565b156154da57565b60405162461bcd60e51b815260206004820152602560248201527f4120706f6c6c206d7573742068617665206174206c656173742074776f206f7060448201526474696f6e7360d81b6064820152608490fd5b1561553457565b60405162461bcd60e51b815260206004820152601f60248201527f4475726174696f6e206d7573742062652067726561746572207468616e2030006044820152606490fd5b91909182516001600160401b038111613c4c576155968254614910565b601f8111615636575b506020601f82116001146155d857819293945f926155cd575b50508160011b915f199060031b1c1916179055565b015190505f806155b8565b601f19821690835f52805f20915f5b81811061561e57509583600195969710615606575b505050811b019055565b01515f1960f88460031b161c191690555f80806155fc565b9192602060018192868b0151815501940192016155e7565b61566190835f5260205f20601f840160051c81019160208510615667575b601f0160051c019061501e565b5f61559f565b9091508190615654565b906006811015612db957815460ff60a01b191660a09190911b60ff60a01b16179055565b908160209103126110b2575180151581036110b25790565b156156b457565b60405162461bcd60e51b8152602060048201526024808201527f4f6e6c7920666f6c6c6f776572732063616e20766f746520696e2074686973206044820152631c1bdb1b60e21b6064820152608490fd5b1561570c57565b60405162461bcd60e51b815260206004820152602360248201527f5265717569726564204c53503820746f6b656e2061646472657373206e6f74206044820152621cd95d60ea1b6064820152608490fd5b1561576457565b60405162461bcd60e51b815260206004820152601e60248201527f4f6e6c79204c535038204e465420686f6c646572732063616e20766f746500006044820152606490fd5b156157b057565b60405162461bcd60e51b815260206004820152602360248201527f5265717569726564204c53503720746f6b656e2061646472657373206e6f74206044820152621cd95d60ea1b6064820152608490fd5b1561580857565b60405162461bcd60e51b815260206004820152602d60248201527f5265717569726564204c53503720746f6b656e20616d6f756e74206e6f74207360448201526c195d081bdc881a5b9d985b1a59609a1b6064820152608490fd5b1561586a57565b60405162461bcd60e51b815260206004820152602760248201527f496e73756666696369656e74204c53503720746f6b656e2062616c616e636520604482015266746f20766f746560c81b6064820152608490fd5b60018060a01b03811690815f52600960205260405f20805490600182018092116131915755815f52600b60205260ff60405f205416156158fd575050565b61590690615212565b5f52600b60205260405f20600160ff1982541617905556fe436f6e747261637420696e73756666696369656e742062616c616e636520666fa26469706673582212203d822fa1783464ce5423b06f6451df55fab7c11c6f9cceb3727f35508e960fdf64736f6c634300081a0033",
			"opcodes": "PUSH1 0x80 DUP1 PUSH1 0x40 MSTORE CALLVALUE PUSH1 0x4B JUMPI PUSH8 0x16345785D8A0000 PUSH1 0x1 SSTORE PUSH8 0x16345785D8A0000 PUSH1 0x2 SSTORE PUSH1 0xA PUSH1 0x3 SSTORE CALLER PUSH1 0x1 DUP1 PUSH1 0xA0 SHL SUB NOT PUSH1 0xD SLOAD AND OR PUSH1 0xD SSTORE PUSH0 PUSH1 0xC SSTORE PUSH1 0x1 PUSH0 SSTORE PUSH2 0x5974 SWAP1 DUP2 PUSH2 0x50 DUP3 CODECOPY RETURN JUMPDEST PUSH0 DUP1 REVERT INVALID PUSH1 0xA0 PUSH1 0x40 MSTORE PUSH1 0x4 CALLDATASIZE LT ISZERO PUSH2 0x11 JUMPI PUSH0 DUP1 REVERT JUMPDEST PUSH0 PUSH1 0x80 MSTORE PUSH0 CALLDATALOAD PUSH1 0xE0 SHR DUP1 PUSH4 0x107E472 EQ PUSH2 0x4759 JUMPI DUP1 PUSH4 0xFF7C4A5 EQ PUSH2 0x46E9 JUMPI DUP1 PUSH4 0x14205E28 EQ PUSH2 0x465F JUMPI DUP1 PUSH4 0x154D2093 EQ PUSH2 0x4630 JUMPI DUP1 PUSH4 0x19FAC8FD EQ PUSH2 0x457E JUMPI DUP1 PUSH4 0x1BD3528E EQ PUSH2 0x43BD JUMPI DUP1 PUSH4 0x1E0412AB EQ PUSH2 0x43A0 JUMPI DUP1 PUSH4 0x320D88F9 EQ PUSH2 0x41D1 JUMPI DUP1 PUSH4 0x37151279 EQ PUSH2 0x415F JUMPI DUP1 PUSH4 0x3E25E837 EQ PUSH2 0x404A JUMPI DUP1 PUSH4 0x43859632 EQ PUSH2 0x3FD7 JUMPI DUP1 PUSH4 0x43EB921B EQ PUSH2 0x3F82 JUMPI DUP1 PUSH4 0x4E17B8E9 EQ PUSH2 0x3F52 JUMPI DUP1 PUSH4 0x52ECAB6F EQ PUSH2 0x3F1A JUMPI DUP1 PUSH4 0x5EA1D6F8 EQ PUSH2 0x3EFD JUMPI DUP1 PUSH4 0x5EAD1C0E EQ PUSH2 0x3EA4 JUMPI DUP1 PUSH4 0x6D245C3A EQ PUSH2 0x3D60 JUMPI DUP1 PUSH4 0x6D69FCAF EQ PUSH2 0x3AE8 JUMPI DUP1 PUSH4 0x6F9FB98A EQ PUSH2 0x3ACD JUMPI DUP1 PUSH4 0x75151B63 EQ PUSH2 0x3A90 JUMPI DUP1 PUSH4 0x76319190 EQ PUSH2 0x38CC JUMPI DUP1 PUSH4 0x86B646F2 EQ PUSH2 0x3860 JUMPI DUP1 PUSH4 0x88AA8BEE EQ PUSH2 0x3694 JUMPI DUP1 PUSH4 0x8CA34326 EQ PUSH2 0x3630 JUMPI DUP1 PUSH4 0x8DA5CB5B EQ PUSH2 0x3608 JUMPI DUP1 PUSH4 0x9207891D EQ PUSH2 0x35EB JUMPI DUP1 PUSH4 0x9534E637 EQ PUSH2 0x349A JUMPI DUP1 PUSH4 0x97A25461 EQ PUSH2 0x347D JUMPI DUP1 PUSH4 0x99664E9C EQ PUSH2 0x334E JUMPI DUP1 PUSH4 0x9A0040E4 EQ PUSH2 0x324E JUMPI DUP1 PUSH4 0x9ECDC3A7 EQ PUSH2 0x30DE JUMPI DUP1 PUSH4 0xA333E6DF EQ PUSH2 0x30AC JUMPI DUP1 PUSH4 0xAAAAEA83 EQ PUSH2 0x307E JUMPI DUP1 PUSH4 0xAC2F0074 EQ PUSH2 0x2F25 JUMPI DUP1 PUSH4 0xAE169A50 EQ PUSH2 0x29DF JUMPI DUP1 PUSH4 0xAEAA6D75 EQ PUSH2 0x21D3 JUMPI DUP1 PUSH4 0xAEEFE31F EQ PUSH2 0xC9C JUMPI DUP1 PUSH4 0xB0C095E3 EQ PUSH2 0x2160 JUMPI DUP1 PUSH4 0xB384ABEF EQ PUSH2 0x19E9 JUMPI DUP1 PUSH4 0xBACC1F24 EQ PUSH2 0x1972 JUMPI DUP1 PUSH4 0xBD798A3F EQ PUSH2 0x1478 JUMPI DUP1 PUSH4 0xC31A8577 EQ PUSH2 0x143C JUMPI DUP1 PUSH4 0xC6255626 EQ PUSH2 0x13FA JUMPI DUP1 PUSH4 0xC73CDD23 EQ PUSH2 0x13DB JUMPI DUP1 PUSH4 0xC8B727A1 EQ PUSH2 0x1360 JUMPI DUP1 PUSH4 0xCDE202C4 EQ PUSH2 0x1168 JUMPI DUP1 PUSH4 0xD7B363E4 EQ PUSH2 0xE43 JUMPI DUP1 PUSH4 0xD7F644EB EQ PUSH2 0xDF3 JUMPI DUP1 PUSH4 0xDE12234B EQ PUSH2 0xD63 JUMPI DUP1 PUSH4 0xE271015B EQ PUSH2 0xD35 JUMPI DUP1 PUSH4 0xF184BAB1 EQ PUSH2 0xCD8 JUMPI DUP1 PUSH4 0xF50DDBC7 EQ PUSH2 0xC9C JUMPI DUP1 PUSH4 0xF6FF3FE2 EQ PUSH2 0x46B JUMPI DUP1 PUSH4 0xF7562765 EQ PUSH2 0x390 JUMPI PUSH4 0xF7E5058C EQ PUSH2 0x27A JUMPI PUSH0 DUP1 REVERT JUMPDEST CALLVALUE PUSH2 0x38A JUMPI PUSH1 0x20 CALLDATASIZE PUSH1 0x3 NOT ADD SLT PUSH2 0x38A JUMPI PUSH1 0x4 CALLDATALOAD PUSH2 0x2A3 PUSH1 0x1 DUP1 PUSH1 0xA0 SHL SUB PUSH1 0xD SLOAD AND CALLER EQ PUSH2 0x4F27 JUMP JUMPDEST PUSH3 0x15180 DUP2 MUL SWAP1 DUP1 DUP3 DIV PUSH3 0x15180 EQ SWAP1 ISZERO OR ISZERO PUSH2 0x372 JUMPI PUSH2 0x2C4 SWAP1 TIMESTAMP PUSH2 0x5237 JUMP JUMPDEST PUSH1 0x80 MLOAD JUMPDEST PUSH1 0xC SLOAD DUP2 LT ISZERO PUSH2 0x36C JUMPI DUP1 PUSH1 0x1 SWAP2 PUSH1 0x80 MLOAD MSTORE PUSH1 0x4 PUSH1 0x20 MSTORE DUP3 PUSH1 0x9 PUSH1 0x40 PUSH1 0x80 MLOAD KECCAK256 ADD SLOAD LT DUP1 PUSH2 0x351 JUMPI JUMPDEST PUSH2 0x2FC JUMPI JUMPDEST ADD PUSH2 0x2C8 JUMP JUMPDEST DUP1 PUSH1 0x80 MLOAD MSTORE PUSH1 0x4 PUSH1 0x20 MSTORE PUSH2 0x317 PUSH1 0x2 PUSH1 0x40 PUSH1 0x80 MLOAD KECCAK256 ADD PUSH2 0x5034 JUMP JUMPDEST DUP1 PUSH1 0x80 MLOAD MSTORE PUSH1 0x4 PUSH1 0x20 MSTORE PUSH2 0x332 PUSH1 0x7 PUSH1 0x40 PUSH1 0x80 MLOAD KECCAK256 ADD PUSH2 0x50B5 JUMP JUMPDEST DUP1 PUSH1 0x80 MLOAD MSTORE PUSH1 0x7 PUSH1 0x20 MSTORE PUSH1 0x40 PUSH1 0x80 MLOAD KECCAK256 DUP3 PUSH1 0xFF NOT DUP3 SLOAD AND OR SWAP1 SSTORE PUSH2 0x2F6 JUMP JUMPDEST POP DUP1 PUSH1 0x80 MLOAD MSTORE PUSH1 0x7 PUSH1 0x20 MSTORE PUSH1 0xFF PUSH1 0x40 PUSH1 0x80 MLOAD KECCAK256 SLOAD AND ISZERO PUSH2 0x2F1 JUMP JUMPDEST PUSH1 0x80 MLOAD DUP1 RETURN JUMPDEST PUSH4 0x4E487B71 PUSH1 0xE0 SHL PUSH1 0x80 MLOAD MSTORE PUSH1 0x11 PUSH1 0x4 MSTORE PUSH1 0x24 PUSH1 0x80 MLOAD REVERT JUMPDEST PUSH1 0x80 MLOAD DUP1 REVERT JUMPDEST CALLVALUE PUSH2 0x38A JUMPI PUSH1 0x20 CALLDATASIZE PUSH1 0x3 NOT ADD SLT PUSH2 0x38A JUMPI PUSH1 0x4 CALLDATALOAD PUSH2 0x3B1 PUSH1 0xC SLOAD DUP3 LT PUSH2 0x4F7D JUMP JUMPDEST DUP1 PUSH1 0x80 MLOAD MSTORE PUSH1 0x7 PUSH1 0x20 MSTORE PUSH2 0x3CE PUSH1 0xFF PUSH1 0x40 PUSH1 0x80 MLOAD KECCAK256 SLOAD AND ISZERO PUSH2 0x4FBF JUMP JUMPDEST DUP1 PUSH1 0x80 MLOAD MSTORE PUSH1 0x7 PUSH1 0x20 MSTORE PUSH2 0x3EB PUSH1 0xFF PUSH1 0x40 PUSH1 0x80 MLOAD KECCAK256 SLOAD AND ISZERO PUSH2 0x5244 JUMP JUMPDEST PUSH1 0x80 MLOAD MSTORE PUSH1 0x4 PUSH1 0x20 MSTORE PUSH1 0x2 PUSH1 0x40 PUSH1 0x80 MLOAD KECCAK256 ADD DUP1 SLOAD PUSH2 0x408 DUP2 PUSH2 0x48DF JUMP JUMPDEST SWAP2 PUSH2 0x416 PUSH1 0x40 MLOAD SWAP4 DUP5 PUSH2 0x48BE JUMP JUMPDEST DUP2 DUP4 MSTORE PUSH1 0x20 DUP4 ADD SWAP1 PUSH1 0x80 MLOAD MSTORE PUSH1 0x20 PUSH1 0x80 MLOAD KECCAK256 PUSH1 0x80 MLOAD SWAP2 JUMPDEST DUP4 DUP4 LT PUSH2 0x44E JUMPI PUSH1 0x40 MLOAD PUSH1 0x20 DUP1 DUP3 MSTORE DUP2 SWAP1 PUSH2 0x44A SWAP1 DUP3 ADD DUP9 PUSH2 0x4850 JUMP JUMPDEST SUB SWAP1 RETURN JUMPDEST PUSH1 0x1 PUSH1 0x20 DUP2 SWAP3 PUSH2 0x45D DUP6 PUSH2 0x4948 JUMP JUMPDEST DUP2 MSTORE ADD SWAP3 ADD SWAP3 ADD SWAP2 SWAP1 PUSH2 0x42D JUMP JUMPDEST PUSH2 0x140 CALLDATASIZE PUSH1 0x3 NOT ADD SLT PUSH2 0x38A JUMPI PUSH1 0x4 CALLDATALOAD PUSH1 0x1 PUSH1 0x1 PUSH1 0x40 SHL SUB DUP2 GT PUSH2 0x38A JUMPI PUSH2 0x497 SWAP1 CALLDATASIZE SWAP1 PUSH1 0x4 ADD PUSH2 0x4A03 JUMP JUMPDEST PUSH1 0x24 CALLDATALOAD PUSH1 0x1 PUSH1 0x1 PUSH1 0x40 SHL SUB DUP2 GT PUSH2 0x38A JUMPI PUSH2 0x4B6 SWAP1 CALLDATASIZE SWAP1 PUSH1 0x4 ADD PUSH2 0x4A03 JUMP JUMPDEST SWAP1 PUSH1 0x44 CALLDATALOAD PUSH1 0x1 PUSH1 0x1 PUSH1 0x40 SHL SUB DUP2 GT PUSH2 0x38A JUMPI PUSH2 0x4D6 SWAP1 CALLDATASIZE SWAP1 PUSH1 0x4 ADD PUSH2 0x4A49 JUMP JUMPDEST PUSH2 0x4DE PUSH2 0x4AC7 JUMP JUMPDEST SWAP2 PUSH2 0x4E7 PUSH2 0x4ADD JUMP JUMPDEST SWAP1 PUSH1 0xA4 CALLDATALOAD SWAP4 DUP5 ISZERO ISZERO SWAP6 DUP7 DUP7 SUB PUSH2 0x38A JUMPI PUSH1 0xC4 CALLDATALOAD PUSH1 0x1 PUSH1 0x1 PUSH1 0x80 SHL SUB DUP2 AND SWAP8 SWAP1 DUP9 SWAP1 SUB PUSH2 0x38A JUMPI PUSH1 0xE4 CALLDATALOAD SWAP1 PUSH1 0x6 DUP3 LT ISZERO SWAP5 DUP6 PUSH2 0x38A JUMPI PUSH2 0x524 PUSH2 0x47E2 JUMP JUMPDEST SWAP4 PUSH1 0x1 PUSH1 0x1 PUSH1 0x80 SHL SUB PUSH2 0x124 CALLDATALOAD SWAP7 PUSH2 0x542 PUSH1 0x2 PUSH1 0x80 MLOAD SLOAD EQ ISZERO PUSH2 0x511A JUMP JUMPDEST PUSH1 0x2 PUSH1 0x80 MLOAD SSTORE PUSH2 0x555 PUSH1 0x1 DUP13 MLOAD GT PUSH2 0x54D3 JUMP JUMPDEST AND SWAP7 DUP8 ISZERO SWAP11 PUSH2 0x564 DUP13 ISZERO PUSH2 0x552D JUMP JUMPDEST PUSH1 0x80 MLOAD SWAP1 ISZERO PUSH2 0xB06 JUMPI POP PUSH1 0x1 PUSH1 0x1 PUSH1 0x80 SHL SUB DUP10 AND DUP1 ISZERO PUSH2 0xAB1 JUMPI DUP13 ISZERO PUSH2 0xA6D JUMPI PUSH2 0x58E SWAP1 DUP14 PUSH2 0x500B JUMP JUMPDEST PUSH2 0x5A7 PUSH1 0x64 PUSH2 0x59F PUSH1 0x3 SLOAD DUP5 PUSH2 0x500B JUMP JUMPDEST DIV DUP1 SWAP3 PUSH2 0x53D7 JUMP JUMPDEST CALLVALUE SUB PUSH2 0xA0D JUMPI PUSH2 0x5BA DUP3 SWAP2 PUSH1 0xE SLOAD PUSH2 0x53D7 JUMP JUMPDEST PUSH1 0xE SSTORE JUMPDEST PUSH2 0x9E7 JUMPI PUSH1 0x2 DUP6 EQ DUP1 ISZERO PUSH2 0x9FF JUMPI JUMPDEST ISZERO PUSH2 0x95B JUMPI POP PUSH1 0x1 PUSH1 0x1 PUSH1 0xA0 SHL SUB DUP6 AND ISZERO PUSH2 0x903 JUMPI DUP6 ISZERO PUSH2 0x8A1 JUMPI PUSH1 0x1 SWAP10 JUMPDEST PUSH1 0xC SLOAD SWAP9 DUP10 PUSH1 0x80 MLOAD MSTORE PUSH1 0x4 PUSH1 0x20 MSTORE PUSH2 0x616 DUP4 PUSH1 0x40 PUSH1 0x80 MLOAD KECCAK256 SWAP14 DUP15 PUSH2 0x610 DUP9 DUP3 PUSH2 0x5579 JUMP JUMPDEST ADD PUSH2 0x5579 JUMP JUMPDEST PUSH1 0xA DUP13 ADD PUSH1 0x1 PUSH1 0xFF NOT DUP3 SLOAD AND OR SWAP1 SSTORE PUSH1 0x1 PUSH1 0x1 PUSH1 0x80 SHL SUB TIMESTAMP AND PUSH1 0x8 DUP14 ADD SSTORE PUSH2 0xE10 DUP10 MUL SWAP2 DUP10 DUP4 DIV PUSH2 0xE10 EQ OR ISZERO PUSH2 0x372 JUMPI PUSH1 0x1 PUSH1 0x1 PUSH1 0x80 SHL SUB PUSH2 0x65A DUP2 SWAP4 TIMESTAMP PUSH2 0x53D7 JUMP JUMPDEST AND PUSH1 0x9 DUP14 ADD SSTORE PUSH1 0xF DUP13 ADD DUP1 SLOAD SWAP2 SWAP1 SWAP3 AND PUSH1 0xD DUP14 ADD DUP2 SWAP1 SSTORE PUSH1 0xFF PUSH1 0xA0 SHL PUSH1 0xA0 SWAP7 SWAP1 SWAP7 SHL SWAP6 SWAP1 SWAP6 AND PUSH1 0x1 PUSH1 0x1 PUSH1 0xB0 SHL SUB NOT SWAP1 SWAP2 AND CALLER PUSH2 0xFFFF PUSH1 0xA0 SHL NOT AND OR OR SWAP1 SSTORE PUSH1 0xC DUP11 ADD SWAP11 DUP12 SSTORE PUSH2 0x6AD DUP5 PUSH1 0x10 DUP13 ADD PUSH2 0x5671 JUMP JUMPDEST PUSH1 0x11 DUP11 ADD DUP1 SLOAD PUSH1 0x1 PUSH1 0x1 PUSH1 0xA0 SHL SUB NOT AND PUSH1 0x1 PUSH1 0x1 PUSH1 0xA0 SHL SUB DUP8 AND OR SWAP1 SSTORE PUSH1 0x12 DUP11 ADD DUP7 SWAP1 SSTORE PUSH1 0x13 DUP11 ADD DUP1 SLOAD PUSH1 0xFF NOT AND SWAP1 SSTORE PUSH1 0x80 DUP1 MLOAD CALLER SWAP1 MSTORE PUSH1 0x9 PUSH1 0x20 MSTORE MLOAD PUSH1 0x40 SWAP1 KECCAK256 DUP1 SLOAD PUSH1 0xA DUP2 ADD SWAP2 SWAP1 DUP3 LT PUSH2 0x372 JUMPI SSTORE CALLER PUSH1 0x80 MLOAD MSTORE PUSH1 0xB PUSH1 0x20 MSTORE PUSH1 0xFF PUSH1 0x40 PUSH1 0x80 MLOAD KECCAK256 SLOAD AND ISZERO PUSH2 0x878 JUMPI JUMPDEST SWAP10 SWAP9 SWAP10 CALLER PUSH1 0x80 MLOAD MSTORE PUSH1 0xF PUSH1 0x20 MSTORE PUSH1 0x40 PUSH1 0x80 MLOAD KECCAK256 PUSH2 0x734 DUP2 SLOAD PUSH2 0x529C JUMP JUMPDEST SWAP1 SSTORE PUSH1 0x2 PUSH1 0x80 MLOAD SWAP12 ADD SWAP11 JUMPDEST DUP10 MLOAD DUP2 LT ISZERO PUSH2 0x7B9 JUMPI PUSH2 0x752 DUP2 DUP12 PUSH2 0x4C84 JUMP JUMPDEST MLOAD SWAP1 DUP13 SLOAD PUSH1 0x1 PUSH1 0x40 SHL DUP2 LT ISZERO PUSH2 0x7A1 JUMPI DUP1 DUP15 PUSH1 0x1 PUSH2 0x772 SWAP4 ADD DUP2 SSTORE PUSH2 0x4B1F JUMP JUMPDEST PUSH2 0x788 JUMPI PUSH1 0x1 SWAP3 PUSH2 0x782 SWAP2 PUSH2 0x5579 JUMP JUMPDEST ADD PUSH2 0x73F JUMP JUMPDEST PUSH4 0x4E487B71 PUSH1 0xE0 SHL PUSH1 0x80 MLOAD MSTORE PUSH1 0x80 MLOAD PUSH1 0x4 MSTORE PUSH1 0x24 PUSH1 0x80 MLOAD REVERT JUMPDEST PUSH4 0x4E487B71 PUSH1 0xE0 SHL PUSH1 0x80 MLOAD MSTORE PUSH1 0x41 PUSH1 0x4 MSTORE PUSH1 0x24 PUSH1 0x80 MLOAD REVERT JUMPDEST POP SWAP1 PUSH2 0x825 PUSH2 0x160 SWAP10 PUSH2 0x817 PUSH2 0x848 SWAP7 SWAP6 SWAP5 PUSH2 0x809 PUSH32 0x9398FCEFD4332528A93849BF2EB1FC24D001B3CE59CFFE028340FD4B0321FCDD SWAP15 SLOAD SWAP6 PUSH1 0x40 MLOAD SWAP15 DUP16 SWAP15 DUP16 SWAP1 DUP2 MSTORE DUP2 PUSH1 0x20 DUP3 ADD MSTORE ADD SWAP1 PUSH2 0x482C JUMP JUMPDEST DUP13 DUP2 SUB PUSH1 0x40 DUP15 ADD MSTORE SWAP1 PUSH2 0x482C JUMP JUMPDEST SWAP1 DUP11 DUP3 SUB PUSH1 0x60 DUP13 ADD MSTORE PUSH2 0x4850 JUMP JUMPDEST SWAP7 PUSH1 0x80 DUP10 ADD MSTORE PUSH1 0xA0 DUP9 ADD MSTORE PUSH1 0xC0 DUP8 ADD MSTORE PUSH1 0x80 MLOAD PUSH1 0xE0 DUP8 ADD MSTORE PUSH2 0x100 DUP7 ADD SWAP1 PUSH2 0x4903 JUMP JUMPDEST PUSH1 0x1 PUSH1 0x1 PUSH1 0xA0 SHL SUB AND PUSH2 0x120 DUP5 ADD MSTORE PUSH2 0x140 DUP4 ADD MSTORE SUB SWAP1 LOG1 PUSH2 0x86B PUSH1 0xC SLOAD PUSH2 0x529C JUMP JUMPDEST PUSH1 0xC SSTORE PUSH1 0x80 MLOAD PUSH1 0x1 DUP2 SSTORE DUP1 RETURN JUMPDEST PUSH2 0x881 CALLER PUSH2 0x5212 JUMP JUMPDEST CALLER PUSH1 0x80 MLOAD MSTORE PUSH1 0xB PUSH1 0x20 MSTORE PUSH1 0x40 PUSH1 0x80 MLOAD KECCAK256 PUSH1 0x1 PUSH1 0xFF NOT DUP3 SLOAD AND OR SWAP1 SSTORE PUSH2 0x717 JUMP JUMPDEST PUSH1 0x40 MLOAD PUSH3 0x461BCD PUSH1 0xE5 SHL DUP2 MSTORE PUSH1 0x20 PUSH1 0x4 DUP3 ADD MSTORE PUSH1 0x34 PUSH1 0x24 DUP3 ADD MSTORE PUSH32 0x5265717569726564204C53503720746F6B656E20616D6F756E74206D75737420 PUSH1 0x44 DUP3 ADD MSTORE PUSH20 0x62652067726561746572207468616E207A65726F PUSH1 0x60 SHL PUSH1 0x64 DUP3 ADD MSTORE PUSH1 0x84 SWAP1 REVERT JUMPDEST PUSH1 0x40 MLOAD PUSH3 0x461BCD PUSH1 0xE5 SHL DUP2 MSTORE PUSH1 0x20 PUSH1 0x4 DUP3 ADD MSTORE PUSH1 0x2A PUSH1 0x24 DUP3 ADD MSTORE PUSH32 0x5265717569726564204C53503720746F6B656E20616464726573732063616E6E PUSH1 0x44 DUP3 ADD MSTORE PUSH10 0x6F74206265207A65726F PUSH1 0xB0 SHL PUSH1 0x64 DUP3 ADD MSTORE PUSH1 0x84 SWAP1 REVERT JUMPDEST PUSH2 0x9E7 JUMPI PUSH1 0x3 DUP5 EQ DUP1 ISZERO PUSH2 0x9DD JUMPI JUMPDEST PUSH2 0x977 JUMPI JUMPDEST PUSH1 0x1 SWAP10 PUSH2 0x5EC JUMP JUMPDEST PUSH1 0x1 PUSH1 0x1 PUSH1 0xA0 SHL SUB DUP6 AND PUSH2 0x96F JUMPI PUSH1 0x40 MLOAD PUSH3 0x461BCD PUSH1 0xE5 SHL DUP2 MSTORE PUSH1 0x20 PUSH1 0x4 DUP3 ADD MSTORE PUSH1 0x2A PUSH1 0x24 DUP3 ADD MSTORE PUSH32 0x5265717569726564204C53503820746F6B656E20616464726573732063616E6E PUSH1 0x44 DUP3 ADD MSTORE PUSH10 0x6F74206265207A65726F PUSH1 0xB0 SHL PUSH1 0x64 DUP3 ADD MSTORE PUSH1 0x84 SWAP1 REVERT JUMPDEST POP PUSH1 0x5 DUP5 EQ PUSH2 0x96A JUMP JUMPDEST PUSH4 0x4E487B71 PUSH1 0xE0 SHL PUSH1 0x80 MLOAD MSTORE PUSH1 0x21 PUSH1 0x4 MSTORE PUSH1 0x24 PUSH1 0x80 MLOAD REVERT JUMPDEST POP POP PUSH1 0x80 MLOAD PUSH1 0x4 DUP6 EQ PUSH2 0x5CD JUMP JUMPDEST PUSH1 0x40 MLOAD PUSH3 0x461BCD PUSH1 0xE5 SHL DUP2 MSTORE PUSH1 0x20 PUSH1 0x4 DUP3 ADD MSTORE PUSH1 0x32 PUSH1 0x24 DUP3 ADD MSTORE PUSH32 0x496E636F7272656374204C59582073656E7420666F7220737065636966696564 PUSH1 0x44 DUP3 ADD MSTORE PUSH18 0x81C995DD85C9908185B99081D185C99D95D PUSH1 0x72 SHL PUSH1 0x64 DUP3 ADD MSTORE PUSH1 0x84 SWAP1 REVERT JUMPDEST PUSH1 0x64 PUSH1 0x40 MLOAD PUSH3 0x461BCD PUSH1 0xE5 SHL DUP2 MSTORE PUSH1 0x20 PUSH1 0x4 DUP3 ADD MSTORE PUSH1 0x20 PUSH1 0x24 DUP3 ADD MSTORE PUSH32 0x5265776172642070657220766F7465206D75737420626520706F736974697665 PUSH1 0x44 DUP3 ADD MSTORE REVERT JUMPDEST PUSH1 0x40 MLOAD PUSH3 0x461BCD PUSH1 0xE5 SHL DUP2 MSTORE PUSH1 0x20 PUSH1 0x4 DUP3 ADD MSTORE PUSH1 0x27 PUSH1 0x24 DUP3 ADD MSTORE PUSH32 0x54617267657420766F74657220636F756E7420726571756972656420666F7220 PUSH1 0x44 DUP3 ADD MSTORE PUSH7 0x72657761726473 PUSH1 0xC8 SHL PUSH1 0x64 DUP3 ADD MSTORE PUSH1 0x84 SWAP1 REVERT JUMPDEST SWAP1 POP DUP12 PUSH2 0xC3B JUMPI CALLER PUSH1 0x80 MLOAD MSTORE PUSH1 0xF PUSH1 0x20 MSTORE PUSH1 0x40 PUSH1 0x80 MLOAD KECCAK256 SLOAD PUSH2 0xC32 JUMPI JUMPDEST PUSH1 0x80 MLOAD SWAP1 PUSH1 0x4 DUP7 EQ DUP1 ISZERO PUSH2 0xC23 JUMPI JUMPDEST PUSH2 0xC12 JUMPI JUMPDEST DUP1 ISZERO PUSH2 0xBAF JUMPI CALLVALUE LT PUSH2 0xB58 JUMPI DUP1 PUSH2 0xB50 CALLVALUE PUSH1 0xE SLOAD PUSH2 0x53D7 JUMP JUMPDEST PUSH1 0xE SSTORE PUSH2 0x5BE JUMP JUMPDEST PUSH1 0x40 MLOAD PUSH3 0x461BCD PUSH1 0xE5 SHL DUP2 MSTORE PUSH1 0x20 PUSH1 0x4 DUP3 ADD MSTORE PUSH1 0x29 PUSH1 0x24 DUP3 ADD MSTORE PUSH32 0x496E73756666696369656E74204C59582073656E7420666F7220726571756972 PUSH1 0x44 DUP3 ADD MSTORE PUSH9 0x656420666565287329 PUSH1 0xB8 SHL PUSH1 0x64 DUP3 ADD MSTORE PUSH1 0x84 SWAP1 REVERT JUMPDEST POP CALLVALUE PUSH2 0xBBB JUMPI DUP1 PUSH2 0x5BE JUMP JUMPDEST PUSH1 0x40 MLOAD PUSH3 0x461BCD PUSH1 0xE5 SHL DUP2 MSTORE PUSH1 0x20 PUSH1 0x4 DUP3 ADD MSTORE PUSH1 0x29 PUSH1 0x24 DUP3 ADD MSTORE PUSH32 0x53686F756C64206E6F742073656E64204C5958206966206E6F20666565206973 PUSH1 0x44 DUP3 ADD MSTORE PUSH9 0x81C995C5D5A5C9959 PUSH1 0xBA SHL PUSH1 0x64 DUP3 ADD MSTORE PUSH1 0x84 SWAP1 REVERT JUMPDEST PUSH1 0x2 SLOAD PUSH2 0xC1E SWAP2 PUSH2 0x53D7 JUMP JUMPDEST PUSH2 0xB37 JUMP JUMPDEST POP PUSH1 0x80 MLOAD SWAP2 POP PUSH1 0x5 DUP7 EQ PUSH2 0xB32 JUMP JUMPDEST POP PUSH1 0x1 SLOAD PUSH2 0xB23 JUMP JUMPDEST PUSH1 0x40 MLOAD PUSH3 0x461BCD PUSH1 0xE5 SHL DUP2 MSTORE PUSH1 0x20 PUSH1 0x4 DUP3 ADD MSTORE PUSH1 0x33 PUSH1 0x24 DUP3 ADD MSTORE PUSH32 0x5265776172642070657220766F7465206D757374206265207A65726F20666F72 PUSH1 0x44 DUP3 ADD MSTORE PUSH19 0x206E6F6E2D726577617264656420706F6C6C73 PUSH1 0x68 SHL PUSH1 0x64 DUP3 ADD MSTORE PUSH1 0x84 SWAP1 REVERT JUMPDEST CALLVALUE PUSH2 0x38A JUMPI PUSH1 0x20 CALLDATASIZE PUSH1 0x3 NOT ADD SLT PUSH2 0x38A JUMPI PUSH1 0x1 PUSH1 0x1 PUSH1 0xA0 SHL SUB PUSH2 0xCBD PUSH2 0x47B6 JUMP JUMPDEST AND PUSH1 0x80 MLOAD MSTORE PUSH1 0x9 PUSH1 0x20 MSTORE PUSH1 0x20 PUSH1 0x40 PUSH1 0x80 MLOAD KECCAK256 SLOAD PUSH1 0x40 MLOAD SWAP1 DUP2 MSTORE RETURN JUMPDEST CALLVALUE PUSH2 0x38A JUMPI PUSH1 0x20 CALLDATASIZE PUSH1 0x3 NOT ADD SLT PUSH2 0x38A JUMPI PUSH32 0x3DBCB098695FDA7984304E63CF9483D2CD5B62644CCC62BD52309C83E12293F PUSH1 0x20 PUSH1 0x4 CALLDATALOAD PUSH2 0xD24 PUSH1 0x1 DUP1 PUSH1 0xA0 SHL SUB PUSH1 0xD SLOAD AND CALLER EQ PUSH2 0x4F27 JUMP JUMPDEST DUP1 PUSH1 0x1 SSTORE PUSH1 0x40 MLOAD SWAP1 DUP2 MSTORE LOG1 PUSH1 0x80 MLOAD DUP1 RETURN JUMPDEST CALLVALUE PUSH2 0x38A JUMPI PUSH1 0x20 CALLDATASIZE PUSH1 0x3 NOT ADD SLT PUSH2 0x38A JUMPI PUSH1 0x4 CALLDATALOAD PUSH1 0x80 MLOAD MSTORE PUSH1 0x5 PUSH1 0x20 MSTORE PUSH1 0x20 PUSH1 0x40 PUSH1 0x80 MLOAD KECCAK256 SLOAD PUSH1 0x40 MLOAD SWAP1 DUP2 MSTORE RETURN JUMPDEST CALLVALUE PUSH2 0x38A JUMPI PUSH1 0x20 CALLDATASIZE PUSH1 0x3 NOT ADD SLT PUSH2 0x38A JUMPI PUSH1 0x1 PUSH1 0x1 PUSH1 0xA0 SHL SUB PUSH2 0xD84 PUSH2 0x47B6 JUMP JUMPDEST AND PUSH1 0x80 MLOAD MSTORE PUSH1 0x8 PUSH1 0x20 MSTORE PUSH1 0x40 PUSH1 0x80 MLOAD KECCAK256 PUSH1 0x40 MLOAD SWAP1 DUP2 PUSH1 0x20 DUP3 SLOAD SWAP2 DUP3 DUP2 MSTORE ADD SWAP2 PUSH1 0x80 MLOAD MSTORE PUSH1 0x20 PUSH1 0x80 MLOAD KECCAK256 SWAP1 PUSH1 0x80 MLOAD JUMPDEST DUP2 DUP2 LT PUSH2 0xDDD JUMPI PUSH2 0x44A DUP6 PUSH2 0xDC9 DUP2 DUP8 SUB DUP3 PUSH2 0x48BE JUMP JUMPDEST PUSH1 0x40 MLOAD SWAP2 DUP3 SWAP2 PUSH1 0x20 DUP4 MSTORE PUSH1 0x20 DUP4 ADD SWAP1 PUSH2 0x47F9 JUMP JUMPDEST DUP3 SLOAD DUP5 MSTORE PUSH1 0x20 SWAP1 SWAP4 ADD SWAP3 PUSH1 0x1 SWAP3 DUP4 ADD SWAP3 ADD PUSH2 0xDB2 JUMP JUMPDEST CALLVALUE PUSH2 0x38A JUMPI PUSH1 0x20 CALLDATASIZE PUSH1 0x3 NOT ADD SLT PUSH2 0x38A JUMPI PUSH2 0xE0C PUSH2 0x47B6 JUMP JUMPDEST PUSH2 0xE21 PUSH1 0x1 DUP1 PUSH1 0xA0 SHL SUB PUSH1 0xD SLOAD AND CALLER EQ PUSH2 0x4F27 JUMP JUMPDEST PUSH1 0x1 DUP1 PUSH1 0xA0 SHL SUB AND PUSH1 0x80 MLOAD MSTORE PUSH1 0x6 PUSH1 0x20 MSTORE PUSH1 0x20 PUSH1 0x40 PUSH1 0x80 MLOAD KECCAK256 SLOAD PUSH1 0x40 MLOAD SWAP1 DUP2 MSTORE RETURN JUMPDEST CALLVALUE PUSH2 0x38A JUMPI PUSH1 0x20 CALLDATASIZE PUSH1 0x3 NOT ADD SLT PUSH2 0x38A JUMPI PUSH2 0xE5C PUSH2 0x47B6 JUMP JUMPDEST PUSH2 0xE6C PUSH1 0x2 PUSH1 0x80 MLOAD SLOAD EQ ISZERO PUSH2 0x511A JUMP JUMPDEST PUSH1 0x2 PUSH1 0x80 MLOAD SSTORE PUSH2 0xE87 PUSH1 0x1 DUP1 PUSH1 0xA0 SHL SUB PUSH1 0xD SLOAD AND CALLER EQ PUSH2 0x4F27 JUMP JUMPDEST PUSH1 0x1 PUSH1 0x1 PUSH1 0xA0 SHL SUB AND DUP1 ISZERO PUSH2 0x110F JUMPI DUP1 PUSH1 0x80 MLOAD MSTORE PUSH1 0x6 PUSH1 0x20 MSTORE PUSH1 0x40 PUSH1 0x80 MLOAD KECCAK256 SLOAD SWAP1 DUP2 ISZERO PUSH2 0x10BE JUMPI DUP1 PUSH1 0x80 MLOAD MSTORE PUSH1 0x6 PUSH1 0x20 MSTORE PUSH1 0x80 MLOAD PUSH1 0x40 PUSH1 0x80 MLOAD KECCAK256 SSTORE PUSH1 0x40 MLOAD SWAP2 PUSH4 0x70A08231 PUSH1 0xE0 SHL DUP4 MSTORE ADDRESS PUSH1 0x4 DUP5 ADD MSTORE PUSH1 0x20 DUP4 PUSH1 0x24 DUP2 DUP6 GAS STATICCALL SWAP3 DUP4 ISZERO PUSH2 0xFB8 JUMPI PUSH1 0x80 MLOAD SWAP4 PUSH2 0x1086 JUMPI JUMPDEST POP DUP3 DUP2 GT ISZERO PUSH2 0x1080 JUMPI POP DUP2 JUMPDEST DUP3 ISZERO PUSH2 0x1030 JUMPI DUP3 GT PUSH2 0xFC5 JUMPI PUSH1 0xD SLOAD PUSH1 0x1 PUSH1 0x1 PUSH1 0xA0 SHL SUB AND DUP2 EXTCODESIZE ISZERO PUSH2 0x38A JUMPI PUSH1 0x40 MLOAD SWAP1 PUSH4 0x3B06CDDD PUSH1 0xE1 SHL DUP3 MSTORE DUP2 DUP1 PUSH2 0xF3C DUP7 PUSH1 0x80 MLOAD SWAP5 ADDRESS PUSH1 0x4 DUP6 ADD PUSH2 0x549D JUMP JUMPDEST SUB DUP2 PUSH1 0x80 MLOAD DUP7 GAS CALL DUP1 ISZERO PUSH2 0xFB8 JUMPI PUSH2 0xF9F JUMPI JUMPDEST PUSH1 0xD SLOAD PUSH1 0x40 DUP1 MLOAD PUSH1 0x1 PUSH1 0x1 PUSH1 0xA0 SHL SUB SWAP1 SWAP3 AND DUP3 MSTORE PUSH1 0x20 DUP3 ADD DUP6 SWAP1 MSTORE DUP2 ADD DUP4 SWAP1 MSTORE PUSH32 0x9A738A5C1058A1CD48022A48CBF5127657FDAB65D8D9DB8C36AF972C21620065 SWAP1 PUSH1 0x60 SWAP1 LOG1 PUSH1 0x80 MLOAD PUSH1 0x1 DUP2 SSTORE DUP1 RETURN JUMPDEST PUSH1 0x80 MLOAD PUSH2 0xFAB SWAP2 PUSH2 0x48BE JUMP JUMPDEST PUSH1 0x80 MLOAD PUSH2 0x38A JUMPI DUP3 PUSH2 0xF4F JUMP JUMPDEST PUSH1 0x40 MLOAD RETURNDATASIZE PUSH1 0x80 MLOAD DUP3 RETURNDATACOPY RETURNDATASIZE SWAP1 REVERT JUMPDEST PUSH1 0x40 MLOAD PUSH3 0x461BCD PUSH1 0xE5 SHL DUP2 MSTORE PUSH1 0x20 PUSH1 0x4 DUP3 ADD MSTORE PUSH1 0x3A PUSH1 0x24 DUP3 ADD MSTORE PUSH32 0x496E73756666696369656E7420746F6B656E2062616C616E636520666F722063 PUSH1 0x44 DUP3 ADD MSTORE PUSH32 0x6F6D6D697373696F6E207769746864726177616C20636865636B000000000000 PUSH1 0x64 DUP3 ADD MSTORE PUSH1 0x84 SWAP1 REVERT JUMPDEST PUSH1 0x40 MLOAD PUSH3 0x461BCD PUSH1 0xE5 SHL DUP2 MSTORE PUSH1 0x20 PUSH1 0x4 DUP3 ADD MSTORE PUSH1 0x22 PUSH1 0x24 DUP3 ADD MSTORE PUSH32 0x43616C63756C6174656420776974686472617720616D6F756E74206973207A65 PUSH1 0x44 DUP3 ADD MSTORE PUSH2 0x726F PUSH1 0xF0 SHL PUSH1 0x64 DUP3 ADD MSTORE PUSH1 0x84 SWAP1 REVERT JUMPDEST SWAP2 PUSH2 0xEFB JUMP JUMPDEST SWAP1 SWAP3 POP PUSH1 0x20 DUP2 RETURNDATASIZE PUSH1 0x20 GT PUSH2 0x10B6 JUMPI JUMPDEST DUP2 PUSH2 0x10A2 PUSH1 0x20 SWAP4 DUP4 PUSH2 0x48BE JUMP JUMPDEST DUP2 ADD SUB SLT PUSH2 0x10B2 JUMPI MLOAD SWAP2 DUP4 PUSH2 0xEEF JUMP JUMPDEST PUSH0 DUP1 REVERT JUMPDEST RETURNDATASIZE SWAP2 POP PUSH2 0x1095 JUMP JUMPDEST PUSH1 0x40 MLOAD PUSH3 0x461BCD PUSH1 0xE5 SHL DUP2 MSTORE PUSH1 0x20 PUSH1 0x4 DUP3 ADD MSTORE PUSH1 0x23 PUSH1 0x24 DUP3 ADD MSTORE PUSH32 0x4E6F20636F6D6D697373696F6E206561726E656420666F72207468697320746F PUSH1 0x44 DUP3 ADD MSTORE PUSH3 0x35B2B7 PUSH1 0xE9 SHL PUSH1 0x64 DUP3 ADD MSTORE PUSH1 0x84 SWAP1 REVERT JUMPDEST PUSH1 0x40 MLOAD PUSH3 0x461BCD PUSH1 0xE5 SHL DUP2 MSTORE PUSH1 0x20 PUSH1 0x4 DUP3 ADD MSTORE PUSH1 0x2B PUSH1 0x24 DUP3 ADD MSTORE PUSH32 0x43616E6E6F7420776974686472617720636F6D6D697373696F6E20666F72207A PUSH1 0x44 DUP3 ADD MSTORE PUSH11 0x65726F2061646472657373 PUSH1 0xA8 SHL PUSH1 0x64 DUP3 ADD MSTORE PUSH1 0x84 SWAP1 REVERT JUMPDEST CALLVALUE PUSH2 0x38A JUMPI PUSH1 0x20 CALLDATASIZE PUSH1 0x3 NOT ADD SLT PUSH2 0x38A JUMPI PUSH1 0x4 CALLDATALOAD PUSH2 0x1189 PUSH1 0xC SLOAD DUP3 LT PUSH2 0x4F7D JUMP JUMPDEST DUP1 PUSH1 0x80 MLOAD MSTORE PUSH1 0x7 PUSH1 0x20 MSTORE PUSH2 0x11A6 PUSH1 0xFF PUSH1 0x40 PUSH1 0x80 MLOAD KECCAK256 SLOAD AND ISZERO PUSH2 0x4FBF JUMP JUMPDEST DUP1 PUSH1 0x80 MLOAD MSTORE PUSH1 0x4 PUSH1 0x20 MSTORE PUSH1 0x40 PUSH1 0x80 MLOAD KECCAK256 PUSH1 0xA DUP2 ADD SWAP2 DUP3 SLOAD SWAP2 PUSH1 0xFF DUP4 AND ISZERO PUSH2 0x131B JUMPI PUSH1 0xF DUP2 ADD SLOAD PUSH1 0x1 PUSH1 0x1 PUSH1 0xA0 SHL SUB DUP2 AND CALLER SUB PUSH2 0x12DD JUMPI PUSH1 0xA0 SHR PUSH1 0xFF AND DUP1 PUSH2 0x12D0 JUMPI JUMPDEST DUP1 PUSH2 0x12BE JUMPI JUMPDEST PUSH2 0x1279 JUMPI PUSH1 0x9 ADD SLOAD TIMESTAMP GT PUSH2 0x1234 JUMPI PUSH32 0x703C67C157A1AFB7D386CE5212EE88BF0A690BCA998060E9595EBDFD747100CE SWAP3 PUSH1 0x20 SWAP3 PUSH1 0xFF NOT AND SWAP1 SSTORE PUSH1 0x40 MLOAD SWAP1 DUP2 MSTORE LOG1 PUSH1 0x80 MLOAD DUP1 RETURN JUMPDEST PUSH1 0x40 MLOAD PUSH3 0x461BCD PUSH1 0xE5 SHL DUP2 MSTORE PUSH1 0x20 PUSH1 0x4 DUP3 ADD MSTORE PUSH1 0x18 PUSH1 0x24 DUP3 ADD MSTORE PUSH32 0x43616E6E6F742070617573652C20706F6C6C20656E6465640000000000000000 PUSH1 0x44 DUP3 ADD MSTORE PUSH1 0x64 SWAP1 REVERT JUMPDEST PUSH1 0x40 MLOAD PUSH3 0x461BCD PUSH1 0xE5 SHL DUP2 MSTORE PUSH1 0x20 PUSH1 0x4 DUP3 ADD MSTORE PUSH1 0x1C PUSH1 0x24 DUP3 ADD MSTORE PUSH32 0x43616E6E6F742070617573652C20746172676574207265616368656400000000 PUSH1 0x44 DUP3 ADD MSTORE PUSH1 0x64 SWAP1 REVERT JUMPDEST POP PUSH1 0xB DUP2 ADD SLOAD PUSH1 0xD DUP3 ADD SLOAD GT ISZERO PUSH2 0x11EE JUMP JUMPDEST POP PUSH1 0xD DUP2 ADD SLOAD ISZERO ISZERO PUSH2 0x11E8 JUMP JUMPDEST PUSH1 0x40 MLOAD PUSH3 0x461BCD PUSH1 0xE5 SHL DUP2 MSTORE PUSH1 0x20 PUSH1 0x4 DUP3 ADD MSTORE PUSH1 0x16 PUSH1 0x24 DUP3 ADD MSTORE PUSH22 0x4F6E6C792063726561746F722063616E207061757365 PUSH1 0x50 SHL PUSH1 0x44 DUP3 ADD MSTORE PUSH1 0x64 SWAP1 REVERT JUMPDEST PUSH1 0x40 MLOAD PUSH3 0x461BCD PUSH1 0xE5 SHL DUP2 MSTORE PUSH1 0x20 PUSH1 0x4 DUP3 ADD MSTORE PUSH1 0x18 PUSH1 0x24 DUP3 ADD MSTORE PUSH32 0x506F6C6C20697320616C726561647920696E6163746976650000000000000000 PUSH1 0x44 DUP3 ADD MSTORE PUSH1 0x64 SWAP1 REVERT JUMPDEST CALLVALUE PUSH2 0x38A JUMPI PUSH1 0x40 CALLDATASIZE PUSH1 0x3 NOT ADD SLT PUSH2 0x38A JUMPI PUSH1 0x4 CALLDATALOAD PUSH2 0x137C PUSH2 0x47CC JUMP JUMPDEST SWAP1 PUSH2 0x138A PUSH1 0xC SLOAD DUP3 LT PUSH2 0x4F7D JUMP JUMPDEST DUP1 PUSH1 0x80 MLOAD MSTORE PUSH1 0x7 PUSH1 0x20 MSTORE PUSH2 0x13A7 PUSH1 0xFF PUSH1 0x40 PUSH1 0x80 MLOAD KECCAK256 SLOAD AND ISZERO PUSH2 0x4FBF JUMP JUMPDEST PUSH1 0x80 MLOAD MSTORE PUSH1 0x4 PUSH1 0x20 MSTORE PUSH1 0x5 PUSH1 0x40 PUSH1 0x80 MLOAD KECCAK256 ADD SWAP1 PUSH1 0x1 DUP1 PUSH1 0xA0 SHL SUB AND PUSH0 MSTORE PUSH1 0x20 MSTORE PUSH1 0x20 PUSH1 0xFF PUSH1 0x40 PUSH0 KECCAK256 SLOAD AND PUSH1 0x40 MLOAD SWAP1 ISZERO ISZERO DUP2 MSTORE RETURN JUMPDEST CALLVALUE PUSH2 0x38A JUMPI PUSH1 0x80 MLOAD CALLDATASIZE PUSH1 0x3 NOT ADD SLT PUSH2 0x38A JUMPI PUSH1 0x20 PUSH1 0xE SLOAD PUSH1 0x40 MLOAD SWAP1 DUP2 MSTORE RETURN JUMPDEST CALLVALUE PUSH2 0x38A JUMPI PUSH1 0x20 CALLDATASIZE PUSH1 0x3 NOT ADD SLT PUSH2 0x38A JUMPI PUSH1 0x4 CALLDATALOAD PUSH1 0x10 SLOAD DUP2 LT ISZERO PUSH2 0x38A JUMPI PUSH2 0x1423 PUSH1 0x20 SWAP2 PUSH2 0x4AF3 JUMP JUMPDEST SWAP1 SLOAD PUSH1 0x40 MLOAD PUSH1 0x3 SWAP3 SWAP1 SWAP3 SHL SHR PUSH1 0x1 PUSH1 0x1 PUSH1 0xA0 SHL SUB AND DUP2 MSTORE RETURN JUMPDEST CALLVALUE PUSH2 0x38A JUMPI PUSH1 0x20 CALLDATASIZE PUSH1 0x3 NOT ADD SLT PUSH2 0x38A JUMPI PUSH1 0x1 PUSH1 0x1 PUSH1 0xA0 SHL SUB PUSH2 0x145D PUSH2 0x47B6 JUMP JUMPDEST AND PUSH1 0x80 MLOAD MSTORE PUSH1 0x6 PUSH1 0x20 MSTORE PUSH1 0x20 PUSH1 0x40 PUSH1 0x80 MLOAD KECCAK256 SLOAD PUSH1 0x40 MLOAD SWAP1 DUP2 MSTORE RETURN JUMPDEST CALLVALUE PUSH2 0x38A JUMPI PUSH1 0x20 CALLDATASIZE PUSH1 0x3 NOT ADD SLT PUSH2 0x38A JUMPI PUSH1 0x4 CALLDATALOAD PUSH2 0x149C PUSH1 0x2 PUSH1 0x80 MLOAD SLOAD EQ ISZERO PUSH2 0x511A JUMP JUMPDEST PUSH1 0x2 PUSH1 0x80 MLOAD SSTORE PUSH2 0x14AF PUSH1 0xC SLOAD DUP3 LT PUSH2 0x4F7D JUMP JUMPDEST DUP1 PUSH1 0x80 MLOAD MSTORE PUSH1 0x7 PUSH1 0x20 MSTORE PUSH2 0x14CC PUSH1 0xFF PUSH1 0x40 PUSH1 0x80 MLOAD KECCAK256 SLOAD AND ISZERO PUSH2 0x4FBF JUMP JUMPDEST DUP1 PUSH1 0x80 MLOAD MSTORE PUSH1 0x4 PUSH1 0x20 MSTORE PUSH1 0x40 PUSH1 0x80 MLOAD KECCAK256 SWAP1 PUSH1 0xF DUP3 ADD SWAP2 DUP3 SLOAD PUSH1 0x1 DUP1 PUSH1 0xA0 SHL SUB DUP2 AND SWAP1 DUP2 CALLER SUB PUSH2 0x191C JUMPI PUSH1 0xFF PUSH1 0xA DUP5 ADD SLOAD AND PUSH2 0x18C7 JUMPI PUSH1 0x13 DUP4 ADD DUP1 SLOAD PUSH1 0xFF DUP2 AND PUSH2 0x186A JUMPI PUSH1 0xFF NOT AND PUSH1 0x1 OR SWAP1 SSTORE PUSH1 0xA0 DUP2 SWAP1 SHR PUSH1 0xFF AND PUSH2 0x1574 JUMPI JUMPDEST POP POP POP POP PUSH1 0x1 DUP1 PUSH1 0xA0 SHL SUB SWAP1 SLOAD AND DUP1 PUSH1 0x80 MLOAD MSTORE PUSH1 0xF PUSH1 0x20 MSTORE PUSH1 0x40 PUSH1 0x80 MLOAD KECCAK256 SLOAD PUSH2 0x1553 JUMPI JUMPDEST PUSH1 0x80 MLOAD PUSH1 0x1 DUP2 SSTORE DUP1 RETURN JUMPDEST PUSH1 0x80 MLOAD MSTORE PUSH1 0xF PUSH1 0x20 MSTORE PUSH1 0x40 PUSH1 0x80 MLOAD KECCAK256 PUSH2 0x156C DUP2 SLOAD PUSH2 0x5290 JUMP JUMPDEST SWAP1 SSTORE DUP1 PUSH2 0x1549 JUMP JUMPDEST PUSH1 0xA8 SHR PUSH1 0xFF AND PUSH1 0x2 DUP2 LT ISZERO PUSH2 0x9E7 JUMPI DUP1 PUSH2 0x16BD JUMPI POP POP PUSH2 0x15D0 PUSH2 0x15C7 PUSH1 0xC DUP4 ADD SLOAD PUSH2 0x15C1 PUSH2 0x15A6 PUSH1 0xD DUP7 ADD SLOAD DUP4 PUSH2 0x500B JUMP JUMPDEST SWAP2 PUSH1 0xE PUSH1 0x64 PUSH2 0x15B7 PUSH1 0x3 SLOAD DUP7 PUSH2 0x500B JUMP JUMPDEST DIV SWAP7 ADD SLOAD SWAP1 PUSH2 0x500B JUMP JUMPDEST SWAP1 PUSH2 0x5237 JUMP JUMPDEST SWAP2 PUSH1 0xE SLOAD PUSH2 0x53D7 JUMP JUMPDEST PUSH1 0xE SSTORE DUP1 ISZERO DUP1 ISZERO PUSH2 0x15E9 JUMPI JUMPDEST POP POP POP JUMPDEST DUP2 DUP1 DUP1 DUP1 PUSH2 0x1525 JUMP JUMPDEST DUP2 SELFBALANCE LT PUSH2 0x1672 JUMPI DUP4 SLOAD PUSH1 0x80 MLOAD PUSH1 0x1 PUSH1 0x1 PUSH1 0xA0 SHL SUB SWAP1 SWAP2 AND SWAP2 PUSH2 0x1669 JUMPI JUMPDEST PUSH1 0x80 MLOAD SWAP2 DUP3 SWAP2 DUP3 SWAP2 DUP3 SWAP2 DUP7 SWAP2 SWAP1 CALL ISZERO PUSH2 0xFB8 JUMPI DUP3 SLOAD PUSH1 0x40 DUP1 MLOAD SWAP4 DUP5 MSTORE PUSH1 0x1 PUSH1 0x1 PUSH1 0xA0 SHL SUB SWAP1 SWAP2 AND PUSH1 0x20 DUP5 ADD MSTORE DUP3 ADD MSTORE PUSH0 PUSH1 0x60 DUP3 ADD MSTORE PUSH32 0xFD98FF9D94DD850CF17545108069E8C943C3B61429E4768185344AB344C5AD98 SWAP1 PUSH1 0x80 SWAP1 LOG1 DUP2 DUP1 DUP1 PUSH2 0x15DC JUMP JUMPDEST POP PUSH2 0x8FC PUSH2 0x1606 JUMP JUMPDEST PUSH1 0x40 MLOAD PUSH3 0x461BCD PUSH1 0xE5 SHL DUP2 MSTORE PUSH1 0x20 PUSH1 0x4 DUP3 ADD MSTORE PUSH1 0x30 PUSH1 0x24 DUP3 ADD MSTORE PUSH0 DUP1 MLOAD PUSH1 0x20 PUSH2 0x591F DUP4 CODECOPY DUP2 MLOAD SWAP2 MSTORE PUSH1 0x44 DUP3 ADD MSTORE PUSH16 0x1C88131656081DDA5D1A191C985DD85B PUSH1 0x82 SHL PUSH1 0x64 DUP3 ADD MSTORE PUSH1 0x84 SWAP1 REVERT JUMPDEST SWAP2 SWAP3 SWAP1 SWAP2 PUSH1 0x1 EQ PUSH2 0x16D1 JUMPI JUMPDEST POP POP POP PUSH2 0x15E0 JUMP JUMPDEST PUSH2 0x16FD PUSH1 0x14 PUSH1 0x1 DUP1 PUSH1 0xA0 SHL SUB PUSH1 0x10 DUP7 ADD SLOAD AND SWAP5 ADD SLOAD DUP3 PUSH1 0x80 MLOAD MSTORE PUSH1 0x5 PUSH1 0x20 MSTORE PUSH1 0x40 PUSH1 0x80 MLOAD KECCAK256 SLOAD SWAP1 PUSH2 0x5237 JUMP JUMPDEST SWAP2 DUP3 PUSH2 0x170A JUMPI JUMPDEST POP PUSH2 0x16C9 JUMP JUMPDEST PUSH1 0x40 MLOAD PUSH4 0x70A08231 PUSH1 0xE0 SHL DUP2 MSTORE ADDRESS PUSH1 0x4 DUP3 ADD MSTORE PUSH1 0x20 DUP2 PUSH1 0x24 DUP2 DUP9 GAS STATICCALL DUP1 ISZERO PUSH2 0xFB8 JUMPI DUP5 SWAP2 PUSH1 0x80 MLOAD SWAP2 PUSH2 0x1835 JUMPI JUMPDEST POP LT PUSH2 0x17E8 JUMPI DUP4 EXTCODESIZE ISZERO PUSH2 0x38A JUMPI PUSH1 0x40 MLOAD SWAP1 PUSH4 0x3B06CDDD PUSH1 0xE1 SHL DUP3 MSTORE DUP2 DUP1 PUSH2 0x1766 DUP7 PUSH1 0x80 MLOAD SWAP5 ADDRESS PUSH1 0x4 DUP6 ADD PUSH2 0x549D JUMP JUMPDEST SUB DUP2 PUSH1 0x80 MLOAD DUP9 GAS CALL DUP1 ISZERO PUSH2 0xFB8 JUMPI PUSH2 0x17CF JUMPI JUMPDEST POP DUP4 SLOAD PUSH1 0x40 DUP1 MLOAD SWAP3 DUP4 MSTORE PUSH1 0x1 PUSH1 0x1 PUSH1 0xA0 SHL SUB SWAP2 DUP3 AND PUSH1 0x20 DUP5 ADD MSTORE DUP3 ADD SWAP3 SWAP1 SWAP3 MSTORE SWAP2 AND PUSH1 0x60 DUP3 ADD MSTORE PUSH32 0xFD98FF9D94DD850CF17545108069E8C943C3B61429E4768185344AB344C5AD98 SWAP1 PUSH1 0x80 SWAP1 LOG1 DUP2 DUP1 DUP1 DUP1 PUSH2 0x1704 JUMP JUMPDEST PUSH1 0x80 MLOAD PUSH2 0x17DB SWAP2 PUSH2 0x48BE JUMP JUMPDEST PUSH1 0x80 MLOAD PUSH2 0x38A JUMPI DUP5 PUSH2 0x1779 JUMP JUMPDEST PUSH1 0x40 MLOAD PUSH3 0x461BCD PUSH1 0xE5 SHL DUP2 MSTORE PUSH1 0x20 PUSH1 0x4 DUP3 ADD MSTORE PUSH1 0x32 PUSH1 0x24 DUP3 ADD MSTORE PUSH0 DUP1 MLOAD PUSH1 0x20 PUSH2 0x591F DUP4 CODECOPY DUP2 MLOAD SWAP2 MSTORE PUSH1 0x44 DUP3 ADD MSTORE PUSH18 0x1C881D1BDAD95B881DDA5D1A191C985DD85B PUSH1 0x72 SHL PUSH1 0x64 DUP3 ADD MSTORE PUSH1 0x84 SWAP1 REVERT JUMPDEST SWAP2 POP POP PUSH1 0x20 DUP2 RETURNDATASIZE PUSH1 0x20 GT PUSH2 0x1862 JUMPI JUMPDEST DUP2 PUSH2 0x1851 PUSH1 0x20 SWAP4 DUP4 PUSH2 0x48BE JUMP JUMPDEST DUP2 ADD SUB SLT PUSH2 0x10B2 JUMPI DUP4 SWAP1 MLOAD DUP8 PUSH2 0x1737 JUMP JUMPDEST RETURNDATASIZE SWAP2 POP PUSH2 0x1844 JUMP JUMPDEST PUSH1 0x40 MLOAD PUSH3 0x461BCD PUSH1 0xE5 SHL DUP2 MSTORE PUSH1 0x20 PUSH1 0x4 DUP3 ADD MSTORE PUSH1 0x2F PUSH1 0x24 DUP3 ADD MSTORE PUSH32 0x46756E6473206861766520616C7265616479206265656E207769746864726177 PUSH1 0x44 DUP3 ADD MSTORE PUSH15 0x1B88199BDC881D1A1A5CC81C1BDB1B PUSH1 0x8A SHL PUSH1 0x64 DUP3 ADD MSTORE PUSH1 0x84 SWAP1 REVERT JUMPDEST PUSH1 0x40 MLOAD PUSH3 0x461BCD PUSH1 0xE5 SHL DUP2 MSTORE PUSH1 0x20 PUSH1 0x4 DUP3 ADD MSTORE PUSH1 0x27 PUSH1 0x24 DUP3 ADD MSTORE PUSH32 0x506F6C6C206D75737420626520696E61637469766520746F2077697468647261 PUSH1 0x44 DUP3 ADD MSTORE PUSH7 0x772066756E6473 PUSH1 0xC8 SHL PUSH1 0x64 DUP3 ADD MSTORE PUSH1 0x84 SWAP1 REVERT JUMPDEST PUSH1 0x40 MLOAD PUSH3 0x461BCD PUSH1 0xE5 SHL DUP2 MSTORE PUSH1 0x20 PUSH1 0x4 DUP3 ADD MSTORE PUSH1 0x28 PUSH1 0x24 DUP3 ADD MSTORE PUSH32 0x4F6E6C792074686520706F6C6C2063726561746F722063616E20776974686472 PUSH1 0x44 DUP3 ADD MSTORE PUSH8 0x61772066756E6473 PUSH1 0xC0 SHL PUSH1 0x64 DUP3 ADD MSTORE PUSH1 0x84 SWAP1 REVERT JUMPDEST CALLVALUE PUSH2 0x38A JUMPI PUSH1 0x80 MLOAD CALLDATASIZE PUSH1 0x3 NOT ADD SLT PUSH2 0x38A JUMPI PUSH1 0x80 MLOAD POP PUSH1 0x40 MLOAD PUSH1 0xA SLOAD DUP1 DUP3 MSTORE PUSH1 0x20 DUP3 ADD SWAP1 PUSH1 0xA PUSH1 0x80 MLOAD MSTORE PUSH1 0x20 PUSH1 0x80 MLOAD KECCAK256 SWAP1 PUSH1 0x80 MLOAD JUMPDEST DUP2 DUP2 LT PUSH2 0x19CA JUMPI PUSH2 0x44A DUP6 PUSH2 0x19BE DUP2 DUP8 SUB DUP3 PUSH2 0x48BE JUMP JUMPDEST PUSH1 0x40 MLOAD SWAP2 DUP3 SWAP2 DUP3 PUSH2 0x4774 JUMP JUMPDEST DUP3 SLOAD PUSH1 0x1 PUSH1 0x1 PUSH1 0xA0 SHL SUB AND DUP5 MSTORE PUSH1 0x20 SWAP1 SWAP4 ADD SWAP3 PUSH1 0x1 SWAP3 DUP4 ADD SWAP3 ADD PUSH2 0x19A7 JUMP JUMPDEST CALLVALUE PUSH2 0x38A JUMPI PUSH2 0x19F7 CALLDATASIZE PUSH2 0x48A8 JUMP JUMPDEST SWAP1 PUSH2 0x1A05 PUSH1 0xC SLOAD DUP3 LT PUSH2 0x4F7D JUMP JUMPDEST DUP1 PUSH1 0x80 MLOAD MSTORE PUSH1 0x7 PUSH1 0x20 MSTORE PUSH2 0x1A22 PUSH1 0xFF PUSH1 0x40 PUSH1 0x80 MLOAD KECCAK256 SLOAD AND ISZERO PUSH2 0x4FBF JUMP JUMPDEST PUSH2 0x1A32 PUSH1 0x2 PUSH1 0x80 MLOAD SLOAD EQ ISZERO PUSH2 0x511A JUMP JUMPDEST PUSH1 0x2 PUSH1 0x80 MLOAD SSTORE DUP1 PUSH1 0x80 MLOAD MSTORE PUSH1 0x4 PUSH1 0x20 MSTORE PUSH1 0x40 PUSH1 0x80 MLOAD KECCAK256 SWAP1 PUSH1 0xA DUP3 ADD SWAP3 PUSH2 0x1A5B PUSH1 0xFF DUP6 SLOAD AND PUSH2 0x5396 JUMP JUMPDEST PUSH1 0x9 DUP4 ADD SWAP4 DUP5 SLOAD TIMESTAMP GT PUSH2 0x2123 JUMPI PUSH1 0xF DUP5 ADD SWAP1 DUP2 SLOAD PUSH1 0xFF DUP2 PUSH1 0xA0 SHR AND DUP1 PUSH2 0x2116 JUMPI JUMPDEST PUSH2 0x20C2 JUMPI JUMPDEST PUSH1 0x4 DUP7 ADD SWAP1 PUSH1 0x1 DUP1 PUSH1 0xA0 SHL SUB CALLER AND PUSH0 MSTORE DUP2 PUSH1 0x20 MSTORE PUSH1 0xFF PUSH1 0x40 PUSH0 KECCAK256 SLOAD AND PUSH2 0x2071 JUMPI PUSH2 0x1AB0 PUSH1 0x2 DUP9 ADD SLOAD DUP7 LT PUSH2 0x50D6 JUMP JUMPDEST PUSH1 0x1 PUSH1 0x1 PUSH1 0xA0 SHL SUB AND CALLER DUP2 EQ PUSH2 0x2036 JUMPI PUSH1 0xFF PUSH1 0x10 DUP9 ADD SLOAD PUSH1 0xA0 SHR AND PUSH1 0x6 DUP2 LT ISZERO PUSH2 0x9E7 JUMPI PUSH1 0x1 DUP2 SUB PUSH2 0x1D8A JUMPI POP PUSH1 0x40 MLOAD PUSH4 0x4CF61D21 PUSH1 0xE1 SHL DUP2 MSTORE CALLER PUSH1 0x4 DUP3 ADD MSTORE PUSH1 0x1 PUSH1 0x1 PUSH1 0xA0 SHL SUB SWAP2 SWAP1 SWAP2 AND PUSH1 0x24 DUP3 ADD MSTORE PUSH1 0x20 DUP2 PUSH1 0x44 DUP2 PUSH20 0xF01103E5A9909FC0DBE8166DA7085E0285DADDCA GAS STATICCALL DUP1 ISZERO PUSH2 0xFB8 JUMPI PUSH2 0x1B37 SWAP2 PUSH1 0x80 MLOAD SWAP2 PUSH2 0x1D5B JUMPI JUMPDEST POP PUSH2 0x56AD JUMP JUMPDEST DUP4 PUSH1 0x80 MLOAD MSTORE PUSH1 0x3 DUP7 ADD PUSH1 0x20 MSTORE PUSH1 0x40 PUSH1 0x80 MLOAD KECCAK256 PUSH2 0x1B53 DUP2 SLOAD PUSH2 0x529C JUMP JUMPDEST SWAP1 SSTORE CALLER PUSH0 SWAP1 DUP2 MSTORE PUSH1 0x20 SWAP2 DUP3 MSTORE PUSH1 0x40 DUP1 DUP3 KECCAK256 DUP1 SLOAD PUSH1 0xFF NOT AND PUSH1 0x1 OR SWAP1 SSTORE PUSH1 0x6 DUP9 ADD SWAP1 SWAP3 MSTORE KECCAK256 DUP4 SWAP1 SSTORE PUSH1 0xB DUP6 ADD DUP1 SLOAD SWAP1 SWAP7 SWAP1 PUSH2 0x1B8C SWAP1 PUSH2 0x529C JUMP JUMPDEST DUP8 SSTORE PUSH1 0x7 DUP7 ADD DUP1 SLOAD SWAP1 PUSH1 0x1 PUSH1 0x40 SHL DUP3 LT ISZERO PUSH2 0x7A1 JUMPI DUP2 PUSH2 0x1BB4 SWAP2 PUSH1 0x1 PUSH2 0x1BD2 SWAP5 ADD DUP2 SSTORE PUSH2 0x4B1F JUMP JUMPDEST DUP2 SLOAD PUSH1 0x1 PUSH1 0x1 PUSH1 0xA0 SHL SUB PUSH1 0x3 SWAP3 SWAP1 SWAP3 SHL SWAP2 DUP3 SHL NOT AND CALLER SWAP1 SWAP2 SHL OR SWAP1 SSTORE JUMP JUMPDEST CALLER PUSH1 0x80 MLOAD MSTORE PUSH1 0x8 PUSH1 0x20 MSTORE PUSH1 0x40 PUSH1 0x80 MLOAD KECCAK256 SWAP7 DUP8 SLOAD SWAP7 PUSH1 0x1 PUSH1 0x40 SHL DUP9 LT ISZERO PUSH2 0x7A1 JUMPI PUSH2 0x1C25 DUP9 PUSH32 0xD91ECAFCCF238642DCCD41161308B3EEBE62A12BC5819DAF5164780C221EC95B SWAP11 PUSH1 0x1 PUSH1 0x60 SWAP12 ADD DUP2 SSTORE PUSH2 0x4B1F JUMP JUMPDEST DUP2 SLOAD SWAP1 PUSH1 0x3 SHL SWAP1 DUP10 DUP3 SHL SWAP2 PUSH0 NOT SWAP1 SHL NOT AND OR SWAP1 SSTORE PUSH2 0x1C42 CALLER PUSH2 0x58BF JUMP JUMPDEST DUP5 SLOAD PUSH2 0x1C56 SWAP1 PUSH1 0x1 PUSH1 0x1 PUSH1 0xA0 SHL SUB AND PUSH2 0x58BF JUMP JUMPDEST PUSH1 0x80 MLOAD SWAP3 SLOAD TIMESTAMP GT ISZERO PUSH2 0x1D17 JUMPI POP POP POP PUSH1 0x1 JUMPDEST DUP1 PUSH2 0x1D0C JUMPI JUMPDEST PUSH2 0x1C91 JUMPI JUMPDEST POP POP PUSH1 0x40 MLOAD SWAP2 DUP3 MSTORE PUSH1 0x20 DUP3 ADD MSTORE CALLER PUSH1 0x40 DUP3 ADD MSTORE LOG1 PUSH1 0x80 MLOAD PUSH1 0x1 DUP2 SSTORE DUP1 RETURN JUMPDEST PUSH1 0xFF NOT DUP2 SLOAD AND SWAP1 SSTORE PUSH1 0x1 DUP1 PUSH1 0xA0 SHL SUB SWAP1 SLOAD AND DUP1 PUSH1 0x80 MLOAD MSTORE PUSH1 0xF PUSH1 0x20 MSTORE PUSH1 0x40 PUSH1 0x80 MLOAD KECCAK256 SLOAD PUSH2 0x1CEB JUMPI JUMPDEST POP PUSH32 0x703C67C157A1AFB7D386CE5212EE88BF0A690BCA998060E9595EBDFD747100CE PUSH1 0x20 PUSH1 0x40 MLOAD DUP5 DUP2 MSTORE LOG1 DUP5 DUP1 PUSH2 0x1C73 JUMP JUMPDEST PUSH1 0x80 MLOAD MSTORE PUSH1 0xF PUSH1 0x20 MSTORE PUSH1 0x40 PUSH1 0x80 MLOAD KECCAK256 PUSH2 0x1D04 DUP2 SLOAD PUSH2 0x5290 JUMP JUMPDEST SWAP1 SSTORE DUP5 PUSH2 0x1CB9 JUMP JUMPDEST POP PUSH1 0xFF DUP2 SLOAD AND PUSH2 0x1C6E JUMP JUMPDEST PUSH1 0xFF DUP6 SLOAD PUSH1 0xA0 SHR AND SWAP2 DUP3 PUSH2 0x1D4D JUMPI JUMPDEST DUP3 PUSH2 0x1D3B JUMPI JUMPDEST POP POP ISZERO PUSH2 0x1C68 JUMPI POP PUSH1 0x1 PUSH2 0x1C68 JUMP JUMPDEST PUSH1 0xD SWAP2 SWAP3 POP SLOAD SWAP2 ADD SLOAD GT ISZERO DUP9 DUP1 PUSH2 0x1D2C JUMP JUMPDEST PUSH1 0xD DUP3 ADD SLOAD ISZERO ISZERO SWAP3 POP PUSH2 0x1D26 JUMP JUMPDEST PUSH2 0x1D7D SWAP2 POP PUSH1 0x20 RETURNDATASIZE PUSH1 0x20 GT PUSH2 0x1D83 JUMPI JUMPDEST PUSH2 0x1D75 DUP2 DUP4 PUSH2 0x48BE JUMP JUMPDEST DUP2 ADD SWAP1 PUSH2 0x5695 JUMP JUMPDEST DUP10 PUSH2 0x1B31 JUMP JUMPDEST POP RETURNDATASIZE PUSH2 0x1D6B JUMP JUMPDEST PUSH1 0x2 DUP2 SUB PUSH2 0x1E31 JUMPI POP POP PUSH1 0x11 DUP7 ADD SLOAD PUSH1 0x24 SWAP1 PUSH1 0x1 PUSH1 0x1 PUSH1 0xA0 SHL SUB AND PUSH2 0x1DB0 DUP2 ISZERO ISZERO PUSH2 0x57A9 JUMP JUMPDEST PUSH1 0x20 PUSH1 0x12 DUP10 ADD SLOAD SWAP2 PUSH2 0x1DC3 DUP4 ISZERO ISZERO PUSH2 0x5801 JUMP JUMPDEST PUSH1 0x40 MLOAD PUSH4 0x70A08231 PUSH1 0xE0 SHL DUP2 MSTORE CALLER PUSH1 0x4 DUP3 ADD MSTORE SWAP4 DUP5 SWAP2 DUP3 SWAP1 GAS STATICCALL DUP1 ISZERO PUSH2 0xFB8 JUMPI PUSH1 0x80 MLOAD SWAP1 PUSH2 0x1DFD JUMPI JUMPDEST PUSH2 0x1DF8 SWAP3 POP LT ISZERO PUSH2 0x5863 JUMP JUMPDEST PUSH2 0x1B37 JUMP JUMPDEST POP PUSH1 0x20 DUP3 RETURNDATASIZE PUSH1 0x20 GT PUSH2 0x1E29 JUMPI JUMPDEST DUP2 PUSH2 0x1E17 PUSH1 0x20 SWAP4 DUP4 PUSH2 0x48BE JUMP JUMPDEST DUP2 ADD SUB SLT PUSH2 0x10B2 JUMPI PUSH2 0x1DF8 SWAP2 MLOAD PUSH2 0x1DEC JUMP JUMPDEST RETURNDATASIZE SWAP2 POP PUSH2 0x1E0A JUMP JUMPDEST PUSH1 0x3 DUP2 SUB PUSH2 0x1EC3 JUMPI POP POP PUSH1 0x11 DUP7 ADD SLOAD PUSH1 0x24 SWAP1 PUSH1 0x20 SWAP1 PUSH1 0x1 PUSH1 0x1 PUSH1 0xA0 SHL SUB AND PUSH2 0x1E5A DUP2 ISZERO ISZERO PUSH2 0x5705 JUMP JUMPDEST PUSH1 0x40 MLOAD PUSH4 0x70A08231 PUSH1 0xE0 SHL DUP2 MSTORE CALLER PUSH1 0x4 DUP3 ADD MSTORE SWAP3 DUP4 SWAP2 DUP3 SWAP1 GAS STATICCALL DUP1 ISZERO PUSH2 0xFB8 JUMPI PUSH1 0x80 MLOAD SWAP1 PUSH2 0x1E8F JUMPI JUMPDEST PUSH2 0x1DF8 SWAP2 POP ISZERO ISZERO PUSH2 0x575D JUMP JUMPDEST POP PUSH1 0x20 DUP2 RETURNDATASIZE PUSH1 0x20 GT PUSH2 0x1EBB JUMPI JUMPDEST DUP2 PUSH2 0x1EA9 PUSH1 0x20 SWAP4 DUP4 PUSH2 0x48BE JUMP JUMPDEST DUP2 ADD SUB SLT PUSH2 0x10B2 JUMPI PUSH2 0x1DF8 SWAP1 MLOAD PUSH2 0x1E83 JUMP JUMPDEST RETURNDATASIZE SWAP2 POP PUSH2 0x1E9C JUMP JUMPDEST PUSH1 0x4 DUP2 SUB PUSH2 0x1F41 JUMPI POP PUSH1 0x40 MLOAD PUSH4 0x4CF61D21 PUSH1 0xE1 SHL DUP2 MSTORE CALLER PUSH1 0x4 DUP3 ADD MSTORE PUSH1 0x1 PUSH1 0x1 PUSH1 0xA0 SHL SUB SWAP2 SWAP1 SWAP2 AND PUSH1 0x24 DUP3 ADD MSTORE PUSH1 0x20 DUP2 PUSH1 0x44 DUP2 PUSH20 0xF01103E5A9909FC0DBE8166DA7085E0285DADDCA GAS STATICCALL DUP1 ISZERO PUSH2 0xFB8 JUMPI PUSH2 0x1F25 SWAP2 PUSH1 0x80 MLOAD SWAP2 PUSH2 0x1D5B JUMPI POP PUSH2 0x56AD JUMP JUMPDEST PUSH1 0x11 DUP7 ADD SLOAD PUSH1 0x24 SWAP1 PUSH1 0x1 PUSH1 0x1 PUSH1 0xA0 SHL SUB AND PUSH2 0x1DB0 DUP2 ISZERO ISZERO PUSH2 0x57A9 JUMP JUMPDEST PUSH1 0x5 EQ PUSH2 0x1F4F JUMPI JUMPDEST POP PUSH2 0x1B37 JUMP JUMPDEST PUSH1 0x40 MLOAD PUSH4 0x4CF61D21 PUSH1 0xE1 SHL DUP2 MSTORE CALLER PUSH1 0x4 DUP3 ADD MSTORE PUSH1 0x1 PUSH1 0x1 PUSH1 0xA0 SHL SUB SWAP2 SWAP1 SWAP2 AND PUSH1 0x24 DUP3 ADD MSTORE PUSH1 0x20 DUP2 PUSH1 0x44 DUP2 PUSH20 0xF01103E5A9909FC0DBE8166DA7085E0285DADDCA GAS STATICCALL DUP1 ISZERO PUSH2 0xFB8 JUMPI PUSH2 0x1FA8 SWAP2 PUSH1 0x80 MLOAD SWAP2 PUSH2 0x1D5B JUMPI POP PUSH2 0x56AD JUMP JUMPDEST PUSH1 0x11 DUP7 ADD SLOAD PUSH1 0x24 SWAP1 PUSH1 0x20 SWAP1 PUSH1 0x1 PUSH1 0x1 PUSH1 0xA0 SHL SUB AND PUSH2 0x1FC7 DUP2 ISZERO ISZERO PUSH2 0x5705 JUMP JUMPDEST PUSH1 0x40 MLOAD PUSH4 0x70A08231 PUSH1 0xE0 SHL DUP2 MSTORE CALLER PUSH1 0x4 DUP3 ADD MSTORE SWAP3 DUP4 SWAP2 DUP3 SWAP1 GAS STATICCALL DUP1 ISZERO PUSH2 0xFB8 JUMPI PUSH1 0x80 MLOAD SWAP1 PUSH2 0x2002 JUMPI JUMPDEST PUSH2 0x1FFC SWAP2 POP ISZERO ISZERO PUSH2 0x575D JUMP JUMPDEST DUP8 PUSH2 0x1F49 JUMP JUMPDEST POP PUSH1 0x20 DUP2 RETURNDATASIZE PUSH1 0x20 GT PUSH2 0x202E JUMPI JUMPDEST DUP2 PUSH2 0x201C PUSH1 0x20 SWAP4 DUP4 PUSH2 0x48BE JUMP JUMPDEST DUP2 ADD SUB SLT PUSH2 0x10B2 JUMPI PUSH2 0x1FFC SWAP1 MLOAD PUSH2 0x1FF0 JUMP JUMPDEST RETURNDATASIZE SWAP2 POP PUSH2 0x200F JUMP JUMPDEST PUSH1 0x40 MLOAD PUSH3 0x461BCD PUSH1 0xE5 SHL DUP2 MSTORE PUSH1 0x20 PUSH1 0x4 DUP3 ADD MSTORE PUSH1 0x13 PUSH1 0x24 DUP3 ADD MSTORE PUSH19 0x43726561746F722063616E6E6F7420766F7465 PUSH1 0x68 SHL PUSH1 0x44 DUP3 ADD MSTORE PUSH1 0x64 SWAP1 REVERT JUMPDEST PUSH1 0x40 MLOAD PUSH3 0x461BCD PUSH1 0xE5 SHL DUP2 MSTORE PUSH1 0x20 PUSH1 0x4 DUP3 ADD MSTORE PUSH1 0x23 PUSH1 0x24 DUP3 ADD MSTORE PUSH32 0x596F75206861766520616C726561647920766F74656420696E20746869732070 PUSH1 0x44 DUP3 ADD MSTORE PUSH3 0x1BDB1B PUSH1 0xEA SHL PUSH1 0x64 DUP3 ADD MSTORE PUSH1 0x84 SWAP1 REVERT JUMPDEST PUSH1 0xB DUP7 ADD SLOAD PUSH1 0xD DUP8 ADD SLOAD GT PUSH2 0x1A81 JUMPI PUSH1 0x40 MLOAD PUSH3 0x461BCD PUSH1 0xE5 SHL DUP2 MSTORE PUSH1 0x20 PUSH1 0x4 DUP3 ADD MSTORE PUSH1 0x1F PUSH1 0x24 DUP3 ADD MSTORE PUSH32 0x506F6C6C2068617320656E646564202874617267657420726561636865642900 PUSH1 0x44 DUP3 ADD MSTORE PUSH1 0x64 SWAP1 REVERT JUMPDEST POP PUSH1 0xD DUP7 ADD SLOAD ISZERO ISZERO PUSH2 0x1A7C JUMP JUMPDEST PUSH1 0x40 MLOAD PUSH3 0x461BCD PUSH1 0xE5 SHL DUP2 MSTORE PUSH1 0x20 PUSH1 0x4 DUP3 ADD MSTORE PUSH1 0x15 PUSH1 0x24 DUP3 ADD MSTORE PUSH21 0x506F6C6C2068617320656E646564202874696D6529 PUSH1 0x58 SHL PUSH1 0x44 DUP3 ADD MSTORE PUSH1 0x64 SWAP1 REVERT JUMPDEST CALLVALUE PUSH2 0x38A JUMPI PUSH1 0x20 CALLDATASIZE PUSH1 0x3 NOT ADD SLT PUSH2 0x38A JUMPI PUSH1 0x4 CALLDATALOAD PUSH2 0x2181 PUSH1 0xC SLOAD DUP3 LT PUSH2 0x4F7D JUMP JUMPDEST DUP1 PUSH1 0x80 MLOAD MSTORE PUSH1 0x7 PUSH1 0x20 MSTORE PUSH2 0x219E PUSH1 0xFF PUSH1 0x40 PUSH1 0x80 MLOAD KECCAK256 SLOAD AND ISZERO PUSH2 0x4FBF JUMP JUMPDEST PUSH1 0x80 MLOAD MSTORE PUSH1 0x4 PUSH1 0x20 MSTORE PUSH1 0x60 PUSH1 0x40 PUSH1 0x80 MLOAD KECCAK256 PUSH1 0x9 PUSH1 0xFF PUSH1 0xA DUP4 ADD SLOAD AND SWAP2 ADD SLOAD PUSH1 0x40 MLOAD SWAP2 ISZERO ISZERO DUP3 MSTORE DUP1 TIMESTAMP GT PUSH1 0x20 DUP4 ADD MSTORE PUSH1 0x40 DUP3 ADD MSTORE RETURN JUMPDEST PUSH2 0x140 CALLDATASIZE PUSH1 0x3 NOT ADD SLT PUSH2 0x38A JUMPI PUSH1 0x4 CALLDATALOAD PUSH1 0x1 PUSH1 0x1 PUSH1 0x40 SHL SUB DUP2 GT PUSH2 0x38A JUMPI PUSH2 0x21FF SWAP1 CALLDATASIZE SWAP1 PUSH1 0x4 ADD PUSH2 0x4A03 JUMP JUMPDEST PUSH1 0x24 CALLDATALOAD PUSH1 0x1 PUSH1 0x1 PUSH1 0x40 SHL SUB DUP2 GT PUSH2 0x38A JUMPI PUSH2 0x221E SWAP1 CALLDATASIZE SWAP1 PUSH1 0x4 ADD PUSH2 0x4A03 JUMP JUMPDEST PUSH1 0x44 CALLDATALOAD PUSH1 0x1 PUSH1 0x1 PUSH1 0x40 SHL SUB DUP2 GT PUSH2 0x38A JUMPI PUSH2 0x223D SWAP1 CALLDATASIZE SWAP1 PUSH1 0x4 ADD PUSH2 0x4A49 JUMP JUMPDEST PUSH2 0x2245 PUSH2 0x4AC7 JUMP JUMPDEST SWAP1 PUSH2 0x224E PUSH2 0x4ADD JUMP JUMPDEST PUSH1 0xC4 CALLDATALOAD PUSH1 0x1 PUSH1 0x1 PUSH1 0xA0 SHL SUB DUP2 AND SWAP2 SWAP1 DUP3 SWAP1 SUB PUSH2 0x38A JUMPI PUSH1 0xE4 CALLDATALOAD SWAP3 PUSH1 0x6 DUP5 LT ISZERO PUSH2 0x38A JUMPI PUSH1 0x1 PUSH1 0x1 PUSH1 0x80 SHL SUB PUSH2 0x2281 PUSH2 0x47E2 JUMP JUMPDEST SWAP6 PUSH2 0x2292 PUSH1 0x2 PUSH1 0x80 MLOAD SLOAD EQ ISZERO PUSH2 0x511A JUMP JUMPDEST PUSH1 0x2 PUSH1 0x80 MLOAD SSTORE PUSH2 0x22A5 PUSH1 0x1 DUP5 MLOAD GT PUSH2 0x54D3 JUMP JUMPDEST AND SWAP6 DUP7 ISZERO SWAP3 PUSH2 0x22B4 DUP5 ISZERO PUSH2 0x552D JUMP JUMPDEST DUP5 ISZERO PUSH2 0x298E JUMPI PUSH1 0x1 PUSH1 0x1 PUSH1 0x80 SHL SUB AND SWAP3 DUP4 ISZERO PUSH2 0x2933 JUMPI PUSH1 0xA4 CALLDATALOAD ISZERO PUSH2 0x28D3 JUMPI PUSH2 0xE10 DUP9 MUL SWAP8 DUP9 DIV PUSH2 0xE10 EQ OR ISZERO PUSH2 0x372 JUMPI TIMESTAMP PUSH2 0x22EF DUP9 TIMESTAMP PUSH2 0x53D7 JUMP JUMPDEST GT ISZERO PUSH2 0x288E JUMPI PUSH1 0x80 MLOAD CALLER PUSH1 0x80 MLOAD MSTORE PUSH1 0xF PUSH1 0x20 MSTORE PUSH1 0x40 PUSH1 0x80 MLOAD KECCAK256 SLOAD PUSH2 0x2885 JUMPI JUMPDEST PUSH1 0x4 DUP7 EQ DUP1 ISZERO PUSH2 0x287B JUMPI JUMPDEST PUSH2 0x286A JUMPI JUMPDEST CALLVALUE SUB PUSH2 0x282C JUMPI PUSH2 0x2330 DUP4 PUSH1 0xA4 CALLDATALOAD PUSH2 0x500B JUMP JUMPDEST SWAP8 PUSH1 0x64 PUSH2 0x233F PUSH1 0x3 SLOAD DUP12 PUSH2 0x500B JUMP JUMPDEST DIV PUSH2 0x234A DUP2 DUP12 PUSH2 0x53D7 JUMP JUMPDEST PUSH1 0x40 MLOAD PUSH4 0x65AEAA95 PUSH1 0xE0 SHL DUP2 MSTORE ADDRESS PUSH1 0x4 DUP3 ADD MSTORE CALLER PUSH1 0x24 DUP3 ADD MSTORE PUSH1 0x20 DUP2 PUSH1 0x44 DUP2 DUP12 GAS STATICCALL DUP1 ISZERO PUSH2 0xFB8 JUMPI DUP3 SWAP2 PUSH1 0x80 MLOAD SWAP2 PUSH2 0x27F7 JUMPI JUMPDEST POP LT PUSH2 0x278C JUMPI PUSH1 0x40 MLOAD PUSH4 0x70A08231 PUSH1 0xE0 SHL DUP2 MSTORE CALLER PUSH1 0x4 DUP3 ADD MSTORE PUSH1 0x20 DUP2 PUSH1 0x24 DUP2 DUP12 GAS STATICCALL DUP1 ISZERO PUSH2 0xFB8 JUMPI DUP3 SWAP2 PUSH1 0x80 MLOAD SWAP2 PUSH2 0x2757 JUMPI JUMPDEST POP LT PUSH2 0x26EC JUMPI DUP7 EXTCODESIZE ISZERO PUSH2 0x38A JUMPI PUSH1 0x40 MLOAD PUSH4 0x3B06CDDD PUSH1 0xE1 SHL DUP2 MSTORE CALLER PUSH1 0x4 DUP3 ADD MSTORE ADDRESS PUSH1 0x24 DUP3 ADD MSTORE PUSH1 0x44 DUP2 ADD SWAP2 SWAP1 SWAP2 MSTORE PUSH1 0x1 PUSH1 0x64 DUP3 ADD MSTORE PUSH1 0xA0 PUSH1 0x84 DUP3 ADD MSTORE PUSH1 0x80 DUP1 MLOAD PUSH1 0xA4 DUP4 ADD MSTORE MLOAD DUP2 PUSH1 0xC4 DUP2 DUP4 DUP12 GAS CALL DUP1 ISZERO PUSH2 0xFB8 JUMPI PUSH2 0x26D3 JUMPI JUMPDEST POP DUP6 PUSH1 0x80 MLOAD MSTORE PUSH1 0x6 PUSH1 0x20 MSTORE PUSH2 0x2425 PUSH1 0x40 PUSH1 0x80 MLOAD KECCAK256 SWAP2 DUP3 SLOAD PUSH2 0x53D7 JUMP JUMPDEST SWAP1 SSTORE PUSH1 0xC SLOAD SWAP9 DUP10 PUSH1 0x80 MLOAD MSTORE PUSH1 0x4 PUSH1 0x20 MSTORE PUSH1 0x40 PUSH1 0x80 MLOAD KECCAK256 PUSH2 0x2445 DUP4 DUP3 PUSH2 0x5579 JUMP JUMPDEST PUSH2 0x2452 DUP5 PUSH1 0x1 DUP4 ADD PUSH2 0x5579 JUMP JUMPDEST DUP5 MLOAD PUSH1 0x2 DUP3 ADD PUSH1 0x1 PUSH1 0x40 SHL DUP3 GT PUSH2 0x7A1 JUMPI DUP1 SLOAD DUP3 DUP3 SSTORE DUP1 DUP4 LT PUSH2 0x264D JUMPI JUMPDEST POP PUSH1 0x20 DUP8 ADD SWAP1 PUSH1 0x80 MLOAD MSTORE PUSH1 0x20 PUSH1 0x80 MLOAD KECCAK256 PUSH1 0x80 MLOAD SWAP2 JUMPDEST DUP4 DUP4 LT PUSH2 0x2630 JUMPI POP POP POP POP SWAP4 PUSH2 0x25D9 PUSH32 0x9398FCEFD4332528A93849BF2EB1FC24D001B3CE59CFFE028340FD4B0321FCDD SWAP12 SWAP10 SWAP8 SWAP5 PUSH2 0x25CB PUSH2 0x260A SWAP9 SWAP6 PUSH2 0x25E7 SWAP6 PUSH1 0x14 PUSH1 0x20 SWAP16 SWAP14 SWAP11 PUSH2 0x24E0 DUP16 TIMESTAMP PUSH1 0x8 DUP5 ADD SSTORE PUSH1 0x80 MLOAD POP TIMESTAMP PUSH2 0x53D7 JUMP JUMPDEST PUSH1 0x9 DUP3 ADD SSTORE PUSH1 0xA DUP2 ADD DUP1 SLOAD PUSH1 0xFF NOT AND PUSH1 0x1 OR SWAP1 SSTORE PUSH1 0xF DUP2 ADD DUP1 SLOAD PUSH1 0xD DUP4 ADD DUP13 SWAP1 SSTORE PUSH1 0xFF PUSH1 0xA8 SHL NOT PUSH1 0xFF PUSH1 0xA0 SHL NOT CALLER AND PUSH1 0x1 PUSH1 0x1 PUSH1 0xA8 SHL SUB NOT SWAP1 SWAP3 AND SWAP2 SWAP1 SWAP2 OR PUSH1 0x1 PUSH1 0xA0 SHL OR AND PUSH1 0x1 PUSH1 0xA8 SHL OR SWAP1 SSTORE PUSH1 0x10 DUP2 ADD DUP1 SLOAD PUSH1 0x1 PUSH1 0x1 PUSH1 0xA0 SHL SUB NOT AND DUP13 OR DUP2 SSTORE PUSH1 0xA4 CALLDATALOAD PUSH1 0xC DUP4 ADD SSTORE PUSH2 0x2555 SWAP1 DUP14 SWAP1 PUSH2 0x5671 JUMP JUMPDEST DUP14 PUSH1 0x11 DUP3 ADD SWAP1 PUSH1 0x1 DUP1 PUSH1 0xA0 SHL SUB AND PUSH12 0xFFFFFFFFFFFFFFFFFFFFFFFF PUSH1 0xA0 SHL DUP3 SLOAD AND OR SWAP1 SSTORE PUSH2 0x124 CALLDATALOAD PUSH1 0x12 DUP3 ADD SSTORE ADD SSTORE CALLER PUSH1 0x80 MLOAD MSTORE PUSH1 0xF DUP15 MSTORE PUSH1 0x40 PUSH1 0x80 MLOAD KECCAK256 PUSH2 0x259D DUP2 SLOAD PUSH2 0x529C JUMP JUMPDEST SWAP1 SSTORE PUSH2 0x25AA PUSH1 0xC SLOAD PUSH2 0x529C JUMP JUMPDEST PUSH1 0xC SSTORE PUSH1 0x80 MLOAD POP PUSH2 0x160 PUSH1 0x40 MLOAD SWAP15 DUP16 SWAP15 DUP16 SWAP1 DUP2 MSTORE ADD MSTORE PUSH2 0x160 DUP14 ADD SWAP1 PUSH2 0x482C JUMP JUMPDEST SWAP1 DUP12 DUP3 SUB PUSH1 0x40 DUP14 ADD MSTORE PUSH2 0x482C JUMP JUMPDEST SWAP1 DUP10 DUP3 SUB PUSH1 0x60 DUP12 ADD MSTORE PUSH2 0x4850 JUMP JUMPDEST SWAP6 PUSH1 0x80 DUP9 ADD MSTORE PUSH1 0xA4 CALLDATALOAD PUSH1 0xA0 DUP9 ADD MSTORE PUSH1 0xC0 DUP8 ADD MSTORE PUSH1 0xE0 DUP7 ADD MSTORE PUSH2 0x100 DUP6 ADD SWAP1 PUSH2 0x4903 JUMP JUMPDEST PUSH1 0x1 PUSH1 0x1 PUSH1 0xA0 SHL SUB AND PUSH2 0x120 DUP4 ADD MSTORE PUSH2 0x124 CALLDATALOAD PUSH2 0x140 DUP4 ADD MSTORE SUB SWAP1 LOG1 PUSH1 0x80 MLOAD PUSH1 0x1 DUP2 SSTORE DUP1 RETURN JUMPDEST PUSH1 0x1 PUSH1 0x20 DUP3 PUSH2 0x2641 DUP4 SWAP5 MLOAD DUP7 PUSH2 0x5579 JUMP JUMPDEST ADD SWAP3 ADD SWAP3 ADD SWAP2 SWAP1 PUSH2 0x2485 JUMP JUMPDEST DUP2 PUSH1 0x80 MLOAD MSTORE PUSH1 0x20 PUSH1 0x80 MLOAD KECCAK256 SWAP1 DUP4 DUP3 ADD JUMPDEST DUP2 DUP4 ADD DUP2 LT PUSH2 0x266D JUMPI POP POP PUSH2 0x2470 JUMP JUMPDEST DUP1 PUSH2 0x267A PUSH1 0x1 SWAP3 SLOAD PUSH2 0x4910 JUMP JUMPDEST DUP1 PUSH2 0x2687 JUMPI JUMPDEST POP ADD PUSH2 0x265D JUMP JUMPDEST PUSH1 0x1F DUP2 GT DUP4 EQ PUSH2 0x269E JUMPI POP PUSH1 0x80 MLOAD DUP2 SSTORE JUMPDEST PUSH0 PUSH2 0x2680 JUMP JUMPDEST PUSH2 0x26BE SWAP1 DUP3 PUSH1 0x80 MLOAD MSTORE DUP4 PUSH1 0x1F PUSH1 0x20 PUSH1 0x80 MLOAD KECCAK256 SWAP3 ADD PUSH1 0x5 SHR DUP3 ADD SWAP2 ADD PUSH2 0x501E JUMP JUMPDEST PUSH1 0x80 DUP1 MLOAD DUP3 SWAP1 MSTORE MLOAD PUSH1 0x20 DUP2 KECCAK256 DUP2 DUP4 SSTORE SSTORE PUSH2 0x2698 JUMP JUMPDEST PUSH1 0x80 MLOAD PUSH2 0x26DF SWAP2 PUSH2 0x48BE JUMP JUMPDEST PUSH1 0x80 MLOAD PUSH2 0x38A JUMPI DUP11 PUSH2 0x2409 JUMP JUMPDEST PUSH1 0x40 MLOAD PUSH3 0x461BCD PUSH1 0xE5 SHL DUP2 MSTORE PUSH1 0x20 PUSH1 0x4 DUP3 ADD MSTORE PUSH1 0x3B PUSH1 0x24 DUP3 ADD MSTORE PUSH32 0x496E73756666696369656E742062616C616E636520666F7220746F74616C2061 PUSH1 0x44 DUP3 ADD MSTORE PUSH32 0x6D6F756E742028726577617264202B20636F6D6D697373696F6E290000000000 PUSH1 0x64 DUP3 ADD MSTORE PUSH1 0x84 SWAP1 REVERT JUMPDEST SWAP2 POP POP PUSH1 0x20 DUP2 RETURNDATASIZE PUSH1 0x20 GT PUSH2 0x2784 JUMPI JUMPDEST DUP2 PUSH2 0x2773 PUSH1 0x20 SWAP4 DUP4 PUSH2 0x48BE JUMP JUMPDEST DUP2 ADD SUB SLT PUSH2 0x10B2 JUMPI DUP2 SWAP1 MLOAD DUP14 PUSH2 0x23B0 JUMP JUMPDEST RETURNDATASIZE SWAP2 POP PUSH2 0x2766 JUMP JUMPDEST PUSH1 0x40 MLOAD PUSH3 0x461BCD PUSH1 0xE5 SHL DUP2 MSTORE PUSH1 0x20 PUSH1 0x4 DUP3 ADD MSTORE PUSH1 0x3E PUSH1 0x24 DUP3 ADD MSTORE PUSH32 0x436F6E7472616374206E6F7420617574686F72697A656420666F7220746F7461 PUSH1 0x44 DUP3 ADD MSTORE PUSH32 0x6C20616D6F756E742028726577617264202B20636F6D6D697373696F6E290000 PUSH1 0x64 DUP3 ADD MSTORE PUSH1 0x84 SWAP1 REVERT JUMPDEST SWAP2 POP POP PUSH1 0x20 DUP2 RETURNDATASIZE PUSH1 0x20 GT PUSH2 0x2824 JUMPI JUMPDEST DUP2 PUSH2 0x2813 PUSH1 0x20 SWAP4 DUP4 PUSH2 0x48BE JUMP JUMPDEST DUP2 ADD SUB SLT PUSH2 0x10B2 JUMPI DUP2 SWAP1 MLOAD DUP14 PUSH2 0x237D JUMP JUMPDEST RETURNDATASIZE SWAP2 POP PUSH2 0x2806 JUMP JUMPDEST PUSH1 0x40 MLOAD PUSH3 0x461BCD PUSH1 0xE5 SHL DUP2 MSTORE PUSH1 0x20 PUSH1 0x4 DUP3 ADD MSTORE PUSH1 0x16 PUSH1 0x24 DUP3 ADD MSTORE PUSH22 0x125B98DBDC9C9958DD0813165608199959481CD95B9D PUSH1 0x52 SHL PUSH1 0x44 DUP3 ADD MSTORE PUSH1 0x64 SWAP1 REVERT JUMPDEST PUSH1 0x2 SLOAD PUSH2 0x2876 SWAP2 PUSH2 0x53D7 JUMP JUMPDEST PUSH2 0x231E JUMP JUMPDEST POP PUSH1 0x5 DUP7 EQ PUSH2 0x2319 JUMP JUMPDEST POP PUSH1 0x1 SLOAD PUSH2 0x230E JUMP JUMPDEST PUSH1 0x40 MLOAD PUSH3 0x461BCD PUSH1 0xE5 SHL DUP2 MSTORE PUSH1 0x20 PUSH1 0x4 DUP3 ADD MSTORE PUSH1 0x18 PUSH1 0x24 DUP3 ADD MSTORE PUSH32 0x4475726174696F6E20636175736573206F766572666C6F770000000000000000 PUSH1 0x44 DUP3 ADD MSTORE PUSH1 0x64 SWAP1 REVERT JUMPDEST PUSH1 0x40 MLOAD PUSH3 0x461BCD PUSH1 0xE5 SHL DUP2 MSTORE PUSH1 0x20 PUSH1 0x4 DUP3 ADD MSTORE PUSH1 0x32 PUSH1 0x24 DUP3 ADD MSTORE PUSH32 0x5265776172642070657220766F7465206D75737420626520706F736974697665 PUSH1 0x44 DUP3 ADD MSTORE PUSH18 0x20666F7220746F6B656E2072657761726473 PUSH1 0x70 SHL PUSH1 0x64 DUP3 ADD MSTORE PUSH1 0x84 SWAP1 REVERT JUMPDEST PUSH1 0x40 MLOAD PUSH3 0x461BCD PUSH1 0xE5 SHL DUP2 MSTORE PUSH1 0x20 PUSH1 0x4 DUP3 ADD MSTORE PUSH1 0x2D PUSH1 0x24 DUP3 ADD MSTORE PUSH32 0x54617267657420766F74657220636F756E7420726571756972656420666F7220 PUSH1 0x44 DUP3 ADD MSTORE PUSH13 0x746F6B656E2072657761726473 PUSH1 0x98 SHL PUSH1 0x64 DUP3 ADD MSTORE PUSH1 0x84 SWAP1 REVERT JUMPDEST PUSH1 0x40 MLOAD PUSH3 0x461BCD PUSH1 0xE5 SHL DUP2 MSTORE PUSH1 0x20 PUSH1 0x4 DUP3 ADD MSTORE PUSH1 0x23 PUSH1 0x24 DUP3 ADD MSTORE PUSH32 0x52657761726420746F6B656E20616464726573732063616E6E6F74206265207A PUSH1 0x44 DUP3 ADD MSTORE PUSH3 0x65726F PUSH1 0xE8 SHL PUSH1 0x64 DUP3 ADD MSTORE PUSH1 0x84 SWAP1 REVERT JUMPDEST CALLVALUE PUSH2 0x10B2 JUMPI PUSH1 0x20 CALLDATASIZE PUSH1 0x3 NOT ADD SLT PUSH2 0x10B2 JUMPI PUSH1 0x4 CALLDATALOAD PUSH2 0x2A01 PUSH1 0x2 PUSH0 SLOAD EQ ISZERO PUSH2 0x511A JUMP JUMPDEST PUSH1 0x2 PUSH0 SSTORE PUSH2 0x2A12 PUSH1 0xC SLOAD DUP3 LT PUSH2 0x4F7D JUMP JUMPDEST DUP1 PUSH0 MSTORE PUSH1 0x7 PUSH1 0x20 MSTORE PUSH2 0x2A2B PUSH1 0xFF PUSH1 0x40 PUSH0 KECCAK256 SLOAD AND ISZERO PUSH2 0x4FBF JUMP JUMPDEST DUP1 PUSH0 MSTORE PUSH1 0x4 PUSH1 0x20 MSTORE PUSH1 0x40 PUSH0 KECCAK256 SWAP1 PUSH1 0xF DUP3 ADD PUSH1 0xFF DUP2 SLOAD PUSH1 0xA0 SHR AND ISZERO PUSH2 0x2ED2 JUMPI CALLER PUSH0 SWAP1 DUP2 MSTORE PUSH1 0x4 DUP5 ADD PUSH1 0x20 MSTORE PUSH1 0x40 SWAP1 KECCAK256 SLOAD PUSH1 0xFF AND ISZERO PUSH2 0x2E8D JUMPI PUSH1 0x5 DUP4 ADD SWAP1 PUSH1 0x1 DUP1 PUSH1 0xA0 SHL SUB CALLER AND PUSH0 MSTORE DUP2 PUSH1 0x20 MSTORE PUSH1 0xFF PUSH1 0x40 PUSH0 KECCAK256 SLOAD AND PUSH2 0x2E3C JUMPI PUSH1 0xFF PUSH1 0xA DUP6 ADD SLOAD AND ISZERO PUSH1 0xD DUP6 ADD SLOAD DUP1 ISZERO ISZERO SWAP1 DUP2 PUSH2 0x2E2D JUMPI JUMPDEST POP DUP2 ISZERO PUSH2 0x2E25 JUMPI JUMPDEST POP ISZERO PUSH2 0x2DCD JUMPI PUSH1 0xFF SWAP2 PUSH2 0x2AB4 CALLER PUSH2 0x58BF JUMP JUMPDEST PUSH1 0x1 DUP1 PUSH1 0xA0 SHL SUB CALLER AND PUSH0 MSTORE PUSH1 0x20 MSTORE PUSH1 0x40 PUSH0 KECCAK256 PUSH1 0x1 DUP4 NOT DUP3 SLOAD AND OR SWAP1 SSTORE PUSH1 0xE DUP5 ADD PUSH2 0x2ADE DUP2 SLOAD PUSH2 0x529C JUMP JUMPDEST SWAP1 SSTORE SLOAD PUSH1 0xA8 SHR AND PUSH1 0x2 DUP2 LT ISZERO PUSH2 0x2DB9 JUMPI DUP1 PUSH2 0x2BB4 JUMPI POP SWAP1 PUSH1 0xC ADD SLOAD DUP1 SELFBALANCE LT PUSH2 0x2B6D JUMPI PUSH1 0x80 MLOAD DUP2 ISZERO PUSH2 0x2B64 JUMPI JUMPDEST PUSH1 0x80 MLOAD SWAP1 DUP2 SWAP1 DUP2 SWAP1 DUP2 SWAP1 DUP6 SWAP1 CALLER SWAP1 CALL ISZERO PUSH2 0xFB8 JUMPI PUSH1 0x40 DUP1 MLOAD SWAP3 DUP4 MSTORE CALLER PUSH1 0x20 DUP5 ADD MSTORE DUP3 ADD MSTORE PUSH0 PUSH1 0x60 DUP3 ADD MSTORE PUSH32 0x42C422B3D1B2DD27B20890A92C61D761F550E54F2983BFEE95C55102EA8234A8 SWAP1 PUSH1 0x80 SWAP1 LOG1 PUSH1 0x80 MLOAD PUSH1 0x1 DUP2 SSTORE DUP1 RETURN JUMPDEST POP PUSH2 0x8FC PUSH2 0x2B0A JUMP JUMPDEST PUSH1 0x40 MLOAD PUSH3 0x461BCD PUSH1 0xE5 SHL DUP2 MSTORE PUSH1 0x20 PUSH1 0x4 DUP3 ADD MSTORE PUSH1 0x2C PUSH1 0x24 DUP3 ADD MSTORE PUSH0 DUP1 MLOAD PUSH1 0x20 PUSH2 0x591F DUP4 CODECOPY DUP2 MLOAD SWAP2 MSTORE PUSH1 0x44 DUP3 ADD MSTORE PUSH12 0x1C88131656081C995DD85C99 PUSH1 0xA2 SHL PUSH1 0x64 DUP3 ADD MSTORE PUSH1 0x84 SWAP1 REVERT JUMPDEST PUSH1 0x1 EQ PUSH2 0x2BC3 JUMPI JUMPDEST POP POP PUSH2 0x1549 JUMP JUMPDEST PUSH1 0xC DUP3 ADD SLOAD SWAP1 PUSH1 0x1 DUP1 PUSH1 0xA0 SHL SUB PUSH1 0x10 DUP5 ADD SLOAD AND SWAP3 PUSH1 0x40 MLOAD PUSH4 0x70A08231 PUSH1 0xE0 SHL DUP2 MSTORE ADDRESS PUSH1 0x4 DUP3 ADD MSTORE PUSH1 0x20 DUP2 PUSH1 0x24 DUP2 DUP9 GAS STATICCALL DUP1 ISZERO PUSH2 0x2CE1 JUMPI DUP5 SWAP2 PUSH0 SWAP2 PUSH2 0x2D84 JUMPI JUMPDEST POP LT PUSH2 0x2D3B JUMPI DUP2 PUSH0 MSTORE PUSH1 0x5 PUSH1 0x20 MSTORE PUSH1 0x14 PUSH2 0x2C20 DUP5 PUSH1 0x40 PUSH0 KECCAK256 SLOAD PUSH2 0x53D7 JUMP JUMPDEST SWAP2 ADD SLOAD DUP2 GT PUSH2 0x2CEC JUMPI DUP2 PUSH0 MSTORE PUSH1 0x5 PUSH1 0x20 MSTORE PUSH1 0x40 PUSH0 KECCAK256 SSTORE DUP3 EXTCODESIZE ISZERO PUSH2 0x10B2 JUMPI PUSH1 0x40 MLOAD PUSH4 0x3B06CDDD PUSH1 0xE1 SHL DUP2 MSTORE SWAP3 PUSH0 DUP5 DUP1 PUSH2 0x2C5D DUP7 CALLER ADDRESS PUSH1 0x4 DUP6 ADD PUSH2 0x549D JUMP JUMPDEST SUB DUP2 DUP4 DUP6 GAS CALL SWAP1 DUP2 ISZERO PUSH2 0x2CE1 JUMPI PUSH32 0x42C422B3D1B2DD27B20890A92C61D761F550E54F2983BFEE95C55102EA8234A8 SWAP5 PUSH2 0x2CC3 SWAP3 PUSH2 0x2CCD JUMPI JUMPDEST POP PUSH1 0x40 DUP1 MLOAD SWAP4 DUP5 MSTORE CALLER PUSH1 0x20 DUP6 ADD MSTORE DUP4 ADD SWAP4 SWAP1 SWAP4 MSTORE PUSH1 0x1 PUSH1 0x1 PUSH1 0xA0 SHL SUB SWAP1 SWAP3 AND PUSH1 0x60 DUP3 ADD MSTORE SWAP1 DUP2 SWAP1 PUSH1 0x80 DUP3 ADD SWAP1 JUMP JUMPDEST SUB SWAP1 LOG1 DUP1 DUP1 PUSH2 0x2BBC JUMP JUMPDEST PUSH0 PUSH2 0x2CD7 SWAP2 PUSH2 0x48BE JUMP JUMPDEST PUSH0 PUSH1 0x80 MSTORE DUP6 PUSH2 0x2C95 JUMP JUMPDEST PUSH1 0x40 MLOAD RETURNDATASIZE PUSH0 DUP3 RETURNDATACOPY RETURNDATASIZE SWAP1 REVERT JUMPDEST PUSH1 0x40 MLOAD PUSH3 0x461BCD PUSH1 0xE5 SHL DUP2 MSTORE PUSH1 0x20 PUSH1 0x4 DUP3 ADD MSTORE PUSH1 0x21 PUSH1 0x24 DUP3 ADD MSTORE PUSH32 0x436C61696D2065786365656473206C6F636B656420746F6B656E20616D6F756E PUSH1 0x44 DUP3 ADD MSTORE PUSH1 0x1D PUSH1 0xFA SHL PUSH1 0x64 DUP3 ADD MSTORE PUSH1 0x84 SWAP1 REVERT JUMPDEST PUSH1 0x40 MLOAD PUSH3 0x461BCD PUSH1 0xE5 SHL DUP2 MSTORE PUSH1 0x20 PUSH1 0x4 DUP3 ADD MSTORE PUSH1 0x2E PUSH1 0x24 DUP3 ADD MSTORE PUSH0 DUP1 MLOAD PUSH1 0x20 PUSH2 0x591F DUP4 CODECOPY DUP2 MLOAD SWAP2 MSTORE PUSH1 0x44 DUP3 ADD MSTORE PUSH14 0x1C881D1BDAD95B881C995DD85C99 PUSH1 0x92 SHL PUSH1 0x64 DUP3 ADD MSTORE PUSH1 0x84 SWAP1 REVERT JUMPDEST SWAP2 POP POP PUSH1 0x20 DUP2 RETURNDATASIZE PUSH1 0x20 GT PUSH2 0x2DB1 JUMPI JUMPDEST DUP2 PUSH2 0x2DA0 PUSH1 0x20 SWAP4 DUP4 PUSH2 0x48BE JUMP JUMPDEST DUP2 ADD SUB SLT PUSH2 0x10B2 JUMPI DUP4 SWAP1 MLOAD DUP7 PUSH2 0x2C02 JUMP JUMPDEST RETURNDATASIZE SWAP2 POP PUSH2 0x2D93 JUMP JUMPDEST PUSH4 0x4E487B71 PUSH1 0xE0 SHL PUSH0 MSTORE PUSH1 0x21 PUSH1 0x4 MSTORE PUSH1 0x24 PUSH0 REVERT JUMPDEST PUSH1 0x40 MLOAD PUSH3 0x461BCD PUSH1 0xE5 SHL DUP2 MSTORE PUSH1 0x20 PUSH1 0x4 DUP3 ADD MSTORE PUSH1 0x2A PUSH1 0x24 DUP3 ADD MSTORE PUSH32 0x506F6C6C206973207374696C6C20616374697665206F7220746172676574206E PUSH1 0x44 DUP3 ADD MSTORE PUSH10 0x1BDD081C995858DA1959 PUSH1 0xB2 SHL PUSH1 0x64 DUP3 ADD MSTORE PUSH1 0x84 SWAP1 REVERT JUMPDEST SWAP1 POP DUP6 PUSH2 0x2AA2 JUMP JUMPDEST SWAP1 POP PUSH1 0xB DUP7 ADD SLOAD LT ISZERO DUP7 PUSH2 0x2A9A JUMP JUMPDEST PUSH1 0x40 MLOAD PUSH3 0x461BCD PUSH1 0xE5 SHL DUP2 MSTORE PUSH1 0x20 PUSH1 0x4 DUP3 ADD MSTORE PUSH1 0x24 DUP1 DUP3 ADD MSTORE PUSH32 0x596F75206861766520616C726561647920636C61696D656420796F7572207265 PUSH1 0x44 DUP3 ADD MSTORE PUSH4 0x1DD85C99 PUSH1 0xE2 SHL PUSH1 0x64 DUP3 ADD MSTORE PUSH1 0x84 SWAP1 REVERT JUMPDEST PUSH1 0x40 MLOAD PUSH3 0x461BCD PUSH1 0xE5 SHL DUP2 MSTORE PUSH1 0x20 PUSH1 0x4 DUP3 ADD MSTORE PUSH1 0x1F PUSH1 0x24 DUP3 ADD MSTORE PUSH32 0x596F752068617665206E6F7420766F74656420696E207468697320706F6C6C00 PUSH1 0x44 DUP3 ADD MSTORE PUSH1 0x64 SWAP1 REVERT JUMPDEST PUSH1 0x40 MLOAD PUSH3 0x461BCD PUSH1 0xE5 SHL DUP2 MSTORE PUSH1 0x20 PUSH1 0x4 DUP3 ADD MSTORE PUSH1 0x25 PUSH1 0x24 DUP3 ADD MSTORE PUSH32 0x5265776172647320617265206E6F7420656E61626C656420666F722074686973 PUSH1 0x44 DUP3 ADD MSTORE PUSH5 0x81C1BDB1B PUSH1 0xDA SHL PUSH1 0x64 DUP3 ADD MSTORE PUSH1 0x84 SWAP1 REVERT JUMPDEST CALLVALUE PUSH2 0x10B2 JUMPI PUSH1 0x20 CALLDATASIZE PUSH1 0x3 NOT ADD SLT PUSH2 0x10B2 JUMPI PUSH1 0x4 CALLDATALOAD PUSH0 MSTORE PUSH1 0x4 PUSH1 0x20 MSTORE PUSH1 0x40 PUSH0 KECCAK256 PUSH2 0x2F4D DUP2 PUSH2 0x4948 JUMP JUMPDEST SWAP1 PUSH2 0x2F5A PUSH1 0x1 DUP3 ADD PUSH2 0x4948 JUMP JUMPDEST SWAP1 PUSH1 0x8 DUP2 ADD SLOAD SWAP1 PUSH1 0x9 DUP2 ADD SLOAD SWAP1 PUSH1 0xA DUP2 ADD SLOAD PUSH1 0xFF AND PUSH1 0xB DUP3 ADD SLOAD PUSH1 0xC DUP4 ADD SLOAD PUSH1 0xD DUP5 ADD SLOAD PUSH1 0xE DUP6 ADD SLOAD PUSH1 0xF DUP7 ADD SLOAD SWAP2 PUSH1 0x10 DUP8 ADD SLOAD SWAP4 PUSH1 0x1 PUSH1 0xA0 SHL PUSH1 0x1 SWAP1 SUB PUSH1 0x11 DUP10 ADD SLOAD AND SWAP6 PUSH1 0x12 DUP10 ADD SLOAD SWAP8 PUSH1 0x13 DUP11 ADD SLOAD PUSH1 0xFF AND SWAP10 PUSH1 0x14 ADD SLOAD SWAP11 PUSH1 0x40 MLOAD SWAP15 DUP16 SWAP15 DUP16 SWAP2 PUSH2 0x240 DUP4 MSTORE PUSH2 0x240 DUP4 ADD PUSH2 0x2FCE SWAP2 PUSH2 0x482C JUMP JUMPDEST DUP3 DUP2 SUB PUSH1 0x20 DUP5 ADD MSTORE PUSH2 0x2FDF SWAP2 PUSH2 0x482C JUMP JUMPDEST SWAP14 PUSH1 0x40 DUP3 ADD MSTORE PUSH1 0x60 ADD MSTORE ISZERO ISZERO PUSH1 0x80 DUP14 ADD MSTORE PUSH1 0xA0 DUP13 ADD MSTORE PUSH1 0xC0 DUP12 ADD MSTORE PUSH1 0xE0 DUP11 ADD MSTORE PUSH2 0x100 DUP10 ADD MSTORE PUSH1 0x1 PUSH1 0xA0 SHL PUSH1 0x1 SWAP1 SUB DUP2 AND PUSH2 0x120 DUP10 ADD MSTORE DUP1 PUSH1 0xA0 SHR PUSH1 0xFF AND ISZERO ISZERO PUSH2 0x140 DUP10 ADD MSTORE PUSH2 0x160 DUP9 ADD SWAP1 PUSH1 0xA8 SHR PUSH1 0xFF AND SWAP1 PUSH2 0x303B SWAP2 PUSH2 0x48F6 JUMP JUMPDEST PUSH1 0x1 PUSH1 0x1 PUSH1 0xA0 SHL SUB DUP2 AND PUSH2 0x180 DUP9 ADD MSTORE PUSH2 0x3060 SWAP1 PUSH2 0x1A0 DUP9 ADD SWAP1 PUSH1 0xA0 SHR PUSH1 0xFF AND PUSH2 0x4903 JUMP JUMPDEST PUSH2 0x1C0 DUP7 ADD MSTORE PUSH2 0x1E0 DUP6 ADD MSTORE ISZERO ISZERO PUSH2 0x200 DUP5 ADD MSTORE PUSH2 0x220 DUP4 ADD MSTORE SUB SWAP1 RETURN JUMPDEST CALLVALUE PUSH2 0x10B2 JUMPI PUSH1 0x40 CALLDATASIZE PUSH1 0x3 NOT ADD SLT PUSH2 0x10B2 JUMPI PUSH1 0x20 PUSH2 0x30A4 PUSH2 0x309C PUSH2 0x47CC JUMP JUMPDEST PUSH1 0x4 CALLDATALOAD PUSH2 0x53E4 JUMP JUMPDEST PUSH1 0x40 MLOAD SWAP1 DUP2 MSTORE RETURN JUMPDEST CALLVALUE PUSH2 0x10B2 JUMPI PUSH0 CALLDATASIZE PUSH1 0x3 NOT ADD SLT PUSH2 0x10B2 JUMPI PUSH2 0x30D1 PUSH1 0x1 DUP1 PUSH1 0xA0 SHL SUB PUSH1 0xD SLOAD AND CALLER EQ PUSH2 0x4F27 JUMP JUMPDEST PUSH1 0x20 PUSH1 0xE SLOAD PUSH1 0x40 MLOAD SWAP1 DUP2 MSTORE RETURN JUMPDEST CALLVALUE PUSH2 0x10B2 JUMPI PUSH1 0x40 CALLDATASIZE PUSH1 0x3 NOT ADD SLT PUSH2 0x10B2 JUMPI PUSH1 0x4 CALLDATALOAD PUSH1 0x24 CALLDATALOAD SWAP1 PUSH4 0xFFFFFFFF DUP3 AND DUP1 SWAP3 SUB PUSH2 0x10B2 JUMPI PUSH2 0x3111 PUSH1 0xC SLOAD DUP3 LT PUSH2 0x4F7D JUMP JUMPDEST DUP1 PUSH0 MSTORE PUSH1 0x7 PUSH1 0x20 MSTORE PUSH2 0x312A PUSH1 0xFF PUSH1 0x40 PUSH0 KECCAK256 SLOAD AND ISZERO PUSH2 0x4FBF JUMP JUMPDEST PUSH0 MSTORE PUSH1 0x4 PUSH1 0x20 MSTORE PUSH1 0x40 PUSH0 KECCAK256 PUSH2 0x3145 PUSH1 0xFF PUSH1 0xA DUP4 ADD SLOAD AND PUSH2 0x5396 JUMP JUMPDEST PUSH1 0xD SLOAD PUSH1 0x1 PUSH1 0x1 PUSH1 0xA0 SHL SUB AND CALLER EQ DUP1 ISZERO PUSH2 0x3238 JUMPI JUMPDEST ISZERO PUSH2 0x31F4 JUMPI DUP2 ISZERO PUSH2 0x31A5 JUMPI PUSH2 0xE10 DUP3 MUL SWAP2 DUP3 DIV PUSH2 0xE10 SUB PUSH2 0x3191 JUMPI PUSH1 0x1 PUSH1 0x1 PUSH1 0x80 SHL SUB PUSH1 0x9 PUSH2 0x318D SWAP3 ADD SWAP3 AND DUP3 SLOAD PUSH2 0x53D7 JUMP JUMPDEST SWAP1 SSTORE STOP JUMPDEST PUSH4 0x4E487B71 PUSH1 0xE0 SHL PUSH0 MSTORE PUSH1 0x11 PUSH1 0x4 MSTORE PUSH1 0x24 PUSH0 REVERT JUMPDEST PUSH1 0x40 MLOAD PUSH3 0x461BCD PUSH1 0xE5 SHL DUP2 MSTORE PUSH1 0x20 PUSH1 0x4 DUP3 ADD MSTORE PUSH1 0x21 PUSH1 0x24 DUP3 ADD MSTORE PUSH32 0x4164646974696F6E616C20686F757273206D75737420626520706F7369746976 PUSH1 0x44 DUP3 ADD MSTORE PUSH1 0x65 PUSH1 0xF8 SHL PUSH1 0x64 DUP3 ADD MSTORE PUSH1 0x84 SWAP1 REVERT JUMPDEST PUSH1 0x64 PUSH1 0x40 MLOAD PUSH3 0x461BCD PUSH1 0xE5 SHL DUP2 MSTORE PUSH1 0x20 PUSH1 0x4 DUP3 ADD MSTORE PUSH1 0x20 PUSH1 0x24 DUP3 ADD MSTORE PUSH32 0x4F6E6C79206F776E6572206F722063726561746F722063616E20657874656E64 PUSH1 0x44 DUP3 ADD MSTORE REVERT JUMPDEST POP PUSH1 0xF DUP2 ADD SLOAD PUSH1 0x1 PUSH1 0x1 PUSH1 0xA0 SHL SUB AND CALLER EQ PUSH2 0x315A JUMP JUMPDEST CALLVALUE PUSH2 0x10B2 JUMPI PUSH1 0x20 CALLDATASIZE PUSH1 0x3 NOT ADD SLT PUSH2 0x10B2 JUMPI PUSH1 0x4 CALLDATALOAD PUSH1 0xC SLOAD DUP2 LT PUSH2 0x3270 SWAP1 PUSH2 0x4F7D JUMP JUMPDEST DUP1 PUSH0 MSTORE PUSH1 0x7 PUSH1 0x20 MSTORE PUSH1 0x40 PUSH0 KECCAK256 SLOAD PUSH1 0xFF AND ISZERO PUSH2 0x328A SWAP1 PUSH2 0x4FBF JUMP JUMPDEST PUSH2 0x3293 SWAP1 PUSH2 0x52AA JUMP JUMPDEST SWAP11 PUSH1 0x40 SWAP11 SWAP2 SWAP11 SWAP10 SWAP3 SWAP10 SWAP9 SWAP4 SWAP9 SWAP8 SWAP5 SWAP8 SWAP7 SWAP6 SWAP7 MLOAD SWAP15 DUP16 SWAP15 DUP16 SWAP2 PUSH2 0x1E0 DUP4 MSTORE PUSH2 0x1E0 DUP4 ADD PUSH2 0x32BE SWAP2 PUSH2 0x482C JUMP JUMPDEST DUP3 DUP2 SUB PUSH1 0x20 DUP5 ADD MSTORE PUSH2 0x32CF SWAP2 PUSH2 0x482C JUMP JUMPDEST PUSH1 0x40 DUP3 ADD SWAP15 SWAP1 SWAP15 MSTORE PUSH1 0x60 ADD MSTORE ISZERO ISZERO PUSH1 0x80 DUP14 ADD MSTORE PUSH1 0xA0 DUP13 ADD MSTORE PUSH1 0xC0 DUP12 ADD MSTORE PUSH1 0xE0 DUP11 ADD MSTORE PUSH1 0x1 PUSH1 0x1 PUSH1 0xA0 SHL SUB AND PUSH2 0x100 DUP10 ADD MSTORE ISZERO ISZERO PUSH2 0x120 DUP9 ADD MSTORE PUSH2 0x3317 SWAP1 PUSH2 0x140 DUP9 ADD SWAP1 PUSH2 0x48F6 JUMP JUMPDEST PUSH1 0x1 PUSH1 0x1 PUSH1 0xA0 SHL SUB AND PUSH2 0x160 DUP7 ADD MSTORE PUSH2 0x3335 SWAP1 PUSH2 0x180 DUP7 ADD SWAP1 PUSH2 0x4903 JUMP JUMPDEST PUSH1 0x1 PUSH1 0x1 PUSH1 0xA0 SHL SUB AND PUSH2 0x1A0 DUP5 ADD MSTORE PUSH2 0x1C0 DUP4 ADD MSTORE SUB SWAP1 RETURN JUMPDEST CALLVALUE PUSH2 0x10B2 JUMPI PUSH2 0x335C CALLDATASIZE PUSH2 0x48A8 JUMP JUMPDEST PUSH2 0x3369 PUSH1 0xC SLOAD DUP4 LT PUSH2 0x4F7D JUMP JUMPDEST DUP2 PUSH0 MSTORE PUSH1 0x7 PUSH1 0x20 MSTORE PUSH2 0x3382 PUSH1 0xFF PUSH1 0x40 PUSH0 KECCAK256 SLOAD AND ISZERO PUSH2 0x4FBF JUMP JUMPDEST DUP2 PUSH0 MSTORE PUSH1 0x7 PUSH1 0x20 MSTORE PUSH2 0x339B PUSH1 0xFF PUSH1 0x40 PUSH0 KECCAK256 SLOAD AND ISZERO PUSH2 0x5244 JUMP JUMPDEST DUP2 PUSH0 MSTORE PUSH1 0x4 PUSH1 0x20 MSTORE PUSH2 0x33B5 PUSH1 0x2 PUSH1 0x40 PUSH0 KECCAK256 ADD SLOAD DUP3 LT PUSH2 0x50D6 JUMP JUMPDEST PUSH0 SWAP2 DUP1 PUSH0 MSTORE PUSH1 0x4 PUSH1 0x20 MSTORE PUSH2 0x33CE PUSH1 0x7 PUSH1 0x40 PUSH0 KECCAK256 ADD PUSH2 0x4B85 JUMP JUMPDEST SWAP3 PUSH2 0x33D9 DUP5 MLOAD PUSH2 0x4BD6 JUMP JUMPDEST SWAP2 PUSH0 JUMPDEST DUP6 MLOAD DUP2 LT ISZERO PUSH2 0x3432 JUMPI PUSH1 0x1 PUSH1 0x1 PUSH1 0xA0 SHL SUB PUSH2 0x33F7 DUP3 DUP9 PUSH2 0x4C84 JUMP JUMPDEST MLOAD AND DUP6 PUSH2 0x3404 DUP3 DUP6 PUSH2 0x53E4 JUMP JUMPDEST EQ PUSH2 0x3413 JUMPI JUMPDEST POP PUSH1 0x1 ADD PUSH2 0x33DC JUMP JUMPDEST DUP4 PUSH2 0x342B SWAP2 PUSH2 0x3425 PUSH1 0x1 SWAP5 SWAP7 DUP9 PUSH2 0x4C84 JUMP JUMPDEST MSTORE PUSH2 0x529C JUMP JUMPDEST SWAP3 SWAP1 PUSH2 0x340A JUMP JUMPDEST POP POP PUSH2 0x343D DUP2 PUSH2 0x4BD6 JUMP JUMPDEST SWAP2 PUSH0 JUMPDEST DUP3 DUP2 LT PUSH2 0x3455 JUMPI PUSH1 0x40 MLOAD DUP1 PUSH2 0x44A DUP7 DUP3 PUSH2 0x4774 JUMP JUMPDEST PUSH1 0x1 SWAP1 PUSH1 0x1 PUSH1 0x1 PUSH1 0xA0 SHL SUB PUSH2 0x346A DUP3 DUP6 PUSH2 0x4C84 JUMP JUMPDEST MLOAD AND PUSH2 0x3476 DUP3 DUP8 PUSH2 0x4C84 JUMP JUMPDEST MSTORE ADD PUSH2 0x3440 JUMP JUMPDEST CALLVALUE PUSH2 0x10B2 JUMPI PUSH0 CALLDATASIZE PUSH1 0x3 NOT ADD SLT PUSH2 0x10B2 JUMPI PUSH1 0x20 PUSH1 0x2 SLOAD PUSH1 0x40 MLOAD SWAP1 DUP2 MSTORE RETURN JUMPDEST CALLVALUE PUSH2 0x10B2 JUMPI PUSH1 0x20 CALLDATASIZE PUSH1 0x3 NOT ADD SLT PUSH2 0x10B2 JUMPI PUSH1 0x4 CALLDATALOAD PUSH2 0x34BB PUSH1 0xC SLOAD DUP3 LT PUSH2 0x4F7D JUMP JUMPDEST DUP1 PUSH0 MSTORE PUSH1 0x7 PUSH1 0x20 MSTORE PUSH2 0x34D4 PUSH1 0xFF PUSH1 0x40 PUSH0 KECCAK256 SLOAD AND ISZERO PUSH2 0x4FBF JUMP JUMPDEST DUP1 PUSH0 MSTORE PUSH1 0x4 PUSH1 0x20 MSTORE PUSH1 0x40 PUSH0 KECCAK256 PUSH1 0x1 DUP1 PUSH1 0xA0 SHL SUB PUSH1 0xD SLOAD AND CALLER EQ DUP1 ISZERO PUSH2 0x35D5 JUMPI JUMPDEST ISZERO PUSH2 0x357A JUMPI PUSH1 0xA DUP2 ADD SWAP2 DUP3 SLOAD SWAP2 PUSH1 0xFF DUP4 AND PUSH2 0x350B JUMPI STOP JUMPDEST PUSH32 0x703C67C157A1AFB7D386CE5212EE88BF0A690BCA998060E9595EBDFD747100CE SWAP4 PUSH1 0x20 SWAP4 PUSH1 0xFF NOT AND SWAP1 SSTORE PUSH1 0xF PUSH1 0x1 DUP1 PUSH1 0xA0 SHL SUB SWAP2 ADD SLOAD AND DUP1 PUSH0 MSTORE PUSH1 0xF DUP4 MSTORE PUSH1 0x40 PUSH0 KECCAK256 SLOAD PUSH2 0x355E JUMPI JUMPDEST POP PUSH1 0x40 MLOAD SWAP1 DUP2 MSTORE LOG1 STOP JUMPDEST PUSH0 MSTORE PUSH1 0xF DUP3 MSTORE PUSH1 0x40 PUSH0 KECCAK256 PUSH2 0x3572 DUP2 SLOAD PUSH2 0x5290 JUMP JUMPDEST SWAP1 SSTORE DUP4 PUSH2 0x3554 JUMP JUMPDEST PUSH1 0x40 MLOAD PUSH3 0x461BCD PUSH1 0xE5 SHL DUP2 MSTORE PUSH1 0x20 PUSH1 0x4 DUP3 ADD MSTORE PUSH1 0x2D PUSH1 0x24 DUP3 ADD MSTORE PUSH32 0x4F6E6C79206F776E6572206F7220706F6C6C2063726561746F722063616E2063 PUSH1 0x44 DUP3 ADD MSTORE PUSH13 0x1B1BDCD9481D1A19481C1BDB1B PUSH1 0x9A SHL PUSH1 0x64 DUP3 ADD MSTORE PUSH1 0x84 SWAP1 REVERT JUMPDEST POP PUSH1 0xF DUP2 ADD SLOAD PUSH1 0x1 PUSH1 0x1 PUSH1 0xA0 SHL SUB AND CALLER EQ PUSH2 0x34F4 JUMP JUMPDEST CALLVALUE PUSH2 0x10B2 JUMPI PUSH0 CALLDATASIZE PUSH1 0x3 NOT ADD SLT PUSH2 0x10B2 JUMPI PUSH1 0x20 PUSH1 0xC SLOAD PUSH1 0x40 MLOAD SWAP1 DUP2 MSTORE RETURN JUMPDEST CALLVALUE PUSH2 0x10B2 JUMPI PUSH0 CALLDATASIZE PUSH1 0x3 NOT ADD SLT PUSH2 0x10B2 JUMPI PUSH1 0xD SLOAD PUSH1 0x40 MLOAD PUSH1 0x1 PUSH1 0x1 PUSH1 0xA0 SHL SUB SWAP1 SWAP2 AND DUP2 MSTORE PUSH1 0x20 SWAP1 RETURN JUMPDEST CALLVALUE PUSH2 0x10B2 JUMPI PUSH1 0x20 CALLDATASIZE PUSH1 0x3 NOT ADD SLT PUSH2 0x10B2 JUMPI PUSH1 0x4 CALLDATALOAD PUSH2 0x3651 PUSH1 0xC SLOAD DUP3 LT PUSH2 0x4F7D JUMP JUMPDEST DUP1 PUSH0 MSTORE PUSH1 0x7 PUSH1 0x20 MSTORE PUSH2 0x366A PUSH1 0xFF PUSH1 0x40 PUSH0 KECCAK256 SLOAD AND ISZERO PUSH2 0x4FBF JUMP JUMPDEST PUSH0 MSTORE PUSH1 0x4 PUSH1 0x20 MSTORE PUSH2 0x44A PUSH2 0x3680 PUSH1 0x40 PUSH0 KECCAK256 PUSH2 0x4948 JUMP JUMPDEST PUSH1 0x40 MLOAD SWAP2 DUP3 SWAP2 PUSH1 0x20 DUP4 MSTORE PUSH1 0x20 DUP4 ADD SWAP1 PUSH2 0x482C JUMP JUMPDEST CALLVALUE PUSH2 0x10B2 JUMPI PUSH1 0x20 CALLDATASIZE PUSH1 0x3 NOT ADD SLT PUSH2 0x10B2 JUMPI PUSH2 0x36AD PUSH2 0x47B6 JUMP JUMPDEST PUSH1 0x1 PUSH1 0x1 PUSH1 0xA0 SHL SUB AND DUP1 ISZERO PUSH2 0x3823 JUMPI PUSH2 0x36C4 PUSH2 0x5166 JUMP JUMPDEST PUSH2 0x36CC PUSH2 0x518E JUMP JUMPDEST PUSH1 0x40 MLOAD PUSH4 0x6FDDE03 PUSH1 0xE0 SHL DUP2 MSTORE PUSH0 DUP2 PUSH1 0x4 DUP2 DUP8 GAS STATICCALL PUSH0 SWAP2 DUP2 PUSH2 0x3807 JUMPI JUMPDEST POP PUSH2 0x37FF JUMPI JUMPDEST POP PUSH1 0x40 MLOAD PUSH4 0x95D89B41 PUSH1 0xE0 SHL DUP2 MSTORE PUSH0 DUP2 PUSH1 0x4 DUP2 DUP8 GAS STATICCALL PUSH0 SWAP2 DUP2 PUSH2 0x37DB JUMPI JUMPDEST POP PUSH2 0x37D3 JUMPI JUMPDEST POP PUSH1 0x40 MLOAD PUSH4 0x313CE567 PUSH1 0xE0 SHL DUP2 MSTORE SWAP3 PUSH1 0x12 SWAP2 SWAP1 PUSH1 0x20 DUP6 PUSH1 0x4 DUP2 DUP5 GAS STATICCALL DUP1 SWAP6 PUSH0 SWAP2 PUSH2 0x3793 JUMPI JUMPDEST POP PUSH2 0x376B SWAP6 PUSH2 0x378B JUMPI JUMPDEST POP PUSH0 MSTORE PUSH1 0x11 PUSH1 0x20 MSTORE PUSH1 0xFF PUSH2 0x3779 DUP2 PUSH1 0x40 PUSH0 KECCAK256 SLOAD AND SWAP3 PUSH1 0x40 MLOAD SWAP7 DUP8 SWAP7 PUSH1 0x80 DUP9 MSTORE PUSH1 0x80 DUP9 ADD SWAP1 PUSH2 0x482C JUMP JUMPDEST SWAP1 DUP7 DUP3 SUB PUSH1 0x20 DUP9 ADD MSTORE PUSH2 0x482C JUMP JUMPDEST SWAP3 AND PUSH1 0x40 DUP5 ADD MSTORE ISZERO ISZERO PUSH1 0x60 DUP4 ADD MSTORE SUB SWAP1 RETURN JUMPDEST SWAP3 POP DUP6 PUSH2 0x3742 JUMP JUMPDEST SWAP1 POP PUSH1 0x20 DUP2 RETURNDATASIZE PUSH1 0x20 GT PUSH2 0x37CB JUMPI JUMPDEST DUP2 PUSH2 0x37AE PUSH1 0x20 SWAP4 DUP4 PUSH2 0x48BE JUMP JUMPDEST DUP2 ADD SUB SLT PUSH2 0x10B2 JUMPI MLOAD SWAP5 PUSH1 0xFF DUP7 AND DUP7 SUB PUSH2 0x10B2 JUMPI SWAP5 PUSH2 0x376B PUSH2 0x3738 JUMP JUMPDEST RETURNDATASIZE SWAP2 POP PUSH2 0x37A1 JUMP JUMPDEST SWAP1 POP DUP4 PUSH2 0x3713 JUMP JUMPDEST PUSH2 0x37F8 SWAP2 SWAP3 POP RETURNDATASIZE DUP1 PUSH0 DUP4 RETURNDATACOPY PUSH2 0x37F0 DUP2 DUP4 PUSH2 0x48BE JUMP JUMPDEST DUP2 ADD SWAP1 PUSH2 0x51B0 JUMP JUMPDEST SWAP1 DUP6 PUSH2 0x370D JUMP JUMPDEST SWAP2 POP DUP4 PUSH2 0x36EF JUMP JUMPDEST PUSH2 0x381C SWAP2 SWAP3 POP RETURNDATASIZE DUP1 PUSH0 DUP4 RETURNDATACOPY PUSH2 0x37F0 DUP2 DUP4 PUSH2 0x48BE JUMP JUMPDEST SWAP1 DUP6 PUSH2 0x36E9 JUMP JUMPDEST PUSH1 0x40 MLOAD PUSH3 0x461BCD PUSH1 0xE5 SHL DUP2 MSTORE PUSH1 0x20 PUSH1 0x4 DUP3 ADD MSTORE PUSH1 0x15 PUSH1 0x24 DUP3 ADD MSTORE PUSH21 0x496E76616C696420746F6B656E2061646472657373 PUSH1 0x58 SHL PUSH1 0x44 DUP3 ADD MSTORE PUSH1 0x64 SWAP1 REVERT JUMPDEST CALLVALUE PUSH2 0x10B2 JUMPI PUSH1 0x20 CALLDATASIZE PUSH1 0x3 NOT ADD SLT PUSH2 0x10B2 JUMPI PUSH1 0x4 CALLDATALOAD PUSH2 0x3881 PUSH1 0xC SLOAD DUP3 LT PUSH2 0x4F7D JUMP JUMPDEST DUP1 PUSH0 MSTORE PUSH1 0x7 PUSH1 0x20 MSTORE PUSH2 0x389A PUSH1 0xFF PUSH1 0x40 PUSH0 KECCAK256 SLOAD AND ISZERO PUSH2 0x4FBF JUMP JUMPDEST DUP1 PUSH0 MSTORE PUSH1 0x7 PUSH1 0x20 MSTORE PUSH2 0x38B3 PUSH1 0xFF PUSH1 0x40 PUSH0 KECCAK256 SLOAD AND ISZERO PUSH2 0x5244 JUMP JUMPDEST PUSH0 MSTORE PUSH1 0x4 PUSH1 0x20 MSTORE PUSH2 0x44A PUSH2 0x19BE PUSH1 0x7 PUSH1 0x40 PUSH0 KECCAK256 ADD PUSH2 0x4B85 JUMP JUMPDEST CALLVALUE PUSH2 0x10B2 JUMPI PUSH1 0x20 CALLDATASIZE PUSH1 0x3 NOT ADD SLT PUSH2 0x10B2 JUMPI PUSH2 0x38E5 PUSH2 0x47B6 JUMP JUMPDEST PUSH2 0x38FA PUSH1 0x1 DUP1 PUSH1 0xA0 SHL SUB PUSH1 0xD SLOAD AND CALLER EQ PUSH2 0x4F27 JUMP JUMPDEST PUSH1 0x1 PUSH1 0x1 PUSH1 0xA0 SHL SUB AND PUSH0 DUP2 DUP2 MSTORE PUSH1 0x11 PUSH1 0x20 MSTORE PUSH1 0x40 SWAP1 KECCAK256 SLOAD PUSH1 0xFF AND ISZERO PUSH2 0x3A55 JUMPI PUSH0 DUP2 DUP2 MSTORE PUSH1 0x11 PUSH1 0x20 MSTORE PUSH1 0x40 DUP2 KECCAK256 DUP1 SLOAD PUSH1 0xFF NOT AND SWAP1 SSTORE JUMPDEST PUSH1 0x10 SLOAD SWAP1 DUP2 DUP2 LT ISZERO PUSH2 0x3A2A JUMPI DUP3 PUSH2 0x3945 DUP3 PUSH2 0x4AF3 JUMP JUMPDEST SWAP1 SLOAD PUSH1 0x3 SWAP2 SWAP1 SWAP2 SHL SHR PUSH1 0x1 PUSH1 0x1 PUSH1 0xA0 SHL SUB AND EQ PUSH2 0x3966 JUMPI PUSH1 0x1 SWAP2 POP ADD PUSH2 0x392F JUMP JUMPDEST PUSH0 NOT DUP3 ADD SWAP2 DUP3 GT PUSH2 0x3191 JUMPI PUSH2 0x3998 PUSH2 0x3980 PUSH2 0x39BC SWAP4 PUSH2 0x4AF3 JUMP JUMPDEST SWAP1 SLOAD PUSH1 0x3 SWAP2 SWAP1 SWAP2 SHL SHR PUSH1 0x1 PUSH1 0x1 PUSH1 0xA0 SHL SUB AND SWAP2 PUSH2 0x4AF3 JUMP JUMPDEST DUP2 SLOAD PUSH1 0x1 PUSH1 0x1 PUSH1 0xA0 SHL SUB SWAP4 DUP5 AND PUSH1 0x3 SWAP3 SWAP1 SWAP3 SHL SWAP2 DUP3 SHL SWAP4 SWAP1 SWAP2 SHL NOT AND SWAP2 SWAP1 SWAP2 OR SWAP1 SSTORE JUMP JUMPDEST PUSH1 0x10 SLOAD DUP1 ISZERO PUSH2 0x3A16 JUMPI PUSH32 0x4C910B69FE65A61F7531B9C5042B2329CA7179C77290AA7E2EB3AFA3C8511FD3 SWAP2 PUSH1 0x20 SWAP2 PUSH0 NOT ADD PUSH2 0x39F6 DUP2 PUSH2 0x4AF3 JUMP JUMPDEST DUP2 SLOAD SWAP1 PUSH1 0x1 DUP1 PUSH1 0xA0 SHL SUB SWAP1 PUSH1 0x3 SHL SHL NOT AND SWAP1 SSTORE PUSH1 0x10 SSTORE JUMPDEST PUSH1 0x40 MLOAD SWAP1 DUP2 MSTORE LOG1 STOP JUMPDEST PUSH4 0x4E487B71 PUSH1 0xE0 SHL PUSH0 MSTORE PUSH1 0x31 PUSH1 0x4 MSTORE PUSH1 0x24 PUSH0 REVERT JUMPDEST POP POP PUSH1 0x20 PUSH32 0x4C910B69FE65A61F7531B9C5042B2329CA7179C77290AA7E2EB3AFA3C8511FD3 SWAP2 PUSH2 0x3A0D JUMP JUMPDEST PUSH1 0x40 MLOAD PUSH3 0x461BCD PUSH1 0xE5 SHL DUP2 MSTORE PUSH1 0x20 PUSH1 0x4 DUP3 ADD MSTORE PUSH1 0x13 PUSH1 0x24 DUP3 ADD MSTORE PUSH19 0x151BDAD95B881B9BDD081CDD5C1C1BDC9D1959 PUSH1 0x6A SHL PUSH1 0x44 DUP3 ADD MSTORE PUSH1 0x64 SWAP1 REVERT JUMPDEST CALLVALUE PUSH2 0x10B2 JUMPI PUSH1 0x20 CALLDATASIZE PUSH1 0x3 NOT ADD SLT PUSH2 0x10B2 JUMPI PUSH1 0x1 PUSH1 0x1 PUSH1 0xA0 SHL SUB PUSH2 0x3AB1 PUSH2 0x47B6 JUMP JUMPDEST AND PUSH0 MSTORE PUSH1 0x11 PUSH1 0x20 MSTORE PUSH1 0x20 PUSH1 0xFF PUSH1 0x40 PUSH0 KECCAK256 SLOAD AND PUSH1 0x40 MLOAD SWAP1 ISZERO ISZERO DUP2 MSTORE RETURN JUMPDEST CALLVALUE PUSH2 0x10B2 JUMPI PUSH0 CALLDATASIZE PUSH1 0x3 NOT ADD SLT PUSH2 0x10B2 JUMPI PUSH1 0x20 SELFBALANCE PUSH1 0x40 MLOAD SWAP1 DUP2 MSTORE RETURN JUMPDEST CALLVALUE PUSH2 0x10B2 JUMPI PUSH1 0x20 CALLDATASIZE PUSH1 0x3 NOT ADD SLT PUSH2 0x10B2 JUMPI PUSH2 0x3B01 PUSH2 0x47B6 JUMP JUMPDEST PUSH2 0x3B16 PUSH1 0x1 DUP1 PUSH1 0xA0 SHL SUB PUSH1 0xD SLOAD AND CALLER EQ PUSH2 0x4F27 JUMP JUMPDEST PUSH1 0x1 PUSH1 0x1 PUSH1 0xA0 SHL SUB DUP2 AND DUP1 ISZERO PUSH2 0x3D1C JUMPI DUP1 PUSH0 MSTORE PUSH1 0x11 PUSH1 0x20 MSTORE PUSH1 0xFF PUSH1 0x40 PUSH0 KECCAK256 SLOAD AND PUSH2 0x3CD7 JUMPI PUSH1 0x40 MLOAD PUSH4 0x70A08231 PUSH1 0xE0 SHL DUP2 MSTORE ADDRESS PUSH1 0x4 DUP3 ADD MSTORE PUSH1 0x20 DUP2 PUSH1 0x24 DUP2 DUP6 GAS STATICCALL DUP1 ISZERO PUSH2 0x2CE1 JUMPI PUSH2 0x3CA8 JUMPI JUMPDEST POP PUSH2 0x3B6A PUSH2 0x5166 JUMP JUMPDEST SWAP1 PUSH2 0x3B73 PUSH2 0x518E JUMP JUMPDEST SWAP3 PUSH1 0x40 MLOAD PUSH4 0x6FDDE03 PUSH1 0xE0 SHL DUP2 MSTORE PUSH0 DUP2 PUSH1 0x4 DUP2 DUP7 GAS STATICCALL PUSH0 SWAP2 DUP2 PUSH2 0x3C8C JUMPI JUMPDEST POP PUSH2 0x3C84 JUMPI JUMPDEST POP PUSH1 0x40 MLOAD PUSH4 0x95D89B41 PUSH1 0xE0 SHL DUP2 MSTORE PUSH0 DUP2 PUSH1 0x4 DUP2 DUP7 GAS STATICCALL PUSH0 SWAP2 DUP2 PUSH2 0x3C68 JUMPI JUMPDEST POP PUSH2 0x3C60 JUMPI JUMPDEST POP PUSH1 0x10 SLOAD SWAP4 PUSH1 0x1 PUSH1 0x40 SHL DUP6 LT ISZERO PUSH2 0x3C4C JUMPI PUSH2 0x3C06 PUSH2 0x3C47 SWAP3 PUSH2 0x3998 DUP8 PUSH1 0x1 PUSH32 0x2FB34CE114A136590B874D8CF80E7652ADDA576578BACFA4F8023F720F569394 SWAP10 ADD PUSH1 0x10 SSTORE PUSH1 0x10 PUSH2 0x4B1F JUMP JUMPDEST DUP3 PUSH0 MSTORE PUSH1 0x11 PUSH1 0x20 MSTORE PUSH1 0x40 PUSH0 KECCAK256 PUSH1 0x1 PUSH1 0xFF NOT DUP3 SLOAD AND OR SWAP1 SSTORE PUSH2 0x3C39 PUSH1 0x40 MLOAD SWAP5 DUP6 SWAP5 DUP6 MSTORE PUSH1 0x60 PUSH1 0x20 DUP7 ADD MSTORE PUSH1 0x60 DUP6 ADD SWAP1 PUSH2 0x482C JUMP JUMPDEST SWAP1 DUP4 DUP3 SUB PUSH1 0x40 DUP6 ADD MSTORE PUSH2 0x482C JUMP JUMPDEST SUB SWAP1 LOG1 STOP JUMPDEST PUSH4 0x4E487B71 PUSH1 0xE0 SHL PUSH0 MSTORE PUSH1 0x41 PUSH1 0x4 MSTORE PUSH1 0x24 PUSH0 REVERT JUMPDEST SWAP4 POP DUP5 PUSH2 0x3BBB JUMP JUMPDEST PUSH2 0x3C7D SWAP2 SWAP3 POP RETURNDATASIZE DUP1 PUSH0 DUP4 RETURNDATACOPY PUSH2 0x37F0 DUP2 DUP4 PUSH2 0x48BE JUMP JUMPDEST SWAP1 DUP7 PUSH2 0x3BB5 JUMP JUMPDEST SWAP3 POP DUP5 PUSH2 0x3B97 JUMP JUMPDEST PUSH2 0x3CA1 SWAP2 SWAP3 POP RETURNDATASIZE DUP1 PUSH0 DUP4 RETURNDATACOPY PUSH2 0x37F0 DUP2 DUP4 PUSH2 0x48BE JUMP JUMPDEST SWAP1 DUP7 PUSH2 0x3B91 JUMP JUMPDEST PUSH1 0x20 DUP2 RETURNDATASIZE PUSH1 0x20 GT PUSH2 0x3CCF JUMPI JUMPDEST DUP2 PUSH2 0x3CC1 PUSH1 0x20 SWAP4 DUP4 PUSH2 0x48BE JUMP JUMPDEST DUP2 ADD SUB SLT PUSH2 0x10B2 JUMPI MLOAD PUSH2 0x3B61 JUMP JUMPDEST RETURNDATASIZE SWAP2 POP PUSH2 0x3CB4 JUMP JUMPDEST PUSH1 0x40 MLOAD PUSH3 0x461BCD PUSH1 0xE5 SHL DUP2 MSTORE PUSH1 0x20 PUSH1 0x4 DUP3 ADD MSTORE PUSH1 0x17 PUSH1 0x24 DUP3 ADD MSTORE PUSH32 0x546F6B656E20616C726561647920737570706F72746564000000000000000000 PUSH1 0x44 DUP3 ADD MSTORE PUSH1 0x64 SWAP1 REVERT JUMPDEST PUSH1 0x64 PUSH1 0x40 MLOAD PUSH3 0x461BCD PUSH1 0xE5 SHL DUP2 MSTORE PUSH1 0x20 PUSH1 0x4 DUP3 ADD MSTORE PUSH1 0x20 PUSH1 0x24 DUP3 ADD MSTORE PUSH32 0x43616E6E6F7420616464207A65726F206164647265737320617320746F6B656E PUSH1 0x44 DUP3 ADD MSTORE REVERT JUMPDEST CALLVALUE PUSH2 0x10B2 JUMPI PUSH1 0x20 CALLDATASIZE PUSH1 0x3 NOT ADD SLT PUSH2 0x10B2 JUMPI PUSH1 0x4 CALLDATALOAD PUSH1 0x1 PUSH1 0x1 PUSH1 0x40 SHL SUB DUP2 GT PUSH2 0x10B2 JUMPI CALLDATASIZE PUSH1 0x23 DUP3 ADD SLT ISZERO PUSH2 0x10B2 JUMPI DUP1 PUSH1 0x4 ADD CALLDATALOAD SWAP1 PUSH2 0x3D9C DUP3 PUSH2 0x48DF JUMP JUMPDEST SWAP2 PUSH2 0x3DAA PUSH1 0x40 MLOAD SWAP4 DUP5 PUSH2 0x48BE JUMP JUMPDEST DUP1 DUP4 MSTORE PUSH1 0x24 PUSH1 0x20 DUP5 ADD SWAP2 PUSH1 0x5 SHL DUP4 ADD ADD SWAP2 CALLDATASIZE DUP4 GT PUSH2 0x10B2 JUMPI PUSH1 0x24 ADD SWAP1 JUMPDEST DUP3 DUP3 LT PUSH2 0x3E94 JUMPI DUP4 PUSH2 0x3DE4 PUSH1 0x1 DUP1 PUSH1 0xA0 SHL SUB PUSH1 0xD SLOAD AND CALLER EQ PUSH2 0x4F27 JUMP JUMPDEST PUSH0 JUMPDEST DUP2 MLOAD DUP2 LT ISZERO PUSH2 0x3E92 JUMPI DUP1 PUSH2 0x3DFC PUSH1 0x1 SWAP3 DUP5 PUSH2 0x4C84 JUMP JUMPDEST MLOAD PUSH1 0xC SLOAD DUP2 LT DUP1 PUSH2 0x3E7A JUMPI JUMPDEST DUP1 PUSH2 0x3E63 JUMPI JUMPDEST PUSH2 0x3E1A JUMPI JUMPDEST POP ADD PUSH2 0x3DE6 JUMP JUMPDEST DUP1 PUSH0 MSTORE PUSH1 0x4 PUSH1 0x20 MSTORE PUSH2 0x3E31 PUSH1 0x2 PUSH1 0x40 PUSH0 KECCAK256 ADD PUSH2 0x5034 JUMP JUMPDEST DUP1 PUSH0 MSTORE PUSH1 0x4 PUSH1 0x20 MSTORE PUSH2 0x3E48 PUSH1 0x7 PUSH1 0x40 PUSH0 KECCAK256 ADD PUSH2 0x50B5 JUMP JUMPDEST PUSH0 MSTORE PUSH1 0x7 PUSH1 0x20 MSTORE PUSH1 0x40 PUSH0 KECCAK256 DUP3 PUSH1 0xFF NOT DUP3 SLOAD AND OR SWAP1 SSTORE DUP4 PUSH2 0x3E13 JUMP JUMPDEST POP DUP1 PUSH0 MSTORE PUSH1 0x7 PUSH1 0x20 MSTORE PUSH1 0xFF PUSH1 0x40 PUSH0 KECCAK256 SLOAD AND ISZERO PUSH2 0x3E0E JUMP JUMPDEST POP DUP1 PUSH0 MSTORE PUSH1 0x4 PUSH1 0x20 MSTORE PUSH1 0x9 PUSH1 0x40 PUSH0 KECCAK256 ADD SLOAD TIMESTAMP GT PUSH2 0x3E08 JUMP JUMPDEST STOP JUMPDEST DUP2 CALLDATALOAD DUP2 MSTORE PUSH1 0x20 SWAP2 DUP3 ADD SWAP2 ADD PUSH2 0x3DC7 JUMP JUMPDEST CALLVALUE PUSH2 0x10B2 JUMPI PUSH1 0x20 CALLDATASIZE PUSH1 0x3 NOT ADD SLT PUSH2 0x10B2 JUMPI PUSH32 0x12A789AA8036F83FCF7F3ED64A8A6B82429F262256A1B44B7689344BA4F96BF4 PUSH1 0x20 PUSH1 0x4 CALLDATALOAD PUSH2 0x3EF0 PUSH1 0x1 DUP1 PUSH1 0xA0 SHL SUB PUSH1 0xD SLOAD AND CALLER EQ PUSH2 0x4F27 JUMP JUMPDEST DUP1 PUSH1 0x2 SSTORE PUSH1 0x40 MLOAD SWAP1 DUP2 MSTORE LOG1 STOP JUMPDEST CALLVALUE PUSH2 0x10B2 JUMPI PUSH0 CALLDATASIZE PUSH1 0x3 NOT ADD SLT PUSH2 0x10B2 JUMPI PUSH1 0x20 PUSH1 0x3 SLOAD PUSH1 0x40 MLOAD SWAP1 DUP2 MSTORE RETURN JUMPDEST CALLVALUE PUSH2 0x10B2 JUMPI PUSH1 0x20 CALLDATASIZE PUSH1 0x3 NOT ADD SLT PUSH2 0x10B2 JUMPI PUSH1 0x1 PUSH1 0x1 PUSH1 0xA0 SHL SUB PUSH2 0x3F3B PUSH2 0x47B6 JUMP JUMPDEST AND PUSH0 MSTORE PUSH1 0xF PUSH1 0x20 MSTORE PUSH1 0x20 PUSH1 0x40 PUSH0 KECCAK256 SLOAD PUSH1 0x40 MLOAD SWAP1 DUP2 MSTORE RETURN JUMPDEST CALLVALUE PUSH2 0x10B2 JUMPI PUSH0 CALLDATASIZE PUSH1 0x3 NOT ADD SLT PUSH2 0x10B2 JUMPI PUSH2 0x3F77 PUSH1 0x1 DUP1 PUSH1 0xA0 SHL SUB PUSH1 0xD SLOAD AND CALLER EQ PUSH2 0x4F27 JUMP JUMPDEST PUSH2 0x44A PUSH2 0x19BE PUSH2 0x4B34 JUMP JUMPDEST CALLVALUE PUSH2 0x10B2 JUMPI PUSH1 0x20 CALLDATASIZE PUSH1 0x3 NOT ADD SLT PUSH2 0x10B2 JUMPI PUSH1 0x4 CALLDATALOAD PUSH2 0x3FA3 PUSH1 0xC SLOAD DUP3 LT PUSH2 0x4F7D JUMP JUMPDEST DUP1 PUSH0 MSTORE PUSH1 0x7 PUSH1 0x20 MSTORE PUSH2 0x3FBC PUSH1 0xFF PUSH1 0x40 PUSH0 KECCAK256 SLOAD AND ISZERO PUSH2 0x4FBF JUMP JUMPDEST PUSH0 MSTORE PUSH1 0x7 PUSH1 0x20 MSTORE PUSH1 0x20 PUSH1 0xFF PUSH1 0x40 PUSH0 KECCAK256 SLOAD AND PUSH1 0x40 MLOAD SWAP1 ISZERO ISZERO DUP2 MSTORE RETURN JUMPDEST CALLVALUE PUSH2 0x10B2 JUMPI PUSH1 0x40 CALLDATASIZE PUSH1 0x3 NOT ADD SLT PUSH2 0x10B2 JUMPI PUSH1 0x4 CALLDATALOAD PUSH2 0x3FF3 PUSH2 0x47CC JUMP JUMPDEST SWAP1 PUSH2 0x4001 PUSH1 0xC SLOAD DUP3 LT PUSH2 0x4F7D JUMP JUMPDEST DUP1 PUSH0 MSTORE PUSH1 0x7 PUSH1 0x20 MSTORE PUSH2 0x401A PUSH1 0xFF PUSH1 0x40 PUSH0 KECCAK256 SLOAD AND ISZERO PUSH2 0x4FBF JUMP JUMPDEST PUSH0 MSTORE PUSH1 0x4 PUSH1 0x20 MSTORE PUSH1 0x4 PUSH1 0x40 PUSH0 KECCAK256 ADD SWAP1 PUSH1 0x1 DUP1 PUSH1 0xA0 SHL SUB AND PUSH0 MSTORE PUSH1 0x20 MSTORE PUSH1 0x20 PUSH1 0xFF PUSH1 0x40 PUSH0 KECCAK256 SLOAD AND PUSH1 0x40 MLOAD SWAP1 ISZERO ISZERO DUP2 MSTORE RETURN JUMPDEST CALLVALUE PUSH2 0x10B2 JUMPI PUSH0 CALLDATASIZE PUSH1 0x3 NOT ADD SLT PUSH2 0x10B2 JUMPI PUSH2 0x4068 PUSH1 0x2 PUSH0 SLOAD EQ ISZERO PUSH2 0x511A JUMP JUMPDEST PUSH1 0x2 PUSH0 SSTORE PUSH1 0xD SLOAD PUSH1 0x1 PUSH1 0x1 PUSH1 0xA0 SHL SUB AND PUSH2 0x4083 CALLER DUP3 EQ PUSH2 0x4F27 JUMP JUMPDEST PUSH1 0xE SLOAD SWAP1 DUP2 ISZERO SWAP1 DUP2 ISZERO PUSH2 0x4097 JUMPI JUMPDEST PUSH1 0x1 PUSH0 SSTORE STOP JUMPDEST PUSH0 PUSH1 0xE SSTORE DUP3 SELFBALANCE LT PUSH2 0x410A JUMPI PUSH0 DUP1 DUP5 DUP2 SWAP5 SWAP4 DUP3 SWAP5 DUP4 SWAP1 PUSH2 0x4101 JUMPI JUMPDEST CALL ISZERO PUSH2 0x2CE1 JUMPI PUSH1 0x60 PUSH32 0x9A738A5C1058A1CD48022A48CBF5127657FDAB65D8D9DB8C36AF972C21620065 SWAP2 PUSH1 0x1 DUP1 PUSH1 0xA0 SHL SUB PUSH1 0xD SLOAD AND SWAP1 PUSH1 0x40 MLOAD SWAP2 DUP3 MSTORE PUSH1 0x20 DUP3 ADD MSTORE PUSH0 PUSH1 0x40 DUP3 ADD MSTORE LOG1 DUP1 DUP1 DUP1 PUSH2 0x4091 JUMP JUMPDEST POP PUSH2 0x8FC PUSH2 0x40B1 JUMP JUMPDEST PUSH1 0x40 MLOAD PUSH3 0x461BCD PUSH1 0xE5 SHL DUP2 MSTORE PUSH1 0x20 PUSH1 0x4 DUP3 ADD MSTORE PUSH1 0x27 PUSH1 0x24 DUP3 ADD MSTORE PUSH32 0x496E73756666696369656E74204C59582062616C616E636520666F7220636F6D PUSH1 0x44 DUP3 ADD MSTORE PUSH7 0x36B4B9B9B4B7B7 PUSH1 0xC9 SHL PUSH1 0x64 DUP3 ADD MSTORE PUSH1 0x84 SWAP1 REVERT JUMPDEST CALLVALUE PUSH2 0x10B2 JUMPI PUSH2 0x416D CALLDATASIZE PUSH2 0x48A8 JUMP JUMPDEST SWAP1 PUSH2 0x417B PUSH1 0xC SLOAD DUP3 LT PUSH2 0x4F7D JUMP JUMPDEST DUP1 PUSH0 MSTORE PUSH1 0x7 PUSH1 0x20 MSTORE PUSH2 0x4194 PUSH1 0xFF PUSH1 0x40 PUSH0 KECCAK256 SLOAD AND ISZERO PUSH2 0x4FBF JUMP JUMPDEST DUP1 PUSH0 MSTORE PUSH1 0x4 PUSH1 0x20 MSTORE PUSH2 0x41AE PUSH1 0x2 PUSH1 0x40 PUSH0 KECCAK256 ADD SLOAD DUP4 LT PUSH2 0x50D6 JUMP JUMPDEST PUSH0 MSTORE PUSH1 0x4 PUSH1 0x20 MSTORE PUSH1 0x3 PUSH1 0x40 PUSH0 KECCAK256 ADD SWAP1 PUSH0 MSTORE PUSH1 0x20 MSTORE PUSH1 0x20 PUSH1 0x40 PUSH0 KECCAK256 SLOAD PUSH1 0x40 MLOAD SWAP1 DUP2 MSTORE RETURN JUMPDEST CALLVALUE PUSH2 0x10B2 JUMPI PUSH1 0x20 CALLDATASIZE PUSH1 0x3 NOT ADD SLT PUSH2 0x10B2 JUMPI PUSH1 0x4 CALLDATALOAD PUSH2 0x41F2 PUSH1 0xC SLOAD DUP3 LT PUSH2 0x4F7D JUMP JUMPDEST DUP1 PUSH0 MSTORE PUSH1 0x7 PUSH1 0x20 MSTORE PUSH2 0x420B PUSH1 0xFF PUSH1 0x40 PUSH0 KECCAK256 SLOAD AND ISZERO PUSH2 0x4FBF JUMP JUMPDEST DUP1 PUSH0 MSTORE PUSH1 0x4 PUSH1 0x20 MSTORE PUSH1 0x40 PUSH0 KECCAK256 PUSH1 0x1 DUP1 PUSH1 0xA0 SHL SUB PUSH1 0xD SLOAD AND CALLER EQ DUP1 ISZERO PUSH2 0x438A JUMPI JUMPDEST ISZERO PUSH2 0x432B JUMPI PUSH1 0x9 ADD SLOAD TIMESTAMP GT ISZERO PUSH2 0x42DC JUMPI DUP1 PUSH0 MSTORE PUSH1 0x7 PUSH1 0x20 MSTORE PUSH1 0xFF PUSH1 0x40 PUSH0 KECCAK256 SLOAD AND PUSH2 0x4297 JUMPI DUP1 PUSH0 MSTORE PUSH1 0x4 PUSH1 0x20 MSTORE PUSH2 0x4266 PUSH1 0x2 PUSH1 0x40 PUSH0 KECCAK256 ADD PUSH2 0x5034 JUMP JUMPDEST DUP1 PUSH0 MSTORE PUSH1 0x4 PUSH1 0x20 MSTORE PUSH2 0x427D PUSH1 0x7 PUSH1 0x40 PUSH0 KECCAK256 ADD PUSH2 0x50B5 JUMP JUMPDEST PUSH0 SWAP1 DUP2 MSTORE PUSH1 0x7 PUSH1 0x20 MSTORE PUSH1 0x40 SWAP1 KECCAK256 DUP1 SLOAD PUSH1 0xFF NOT AND PUSH1 0x1 OR SWAP1 SSTORE STOP JUMPDEST PUSH1 0x40 MLOAD PUSH3 0x461BCD PUSH1 0xE5 SHL DUP2 MSTORE PUSH1 0x20 PUSH1 0x4 DUP3 ADD MSTORE PUSH1 0x1C PUSH1 0x24 DUP3 ADD MSTORE PUSH32 0x506F6C6C206461746120697320616C72656164792064656C6574656400000000 PUSH1 0x44 DUP3 ADD MSTORE PUSH1 0x64 SWAP1 REVERT JUMPDEST PUSH1 0x40 MLOAD PUSH3 0x461BCD PUSH1 0xE5 SHL DUP2 MSTORE PUSH1 0x20 PUSH1 0x4 DUP3 ADD MSTORE PUSH1 0x21 PUSH1 0x24 DUP3 ADD MSTORE PUSH32 0x506F6C6C206D75737420626520656E646564206265666F726520636C65616E75 PUSH1 0x44 DUP3 ADD MSTORE PUSH1 0x7 PUSH1 0xFC SHL PUSH1 0x64 DUP3 ADD MSTORE PUSH1 0x84 SWAP1 REVERT JUMPDEST PUSH1 0x40 MLOAD PUSH3 0x461BCD PUSH1 0xE5 SHL DUP2 MSTORE PUSH1 0x20 PUSH1 0x4 DUP3 ADD MSTORE PUSH1 0x31 PUSH1 0x24 DUP3 ADD MSTORE PUSH32 0x4F6E6C79206F776E6572206F7220706F6C6C2063726561746F722063616E2063 PUSH1 0x44 DUP3 ADD MSTORE PUSH17 0x6C65616E20757020706F6C6C2064617461 PUSH1 0x78 SHL PUSH1 0x64 DUP3 ADD MSTORE PUSH1 0x84 SWAP1 REVERT JUMPDEST POP PUSH1 0xF DUP2 ADD SLOAD PUSH1 0x1 PUSH1 0x1 PUSH1 0xA0 SHL SUB AND CALLER EQ PUSH2 0x422B JUMP JUMPDEST CALLVALUE PUSH2 0x10B2 JUMPI PUSH0 CALLDATASIZE PUSH1 0x3 NOT ADD SLT PUSH2 0x10B2 JUMPI PUSH1 0x20 PUSH1 0x1 SLOAD PUSH1 0x40 MLOAD SWAP1 DUP2 MSTORE RETURN JUMPDEST CALLVALUE PUSH2 0x10B2 JUMPI PUSH1 0x20 CALLDATASIZE PUSH1 0x3 NOT ADD SLT PUSH2 0x10B2 JUMPI PUSH1 0x4 CALLDATALOAD PUSH2 0x43DE PUSH1 0xC SLOAD DUP3 LT PUSH2 0x4F7D JUMP JUMPDEST DUP1 PUSH0 MSTORE PUSH1 0x7 PUSH1 0x20 MSTORE PUSH2 0x43F7 PUSH1 0xFF PUSH1 0x40 PUSH0 KECCAK256 SLOAD AND ISZERO PUSH2 0x4FBF JUMP JUMPDEST PUSH0 MSTORE PUSH1 0x4 PUSH1 0x20 MSTORE PUSH1 0x40 PUSH0 KECCAK256 PUSH1 0xA DUP2 ADD SWAP1 DUP2 SLOAD SWAP1 PUSH1 0xFF DUP3 AND PUSH2 0x4540 JUMPI PUSH1 0xF DUP2 ADD SLOAD PUSH1 0x1 PUSH1 0x1 PUSH1 0xA0 SHL SUB DUP2 AND CALLER SUB PUSH2 0x44FB JUMPI PUSH1 0xA0 SHR PUSH1 0xFF AND DUP1 PUSH2 0x44EE JUMPI JUMPDEST DUP1 PUSH2 0x44DC JUMPI JUMPDEST PUSH2 0x4497 JUMPI PUSH1 0x9 ADD SLOAD TIMESTAMP GT PUSH2 0x4452 JUMPI PUSH1 0xFF NOT AND PUSH1 0x1 OR SWAP1 SSTORE STOP JUMPDEST PUSH1 0x40 MLOAD PUSH3 0x461BCD PUSH1 0xE5 SHL DUP2 MSTORE PUSH1 0x20 PUSH1 0x4 DUP3 ADD MSTORE PUSH1 0x19 PUSH1 0x24 DUP3 ADD MSTORE PUSH32 0x43616E6E6F7420726573756D652C20706F6C6C20656E64656400000000000000 PUSH1 0x44 DUP3 ADD MSTORE PUSH1 0x64 SWAP1 REVERT JUMPDEST PUSH1 0x40 MLOAD PUSH3 0x461BCD PUSH1 0xE5 SHL DUP2 MSTORE PUSH1 0x20 PUSH1 0x4 DUP3 ADD MSTORE PUSH1 0x1D PUSH1 0x24 DUP3 ADD MSTORE PUSH32 0x43616E6E6F7420726573756D652C207461726765742072656163686564000000 PUSH1 0x44 DUP3 ADD MSTORE PUSH1 0x64 SWAP1 REVERT JUMPDEST POP PUSH1 0xB DUP2 ADD SLOAD PUSH1 0xD DUP3 ADD SLOAD GT ISZERO PUSH2 0x4439 JUMP JUMPDEST POP PUSH1 0xD DUP2 ADD SLOAD ISZERO ISZERO PUSH2 0x4433 JUMP JUMPDEST PUSH1 0x40 MLOAD PUSH3 0x461BCD PUSH1 0xE5 SHL DUP2 MSTORE PUSH1 0x20 PUSH1 0x4 DUP3 ADD MSTORE PUSH1 0x17 PUSH1 0x24 DUP3 ADD MSTORE PUSH32 0x4F6E6C792063726561746F722063616E20726573756D65000000000000000000 PUSH1 0x44 DUP3 ADD MSTORE PUSH1 0x64 SWAP1 REVERT JUMPDEST PUSH1 0x40 MLOAD PUSH3 0x461BCD PUSH1 0xE5 SHL DUP2 MSTORE PUSH1 0x20 PUSH1 0x4 DUP3 ADD MSTORE PUSH1 0x16 PUSH1 0x24 DUP3 ADD MSTORE PUSH22 0x506F6C6C20697320616C726561647920616374697665 PUSH1 0x50 SHL PUSH1 0x44 DUP3 ADD MSTORE PUSH1 0x64 SWAP1 REVERT JUMPDEST CALLVALUE PUSH2 0x10B2 JUMPI PUSH1 0x20 CALLDATASIZE PUSH1 0x3 NOT ADD SLT PUSH2 0x10B2 JUMPI PUSH1 0x4 CALLDATALOAD PUSH2 0x45A7 PUSH1 0x1 DUP1 PUSH1 0xA0 SHL SUB PUSH1 0xD SLOAD AND CALLER EQ PUSH2 0x4F27 JUMP JUMPDEST PUSH1 0x64 DUP2 GT PUSH2 0x45E0 JUMPI PUSH1 0x20 DUP2 PUSH32 0x7944CC49DC8637E3CACB75B6261E778F93A87026E0357AE7C3B0E434324AFA35 SWAP3 PUSH1 0x3 SSTORE PUSH1 0x40 MLOAD SWAP1 DUP2 MSTORE LOG1 STOP JUMPDEST PUSH1 0x40 MLOAD PUSH3 0x461BCD PUSH1 0xE5 SHL DUP2 MSTORE PUSH1 0x20 PUSH1 0x4 DUP3 ADD MSTORE PUSH1 0x22 PUSH1 0x24 DUP3 ADD MSTORE PUSH32 0x436F6D6D697373696F6E20726174652063616E6E6F7420657863656564203130 PUSH1 0x44 DUP3 ADD MSTORE PUSH2 0x3025 PUSH1 0xF0 SHL PUSH1 0x64 DUP3 ADD MSTORE PUSH1 0x84 SWAP1 REVERT JUMPDEST CALLVALUE PUSH2 0x10B2 JUMPI PUSH1 0x20 CALLDATASIZE PUSH1 0x3 NOT ADD SLT PUSH2 0x10B2 JUMPI PUSH1 0x4 CALLDATALOAD PUSH0 MSTORE PUSH1 0x7 PUSH1 0x20 MSTORE PUSH1 0x20 PUSH1 0xFF PUSH1 0x40 PUSH0 KECCAK256 SLOAD AND PUSH1 0x40 MLOAD SWAP1 ISZERO ISZERO DUP2 MSTORE RETURN JUMPDEST CALLVALUE PUSH2 0x10B2 JUMPI PUSH1 0x20 CALLDATASIZE PUSH1 0x3 NOT ADD SLT PUSH2 0x10B2 JUMPI PUSH1 0x24 PUSH1 0x20 PUSH1 0x1 PUSH1 0x1 PUSH1 0xA0 SHL SUB PUSH2 0x4684 PUSH2 0x47B6 JUMP JUMPDEST AND PUSH1 0x40 MLOAD SWAP3 DUP4 DUP1 SWAP3 PUSH4 0x70A08231 PUSH1 0xE0 SHL DUP3 MSTORE ADDRESS PUSH1 0x4 DUP4 ADD MSTORE GAS STATICCALL DUP1 ISZERO PUSH2 0x2CE1 JUMPI PUSH0 SWAP1 PUSH2 0x46B6 JUMPI JUMPDEST PUSH1 0x20 SWAP1 PUSH1 0x40 MLOAD SWAP1 DUP2 MSTORE RETURN JUMPDEST POP PUSH1 0x20 DUP2 RETURNDATASIZE PUSH1 0x20 GT PUSH2 0x46E1 JUMPI JUMPDEST DUP2 PUSH2 0x46D0 PUSH1 0x20 SWAP4 DUP4 PUSH2 0x48BE JUMP JUMPDEST DUP2 ADD SUB SLT PUSH2 0x10B2 JUMPI PUSH1 0x20 SWAP1 MLOAD PUSH2 0x46AB JUMP JUMPDEST RETURNDATASIZE SWAP2 POP PUSH2 0x46C3 JUMP JUMPDEST CALLVALUE PUSH2 0x10B2 JUMPI PUSH1 0x20 CALLDATASIZE PUSH1 0x3 NOT ADD SLT PUSH2 0x10B2 JUMPI PUSH2 0x472F PUSH2 0x473D PUSH2 0x44A PUSH2 0x474B PUSH2 0x4716 PUSH2 0x4711 PUSH2 0x47B6 JUMP JUMPDEST PUSH2 0x4C98 JUMP JUMPDEST SWAP4 SWAP3 SWAP6 SWAP1 SWAP2 PUSH1 0x40 MLOAD SWAP8 DUP9 SWAP8 PUSH1 0x80 DUP10 MSTORE PUSH1 0x80 DUP10 ADD SWAP1 PUSH2 0x47F9 JUMP JUMPDEST SWAP1 DUP8 DUP3 SUB PUSH1 0x20 DUP10 ADD MSTORE PUSH2 0x47F9 JUMP JUMPDEST SWAP1 DUP6 DUP3 SUB PUSH1 0x40 DUP8 ADD MSTORE PUSH2 0x4850 JUMP JUMPDEST SWAP1 DUP4 DUP3 SUB PUSH1 0x60 DUP6 ADD MSTORE PUSH2 0x4850 JUMP JUMPDEST CALLVALUE PUSH2 0x10B2 JUMPI PUSH0 CALLDATASIZE PUSH1 0x3 NOT ADD SLT PUSH2 0x10B2 JUMPI PUSH2 0x44A PUSH2 0x19BE PUSH2 0x4B34 JUMP JUMPDEST PUSH1 0x20 PUSH1 0x40 DUP2 DUP4 ADD SWAP3 DUP3 DUP2 MSTORE DUP5 MLOAD DUP1 SWAP5 MSTORE ADD SWAP3 ADD SWAP1 PUSH0 JUMPDEST DUP2 DUP2 LT PUSH2 0x4797 JUMPI POP POP POP SWAP1 JUMP JUMPDEST DUP3 MLOAD PUSH1 0x1 PUSH1 0x1 PUSH1 0xA0 SHL SUB AND DUP5 MSTORE PUSH1 0x20 SWAP4 DUP5 ADD SWAP4 SWAP1 SWAP3 ADD SWAP2 PUSH1 0x1 ADD PUSH2 0x478A JUMP JUMPDEST PUSH1 0x4 CALLDATALOAD SWAP1 PUSH1 0x1 PUSH1 0x1 PUSH1 0xA0 SHL SUB DUP3 AND DUP3 SUB PUSH2 0x10B2 JUMPI JUMP JUMPDEST PUSH1 0x24 CALLDATALOAD SWAP1 PUSH1 0x1 PUSH1 0x1 PUSH1 0xA0 SHL SUB DUP3 AND DUP3 SUB PUSH2 0x10B2 JUMPI JUMP JUMPDEST PUSH2 0x104 CALLDATALOAD SWAP1 PUSH1 0x1 PUSH1 0x1 PUSH1 0xA0 SHL SUB DUP3 AND DUP3 SUB PUSH2 0x10B2 JUMPI JUMP JUMPDEST SWAP1 PUSH1 0x20 DUP1 DUP4 MLOAD SWAP3 DUP4 DUP2 MSTORE ADD SWAP3 ADD SWAP1 PUSH0 JUMPDEST DUP2 DUP2 LT PUSH2 0x4816 JUMPI POP POP POP SWAP1 JUMP JUMPDEST DUP3 MLOAD DUP5 MSTORE PUSH1 0x20 SWAP4 DUP5 ADD SWAP4 SWAP1 SWAP3 ADD SWAP2 PUSH1 0x1 ADD PUSH2 0x4809 JUMP JUMPDEST DUP1 MLOAD DUP1 DUP4 MSTORE PUSH1 0x20 SWAP3 SWAP2 DUP2 SWAP1 DUP5 ADD DUP5 DUP5 ADD MCOPY PUSH0 DUP3 DUP3 ADD DUP5 ADD MSTORE PUSH1 0x1F ADD PUSH1 0x1F NOT AND ADD ADD SWAP1 JUMP JUMPDEST SWAP1 DUP1 PUSH1 0x20 DUP4 MLOAD SWAP2 DUP3 DUP2 MSTORE ADD SWAP2 PUSH1 0x20 DUP1 DUP4 PUSH1 0x5 SHL DUP4 ADD ADD SWAP5 ADD SWAP3 PUSH0 SWAP2 JUMPDEST DUP4 DUP4 LT PUSH2 0x487B JUMPI POP POP POP POP POP SWAP1 JUMP JUMPDEST SWAP1 SWAP2 SWAP3 SWAP4 SWAP5 PUSH1 0x20 DUP1 PUSH2 0x4899 PUSH1 0x1 SWAP4 PUSH1 0x1F NOT DUP7 DUP3 SUB ADD DUP8 MSTORE DUP10 MLOAD PUSH2 0x482C JUMP JUMPDEST SWAP8 ADD SWAP4 ADD SWAP4 ADD SWAP2 SWAP4 SWAP3 SWAP1 PUSH2 0x486C JUMP JUMPDEST PUSH1 0x40 SWAP1 PUSH1 0x3 NOT ADD SLT PUSH2 0x10B2 JUMPI PUSH1 0x4 CALLDATALOAD SWAP1 PUSH1 0x24 CALLDATALOAD SWAP1 JUMP JUMPDEST SWAP1 PUSH1 0x1F DUP1 NOT SWAP2 ADD AND DUP2 ADD SWAP1 DUP2 LT PUSH1 0x1 PUSH1 0x1 PUSH1 0x40 SHL SUB DUP3 GT OR PUSH2 0x3C4C JUMPI PUSH1 0x40 MSTORE JUMP JUMPDEST PUSH1 0x1 PUSH1 0x1 PUSH1 0x40 SHL SUB DUP2 GT PUSH2 0x3C4C JUMPI PUSH1 0x5 SHL PUSH1 0x20 ADD SWAP1 JUMP JUMPDEST SWAP1 PUSH1 0x2 DUP3 LT ISZERO PUSH2 0x2DB9 JUMPI MSTORE JUMP JUMPDEST SWAP1 PUSH1 0x6 DUP3 LT ISZERO PUSH2 0x2DB9 JUMPI MSTORE JUMP JUMPDEST SWAP1 PUSH1 0x1 DUP3 DUP2 SHR SWAP3 AND DUP1 ISZERO PUSH2 0x493E JUMPI JUMPDEST PUSH1 0x20 DUP4 LT EQ PUSH2 0x492A JUMPI JUMP JUMPDEST PUSH4 0x4E487B71 PUSH1 0xE0 SHL PUSH0 MSTORE PUSH1 0x22 PUSH1 0x4 MSTORE PUSH1 0x24 PUSH0 REVERT JUMPDEST SWAP2 PUSH1 0x7F AND SWAP2 PUSH2 0x491F JUMP JUMPDEST SWAP1 PUSH1 0x40 MLOAD SWAP2 DUP3 PUSH0 DUP3 SLOAD SWAP3 PUSH2 0x495B DUP5 PUSH2 0x4910 JUMP JUMPDEST DUP1 DUP5 MSTORE SWAP4 PUSH1 0x1 DUP2 AND SWAP1 DUP2 ISZERO PUSH2 0x49C6 JUMPI POP PUSH1 0x1 EQ PUSH2 0x4982 JUMPI JUMPDEST POP PUSH2 0x4980 SWAP3 POP SUB DUP4 PUSH2 0x48BE JUMP JUMPDEST JUMP JUMPDEST SWAP1 POP PUSH0 SWAP3 SWAP2 SWAP3 MSTORE PUSH1 0x20 PUSH0 KECCAK256 SWAP1 PUSH0 SWAP2 JUMPDEST DUP2 DUP4 LT PUSH2 0x49AA JUMPI POP POP SWAP1 PUSH1 0x20 PUSH2 0x4980 SWAP3 DUP3 ADD ADD PUSH0 PUSH2 0x4973 JUMP JUMPDEST PUSH1 0x20 SWAP2 SWAP4 POP DUP1 PUSH1 0x1 SWAP2 SLOAD DUP4 DUP6 DUP10 ADD ADD MSTORE ADD SWAP2 ADD SWAP1 SWAP2 DUP5 SWAP3 PUSH2 0x4991 JUMP JUMPDEST SWAP1 POP PUSH1 0x20 SWAP3 POP PUSH2 0x4980 SWAP5 SWAP2 POP PUSH1 0xFF NOT AND DUP3 DUP5 ADD MSTORE ISZERO ISZERO PUSH1 0x5 SHL DUP3 ADD ADD PUSH0 PUSH2 0x4973 JUMP JUMPDEST PUSH1 0x1 PUSH1 0x1 PUSH1 0x40 SHL SUB DUP2 GT PUSH2 0x3C4C JUMPI PUSH1 0x1F ADD PUSH1 0x1F NOT AND PUSH1 0x20 ADD SWAP1 JUMP JUMPDEST DUP2 PUSH1 0x1F DUP3 ADD SLT ISZERO PUSH2 0x10B2 JUMPI DUP1 CALLDATALOAD SWAP1 PUSH2 0x4A1A DUP3 PUSH2 0x49E8 JUMP JUMPDEST SWAP3 PUSH2 0x4A28 PUSH1 0x40 MLOAD SWAP5 DUP6 PUSH2 0x48BE JUMP JUMPDEST DUP3 DUP5 MSTORE PUSH1 0x20 DUP4 DUP4 ADD ADD GT PUSH2 0x10B2 JUMPI DUP2 PUSH0 SWAP3 PUSH1 0x20 DUP1 SWAP4 ADD DUP4 DUP7 ADD CALLDATACOPY DUP4 ADD ADD MSTORE SWAP1 JUMP JUMPDEST SWAP1 DUP1 PUSH1 0x1F DUP4 ADD SLT ISZERO PUSH2 0x10B2 JUMPI DUP2 CALLDATALOAD PUSH2 0x4A60 DUP2 PUSH2 0x48DF JUMP JUMPDEST SWAP3 PUSH2 0x4A6E PUSH1 0x40 MLOAD SWAP5 DUP6 PUSH2 0x48BE JUMP JUMPDEST DUP2 DUP5 MSTORE PUSH1 0x20 DUP1 DUP6 ADD SWAP3 PUSH1 0x5 SHL DUP3 ADD ADD SWAP2 DUP4 DUP4 GT PUSH2 0x10B2 JUMPI PUSH1 0x20 DUP3 ADD SWAP1 JUMPDEST DUP4 DUP3 LT PUSH2 0x4A9A JUMPI POP POP POP POP POP SWAP1 JUMP JUMPDEST DUP2 CALLDATALOAD PUSH1 0x1 PUSH1 0x1 PUSH1 0x40 SHL SUB DUP2 GT PUSH2 0x10B2 JUMPI PUSH1 0x20 SWAP2 PUSH2 0x4ABC DUP8 DUP5 DUP1 SWAP5 DUP9 ADD ADD PUSH2 0x4A03 JUMP JUMPDEST DUP2 MSTORE ADD SWAP2 ADD SWAP1 PUSH2 0x4A8B JUMP JUMPDEST PUSH1 0x64 CALLDATALOAD SWAP1 PUSH1 0x1 PUSH1 0x1 PUSH1 0x80 SHL SUB DUP3 AND DUP3 SUB PUSH2 0x10B2 JUMPI JUMP JUMPDEST PUSH1 0x84 CALLDATALOAD SWAP1 PUSH1 0x1 PUSH1 0x1 PUSH1 0x80 SHL SUB DUP3 AND DUP3 SUB PUSH2 0x10B2 JUMPI JUMP JUMPDEST PUSH1 0x10 SLOAD DUP2 LT ISZERO PUSH2 0x4B0B JUMPI PUSH1 0x10 PUSH0 MSTORE PUSH1 0x20 PUSH0 KECCAK256 ADD SWAP1 PUSH0 SWAP1 JUMP JUMPDEST PUSH4 0x4E487B71 PUSH1 0xE0 SHL PUSH0 MSTORE PUSH1 0x32 PUSH1 0x4 MSTORE PUSH1 0x24 PUSH0 REVERT JUMPDEST DUP1 SLOAD DUP3 LT ISZERO PUSH2 0x4B0B JUMPI PUSH0 MSTORE PUSH1 0x20 PUSH0 KECCAK256 ADD SWAP1 PUSH0 SWAP1 JUMP JUMPDEST PUSH1 0x40 MLOAD SWAP1 PUSH1 0x10 SLOAD DUP1 DUP4 MSTORE DUP3 PUSH1 0x20 DUP2 ADD PUSH1 0x10 PUSH0 MSTORE PUSH1 0x20 PUSH0 KECCAK256 SWAP3 PUSH0 JUMPDEST DUP2 DUP2 LT PUSH2 0x4B63 JUMPI POP POP PUSH2 0x4980 SWAP3 POP SUB DUP4 PUSH2 0x48BE JUMP JUMPDEST DUP5 SLOAD PUSH1 0x1 PUSH1 0x1 PUSH1 0xA0 SHL SUB AND DUP4 MSTORE PUSH1 0x1 SWAP5 DUP6 ADD SWAP5 DUP8 SWAP5 POP PUSH1 0x20 SWAP1 SWAP4 ADD SWAP3 ADD PUSH2 0x4B4E JUMP JUMPDEST SWAP1 PUSH1 0x40 MLOAD SWAP2 DUP3 DUP2 SLOAD SWAP2 DUP3 DUP3 MSTORE PUSH1 0x20 DUP3 ADD SWAP1 PUSH0 MSTORE PUSH1 0x20 PUSH0 KECCAK256 SWAP3 PUSH0 JUMPDEST DUP2 DUP2 LT PUSH2 0x4BB4 JUMPI POP POP PUSH2 0x4980 SWAP3 POP SUB DUP4 PUSH2 0x48BE JUMP JUMPDEST DUP5 SLOAD PUSH1 0x1 PUSH1 0x1 PUSH1 0xA0 SHL SUB AND DUP4 MSTORE PUSH1 0x1 SWAP5 DUP6 ADD SWAP5 DUP8 SWAP5 POP PUSH1 0x20 SWAP1 SWAP4 ADD SWAP3 ADD PUSH2 0x4B9F JUMP JUMPDEST SWAP1 PUSH2 0x4BE0 DUP3 PUSH2 0x48DF JUMP JUMPDEST PUSH2 0x4BED PUSH1 0x40 MLOAD SWAP2 DUP3 PUSH2 0x48BE JUMP JUMPDEST DUP3 DUP2 MSTORE DUP1 SWAP3 PUSH2 0x4BFE PUSH1 0x1F NOT SWAP2 PUSH2 0x48DF JUMP JUMPDEST ADD SWAP1 PUSH1 0x20 CALLDATASIZE SWAP2 ADD CALLDATACOPY JUMP JUMPDEST PUSH1 0x40 MLOAD SWAP1 PUSH2 0x4C17 PUSH1 0x20 DUP4 PUSH2 0x48BE JUMP JUMPDEST PUSH0 DUP1 DUP4 MSTORE DUP3 DUP2 JUMPDEST DUP3 DUP2 LT PUSH2 0x4C2A JUMPI POP POP POP JUMP JUMPDEST DUP1 PUSH1 0x60 PUSH1 0x20 DUP1 SWAP4 DUP6 ADD ADD MSTORE ADD PUSH2 0x4C1E JUMP JUMPDEST SWAP1 PUSH2 0x4C45 DUP3 PUSH2 0x48DF JUMP JUMPDEST PUSH2 0x4C52 PUSH1 0x40 MLOAD SWAP2 DUP3 PUSH2 0x48BE JUMP JUMPDEST DUP3 DUP2 MSTORE DUP1 SWAP3 PUSH2 0x4C63 PUSH1 0x1F NOT SWAP2 PUSH2 0x48DF JUMP JUMPDEST ADD SWAP1 PUSH0 JUMPDEST DUP3 DUP2 LT PUSH2 0x4C73 JUMPI POP POP POP JUMP JUMPDEST DUP1 PUSH1 0x60 PUSH1 0x20 DUP1 SWAP4 DUP6 ADD ADD MSTORE ADD PUSH2 0x4C67 JUMP JUMPDEST DUP1 MLOAD DUP3 LT ISZERO PUSH2 0x4B0B JUMPI PUSH1 0x20 SWAP2 PUSH1 0x5 SHL ADD ADD SWAP1 JUMP JUMPDEST PUSH1 0x1 DUP1 PUSH1 0xA0 SHL SUB DUP2 AND PUSH0 MSTORE PUSH1 0x8 PUSH1 0x20 MSTORE PUSH1 0x40 PUSH0 KECCAK256 PUSH1 0x40 MLOAD DUP1 DUP3 PUSH1 0x20 DUP3 SWAP5 SLOAD SWAP4 DUP5 DUP2 MSTORE ADD SWAP1 PUSH0 MSTORE PUSH1 0x20 PUSH0 KECCAK256 SWAP3 PUSH0 JUMPDEST DUP2 DUP2 LT PUSH2 0x4F0E JUMPI POP POP PUSH2 0x4CDA SWAP3 POP SUB DUP3 PUSH2 0x48BE JUMP JUMPDEST DUP1 MLOAD SWAP3 DUP4 ISZERO PUSH2 0x4EC5 JUMPI PUSH2 0x4CEC DUP5 PUSH2 0x4BD6 JUMP JUMPDEST PUSH2 0x4CF5 DUP6 PUSH2 0x4BD6 JUMP JUMPDEST SWAP5 PUSH2 0x4CFF DUP2 PUSH2 0x4C3B JUMP JUMPDEST SWAP5 PUSH2 0x4D09 DUP3 PUSH2 0x4C3B JUMP JUMPDEST SWAP5 PUSH0 JUMPDEST DUP4 DUP2 LT PUSH2 0x4D1D JUMPI POP POP POP POP SWAP4 SWAP3 SWAP2 SWAP1 JUMP JUMPDEST DUP1 DUP10 DUP2 PUSH2 0x4D2C PUSH1 0x1 SWAP5 DUP7 PUSH2 0x4C84 JUMP JUMPDEST MLOAD DUP1 PUSH0 MSTORE PUSH1 0x7 PUSH1 0x20 MSTORE DUP9 PUSH1 0xFF PUSH1 0x40 PUSH0 KECCAK256 SLOAD AND DUP1 ISZERO PUSH2 0x4EB9 JUMPI JUMPDEST PUSH2 0x4E2B JUMPI PUSH2 0x4D85 DUP4 PUSH1 0x2 SWAP5 SWAP6 DUP5 PUSH0 MSTORE PUSH1 0x4 PUSH1 0x20 MSTORE PUSH1 0x40 PUSH0 KECCAK256 SWAP5 DUP10 DUP1 PUSH1 0xA0 SHL SUB DUP13 AND PUSH0 MSTORE PUSH1 0x6 DUP7 ADD PUSH1 0x20 MSTORE PUSH2 0x4D7F PUSH1 0x40 PUSH0 KECCAK256 SLOAD SWAP9 DUP10 SWAP7 PUSH2 0x4C84 JUMP JUMPDEST MSTORE PUSH2 0x4C84 JUMP JUMPDEST MSTORE DUP12 PUSH2 0x4D9A DUP6 PUSH2 0x4D94 DUP5 PUSH2 0x4948 JUMP JUMPDEST SWAP3 PUSH2 0x4C84 JUMP JUMPDEST MSTORE PUSH2 0x4DA5 DUP5 DUP14 PUSH2 0x4C84 JUMP JUMPDEST POP ADD DUP1 SLOAD DUP3 LT ISZERO PUSH2 0x4DE0 JUMPI PUSH2 0x4DC3 SWAP2 PUSH2 0x4DBD SWAP2 PUSH2 0x4B1F JUMP JUMPDEST POP PUSH2 0x4948 JUMP JUMPDEST PUSH2 0x4DCD DUP3 DUP11 PUSH2 0x4C84 JUMP JUMPDEST MSTORE PUSH2 0x4DD8 DUP2 DUP10 PUSH2 0x4C84 JUMP JUMPDEST POP JUMPDEST ADD PUSH2 0x4D0C JUMP JUMPDEST POP POP PUSH1 0x40 PUSH2 0x4DF0 DUP2 MLOAD SWAP2 DUP3 PUSH2 0x48BE JUMP JUMPDEST PUSH1 0x13 DUP2 MSTORE PUSH19 0x42696C696E6D6579656E205365C3A7656E656B PUSH1 0x68 SHL PUSH1 0x20 DUP3 ADD MSTORE PUSH2 0x4E1A DUP3 DUP11 PUSH2 0x4C84 JUMP JUMPDEST MSTORE PUSH2 0x4E25 DUP2 DUP10 PUSH2 0x4C84 JUMP JUMPDEST POP PUSH2 0x4DDA JUMP JUMPDEST PUSH2 0x4E37 SWAP3 SWAP2 SWAP4 POP PUSH2 0x4C84 JUMP JUMPDEST MSTORE PUSH0 PUSH2 0x4E43 DUP3 DUP13 PUSH2 0x4C84 JUMP JUMPDEST MSTORE PUSH1 0x40 DUP1 MLOAD PUSH2 0x4E52 DUP3 DUP3 PUSH2 0x48BE JUMP JUMPDEST PUSH1 0xF DUP2 MSTORE PUSH15 0x14DA5B1A5B9B5A7167C8105B9AD95D PUSH1 0x8A SHL PUSH1 0x20 DUP3 ADD MSTORE PUSH2 0x4E78 DUP4 DUP13 PUSH2 0x4C84 JUMP JUMPDEST MSTORE PUSH2 0x4E83 DUP3 DUP12 PUSH2 0x4C84 JUMP JUMPDEST POP PUSH2 0x4E90 DUP2 MLOAD SWAP2 DUP3 PUSH2 0x48BE JUMP JUMPDEST PUSH1 0x12 DUP2 MSTORE PUSH18 0x53696C696E6D69C59F205365C3A7656E656B PUSH1 0x70 SHL PUSH1 0x20 DUP3 ADD MSTORE PUSH2 0x4E1A DUP3 DUP11 PUSH2 0x4C84 JUMP JUMPDEST POP PUSH1 0xC SLOAD DUP3 LT ISZERO PUSH2 0x4D45 JUMP JUMPDEST SWAP3 POP POP POP PUSH1 0x20 SWAP1 PUSH1 0x40 MLOAD PUSH2 0x4ED9 DUP4 DUP3 PUSH2 0x48BE JUMP JUMPDEST PUSH0 DUP2 MSTORE PUSH0 CALLDATASIZE DUP2 CALLDATACOPY PUSH1 0x40 MLOAD SWAP3 PUSH2 0x4EEE DUP2 DUP6 PUSH2 0x48BE JUMP JUMPDEST PUSH0 DUP5 MSTORE POP PUSH0 CALLDATASIZE DUP2 CALLDATACOPY PUSH2 0x4EFE PUSH2 0x4C08 JUMP JUMPDEST SWAP2 PUSH2 0x4F07 PUSH2 0x4C08 JUMP JUMPDEST SWAP2 SWAP4 SWAP3 SWAP2 SWAP1 JUMP JUMPDEST DUP5 SLOAD DUP4 MSTORE PUSH1 0x1 SWAP5 DUP6 ADD SWAP5 DUP7 SWAP5 POP PUSH1 0x20 SWAP1 SWAP4 ADD SWAP3 ADD PUSH2 0x4CC5 JUMP JUMPDEST ISZERO PUSH2 0x4F2E JUMPI JUMP JUMPDEST PUSH1 0x40 MLOAD PUSH3 0x461BCD PUSH1 0xE5 SHL DUP2 MSTORE PUSH1 0x20 PUSH1 0x4 DUP3 ADD MSTORE PUSH1 0x21 PUSH1 0x24 DUP3 ADD MSTORE PUSH32 0x4F6E6C79206F776E65722063616E2063616C6C20746869732066756E6374696F PUSH1 0x44 DUP3 ADD MSTORE PUSH1 0x37 PUSH1 0xF9 SHL PUSH1 0x64 DUP3 ADD MSTORE PUSH1 0x84 SWAP1 REVERT JUMPDEST ISZERO PUSH2 0x4F84 JUMPI JUMP JUMPDEST PUSH1 0x40 MLOAD PUSH3 0x461BCD PUSH1 0xE5 SHL DUP2 MSTORE PUSH1 0x20 PUSH1 0x4 DUP3 ADD MSTORE PUSH1 0x13 PUSH1 0x24 DUP3 ADD MSTORE PUSH19 0x141BDB1B08191BD95CC81B9BDD08195E1A5CDD PUSH1 0x6A SHL PUSH1 0x44 DUP3 ADD MSTORE PUSH1 0x64 SWAP1 REVERT JUMPDEST ISZERO PUSH2 0x4FC6 JUMPI JUMP JUMPDEST PUSH1 0x40 MLOAD PUSH3 0x461BCD PUSH1 0xE5 SHL DUP2 MSTORE PUSH1 0x20 PUSH1 0x4 DUP3 ADD MSTORE PUSH1 0x1A PUSH1 0x24 DUP3 ADD MSTORE PUSH32 0x506F6C6C206461746120686173206265656E2064656C65746564000000000000 PUSH1 0x44 DUP3 ADD MSTORE PUSH1 0x64 SWAP1 REVERT JUMPDEST DUP2 DUP2 MUL SWAP3 SWAP2 DUP2 ISZERO SWAP2 DUP5 DIV EQ OR ISZERO PUSH2 0x3191 JUMPI JUMP JUMPDEST DUP2 DUP2 LT PUSH2 0x5029 JUMPI POP POP JUMP JUMPDEST PUSH0 DUP2 SSTORE PUSH1 0x1 ADD PUSH2 0x501E JUMP JUMPDEST DUP1 SLOAD SWAP1 PUSH0 DUP2 SSTORE DUP2 PUSH2 0x5043 JUMPI POP POP JUMP JUMPDEST PUSH0 MSTORE PUSH1 0x20 PUSH0 KECCAK256 SWAP1 DUP2 ADD SWAP1 JUMPDEST DUP2 DUP2 LT PUSH2 0x5059 JUMPI POP POP JUMP JUMPDEST DUP1 PUSH2 0x5066 PUSH1 0x1 SWAP3 SLOAD PUSH2 0x4910 JUMP JUMPDEST DUP1 PUSH2 0x5073 JUMPI JUMPDEST POP ADD PUSH2 0x504E JUMP JUMPDEST PUSH1 0x1F DUP2 GT DUP4 EQ PUSH2 0x5088 JUMPI POP PUSH0 DUP2 SSTORE JUMPDEST PUSH0 PUSH2 0x506C JUMP JUMPDEST PUSH2 0x50A4 SWAP1 DUP3 PUSH0 MSTORE DUP4 PUSH1 0x1F PUSH1 0x20 PUSH0 KECCAK256 SWAP3 ADD PUSH1 0x5 SHR DUP3 ADD SWAP2 ADD PUSH2 0x501E JUMP JUMPDEST DUP1 PUSH0 MSTORE PUSH0 PUSH1 0x20 DUP2 KECCAK256 DUP2 DUP4 SSTORE SSTORE PUSH2 0x5082 JUMP JUMPDEST DUP1 SLOAD PUSH0 DUP3 SSTORE DUP1 PUSH2 0x50C3 JUMPI POP POP JUMP JUMPDEST PUSH2 0x4980 SWAP2 PUSH0 MSTORE PUSH1 0x20 PUSH0 KECCAK256 SWAP1 DUP2 ADD SWAP1 PUSH2 0x501E JUMP JUMPDEST ISZERO PUSH2 0x50DD JUMPI JUMP JUMPDEST PUSH1 0x40 MLOAD PUSH3 0x461BCD PUSH1 0xE5 SHL DUP2 MSTORE PUSH1 0x20 PUSH1 0x4 DUP3 ADD MSTORE PUSH1 0x15 PUSH1 0x24 DUP3 ADD MSTORE PUSH21 0x13DC1D1A5BDB88191BD95CC81B9BDD08195E1A5CDD PUSH1 0x5A SHL PUSH1 0x44 DUP3 ADD MSTORE PUSH1 0x64 SWAP1 REVERT JUMPDEST ISZERO PUSH2 0x5121 JUMPI JUMP JUMPDEST PUSH1 0x40 MLOAD PUSH3 0x461BCD PUSH1 0xE5 SHL DUP2 MSTORE PUSH1 0x20 PUSH1 0x4 DUP3 ADD MSTORE PUSH1 0x1F PUSH1 0x24 DUP3 ADD MSTORE PUSH32 0x5265656E7472616E637947756172643A207265656E7472616E742063616C6C00 PUSH1 0x44 DUP3 ADD MSTORE PUSH1 0x64 SWAP1 REVERT JUMPDEST PUSH1 0x40 MLOAD SWAP1 PUSH2 0x5175 PUSH1 0x40 DUP4 PUSH2 0x48BE JUMP JUMPDEST PUSH1 0xA DUP3 MSTORE PUSH10 0x2629A81B902A37B5B2B7 PUSH1 0xB1 SHL PUSH1 0x20 DUP4 ADD MSTORE JUMP JUMPDEST PUSH1 0x40 MLOAD SWAP1 PUSH2 0x519D PUSH1 0x40 DUP4 PUSH2 0x48BE JUMP JUMPDEST PUSH1 0x4 DUP3 MSTORE PUSH4 0x4C535037 PUSH1 0xE0 SHL PUSH1 0x20 DUP4 ADD MSTORE JUMP JUMPDEST PUSH1 0x20 DUP2 DUP4 SUB SLT PUSH2 0x10B2 JUMPI DUP1 MLOAD SWAP1 PUSH1 0x1 PUSH1 0x1 PUSH1 0x40 SHL SUB DUP3 GT PUSH2 0x10B2 JUMPI ADD DUP2 PUSH1 0x1F DUP3 ADD SLT ISZERO PUSH2 0x10B2 JUMPI DUP1 MLOAD SWAP1 PUSH2 0x51E3 DUP3 PUSH2 0x49E8 JUMP JUMPDEST SWAP3 PUSH2 0x51F1 PUSH1 0x40 MLOAD SWAP5 DUP6 PUSH2 0x48BE JUMP JUMPDEST DUP3 DUP5 MSTORE PUSH1 0x20 DUP4 DUP4 ADD ADD GT PUSH2 0x10B2 JUMPI DUP2 PUSH0 SWAP3 PUSH1 0x20 DUP1 SWAP4 ADD DUP4 DUP7 ADD MCOPY DUP4 ADD ADD MSTORE SWAP1 JUMP JUMPDEST PUSH1 0xA SLOAD SWAP1 PUSH1 0x1 PUSH1 0x40 SHL DUP3 LT ISZERO PUSH2 0x3C4C JUMPI PUSH2 0x3998 DUP3 PUSH1 0x1 PUSH2 0x4980 SWAP5 ADD PUSH1 0xA SSTORE PUSH1 0xA PUSH2 0x4B1F JUMP JUMPDEST SWAP2 SWAP1 DUP3 SUB SWAP2 DUP3 GT PUSH2 0x3191 JUMPI JUMP JUMPDEST ISZERO PUSH2 0x524B JUMPI JUMP JUMPDEST PUSH1 0x40 MLOAD PUSH3 0x461BCD PUSH1 0xE5 SHL DUP2 MSTORE PUSH1 0x20 PUSH1 0x4 DUP3 ADD MSTORE PUSH1 0x1D PUSH1 0x24 DUP3 ADD MSTORE PUSH32 0x506F6C6C206461746120686173206265656E20636C65616E6564207570000000 PUSH1 0x44 DUP3 ADD MSTORE PUSH1 0x64 SWAP1 REVERT JUMPDEST DUP1 ISZERO PUSH2 0x3191 JUMPI PUSH0 NOT ADD SWAP1 JUMP JUMPDEST PUSH0 NOT DUP2 EQ PUSH2 0x3191 JUMPI PUSH1 0x1 ADD SWAP1 JUMP JUMPDEST SWAP1 DUP2 PUSH0 MSTORE PUSH1 0x4 PUSH1 0x20 MSTORE PUSH1 0x40 PUSH0 KECCAK256 SWAP2 PUSH0 MSTORE PUSH1 0x7 PUSH1 0x20 MSTORE PUSH1 0xFF PUSH1 0x40 PUSH0 KECCAK256 SLOAD AND PUSH2 0x5354 JUMPI PUSH1 0x8 DUP3 ADD SLOAD SWAP1 PUSH1 0x9 DUP4 ADD SLOAD SWAP1 PUSH1 0xFF PUSH1 0xA DUP6 ADD SLOAD AND SWAP1 PUSH1 0xB DUP6 ADD SLOAD SWAP1 PUSH1 0xD DUP7 ADD SLOAD SWAP1 PUSH1 0xC DUP8 ADD SLOAD SWAP1 DUP8 PUSH1 0xF DUP2 ADD SLOAD PUSH1 0x10 DUP3 ADD SLOAD SWAP3 PUSH1 0x1 DUP1 PUSH1 0xA0 SHL SUB PUSH1 0x11 DUP5 ADD SLOAD AND SWAP4 PUSH2 0x5326 PUSH1 0x1 PUSH2 0x531F PUSH1 0x12 DUP8 ADD SLOAD SWAP7 PUSH2 0x4948 JUMP JUMPDEST SWAP14 ADD PUSH2 0x4948 JUMP JUMPDEST SWAP11 SWAP10 SWAP9 SWAP8 SWAP7 SWAP6 SWAP5 PUSH1 0x1 PUSH1 0x1 PUSH1 0xA0 SHL SUB DUP5 DUP2 AND SWAP6 PUSH1 0xFF PUSH1 0xA0 DUP8 DUP2 SHR DUP3 AND SWAP8 PUSH1 0xA8 SHR DUP3 AND SWAP7 SWAP4 DUP7 AND SWAP6 SWAP1 SHR AND SWAP3 SWAP2 JUMP JUMPDEST SWAP1 POP PUSH1 0x40 MLOAD PUSH2 0x5364 PUSH1 0x20 DUP3 PUSH2 0x48BE JUMP JUMPDEST PUSH0 DUP2 MSTORE SWAP1 PUSH1 0x40 MLOAD PUSH2 0x5376 PUSH1 0x20 DUP3 PUSH2 0x48BE JUMP JUMPDEST PUSH0 DUP2 MSTORE SWAP1 PUSH0 SWAP1 PUSH0 SWAP1 PUSH0 SWAP1 PUSH0 SWAP1 PUSH0 SWAP1 PUSH0 SWAP1 PUSH0 SWAP1 PUSH0 SWAP1 PUSH0 SWAP1 PUSH0 SWAP1 PUSH0 SWAP1 PUSH0 SWAP1 PUSH0 SWAP1 JUMP JUMPDEST ISZERO PUSH2 0x539D JUMPI JUMP JUMPDEST PUSH1 0x40 MLOAD PUSH3 0x461BCD PUSH1 0xE5 SHL DUP2 MSTORE PUSH1 0x20 PUSH1 0x4 DUP3 ADD MSTORE PUSH1 0x12 PUSH1 0x24 DUP3 ADD MSTORE PUSH18 0x506F6C6C206973206E6F7420616374697665 PUSH1 0x70 SHL PUSH1 0x44 DUP3 ADD MSTORE PUSH1 0x64 SWAP1 REVERT JUMPDEST SWAP2 SWAP1 DUP3 ADD DUP1 SWAP3 GT PUSH2 0x3191 JUMPI JUMP JUMPDEST PUSH2 0x53F1 PUSH1 0xC SLOAD DUP3 LT PUSH2 0x4F7D JUMP JUMPDEST DUP1 PUSH0 MSTORE PUSH1 0x7 PUSH1 0x20 MSTORE PUSH2 0x540A PUSH1 0xFF PUSH1 0x40 PUSH0 KECCAK256 SLOAD AND ISZERO PUSH2 0x4FBF JUMP JUMPDEST DUP1 PUSH0 MSTORE PUSH1 0x4 PUSH1 0x20 MSTORE PUSH1 0x4 PUSH1 0x40 PUSH0 KECCAK256 ADD PUSH1 0x1 DUP1 PUSH1 0xA0 SHL SUB DUP4 AND PUSH0 MSTORE PUSH1 0x20 MSTORE PUSH1 0xFF PUSH1 0x40 PUSH0 KECCAK256 SLOAD AND ISZERO PUSH2 0x5458 JUMPI PUSH0 MSTORE PUSH1 0x4 PUSH1 0x20 MSTORE PUSH1 0x6 PUSH1 0x40 PUSH0 KECCAK256 ADD SWAP1 PUSH1 0x1 DUP1 PUSH1 0xA0 SHL SUB AND PUSH0 MSTORE PUSH1 0x20 MSTORE PUSH1 0x40 PUSH0 KECCAK256 SLOAD SWAP1 JUMP JUMPDEST PUSH1 0x40 MLOAD PUSH3 0x461BCD PUSH1 0xE5 SHL DUP2 MSTORE PUSH1 0x20 PUSH1 0x4 DUP3 ADD MSTORE PUSH1 0x1F PUSH1 0x24 DUP3 ADD MSTORE PUSH32 0x5573657220686173206E6F7420766F74656420696E207468697320706F6C6C00 PUSH1 0x44 DUP3 ADD MSTORE PUSH1 0x64 SWAP1 REVERT JUMPDEST PUSH1 0x1 PUSH1 0x1 PUSH1 0xA0 SHL SUB SWAP2 DUP3 AND DUP2 MSTORE SWAP2 AND PUSH1 0x20 DUP3 ADD MSTORE PUSH1 0x40 DUP2 ADD SWAP2 SWAP1 SWAP2 MSTORE PUSH0 PUSH1 0x60 DUP3 ADD DUP2 SWAP1 MSTORE PUSH1 0xA0 PUSH1 0x80 DUP4 ADD DUP2 SWAP1 MSTORE DUP3 ADD MSTORE PUSH1 0xC0 ADD SWAP1 JUMP JUMPDEST ISZERO PUSH2 0x54DA JUMPI JUMP JUMPDEST PUSH1 0x40 MLOAD PUSH3 0x461BCD PUSH1 0xE5 SHL DUP2 MSTORE PUSH1 0x20 PUSH1 0x4 DUP3 ADD MSTORE PUSH1 0x25 PUSH1 0x24 DUP3 ADD MSTORE PUSH32 0x4120706F6C6C206D7573742068617665206174206C656173742074776F206F70 PUSH1 0x44 DUP3 ADD MSTORE PUSH5 0x74696F6E73 PUSH1 0xD8 SHL PUSH1 0x64 DUP3 ADD MSTORE PUSH1 0x84 SWAP1 REVERT JUMPDEST ISZERO PUSH2 0x5534 JUMPI JUMP JUMPDEST PUSH1 0x40 MLOAD PUSH3 0x461BCD PUSH1 0xE5 SHL DUP2 MSTORE PUSH1 0x20 PUSH1 0x4 DUP3 ADD MSTORE PUSH1 0x1F PUSH1 0x24 DUP3 ADD MSTORE PUSH32 0x4475726174696F6E206D7573742062652067726561746572207468616E203000 PUSH1 0x44 DUP3 ADD MSTORE PUSH1 0x64 SWAP1 REVERT JUMPDEST SWAP2 SWAP1 SWAP2 DUP3 MLOAD PUSH1 0x1 PUSH1 0x1 PUSH1 0x40 SHL SUB DUP2 GT PUSH2 0x3C4C JUMPI PUSH2 0x5596 DUP3 SLOAD PUSH2 0x4910 JUMP JUMPDEST PUSH1 0x1F DUP2 GT PUSH2 0x5636 JUMPI JUMPDEST POP PUSH1 0x20 PUSH1 0x1F DUP3 GT PUSH1 0x1 EQ PUSH2 0x55D8 JUMPI DUP2 SWAP3 SWAP4 SWAP5 PUSH0 SWAP3 PUSH2 0x55CD JUMPI JUMPDEST POP POP DUP2 PUSH1 0x1 SHL SWAP2 PUSH0 NOT SWAP1 PUSH1 0x3 SHL SHR NOT AND OR SWAP1 SSTORE JUMP JUMPDEST ADD MLOAD SWAP1 POP PUSH0 DUP1 PUSH2 0x55B8 JUMP JUMPDEST PUSH1 0x1F NOT DUP3 AND SWAP1 DUP4 PUSH0 MSTORE DUP1 PUSH0 KECCAK256 SWAP2 PUSH0 JUMPDEST DUP2 DUP2 LT PUSH2 0x561E JUMPI POP SWAP6 DUP4 PUSH1 0x1 SWAP6 SWAP7 SWAP8 LT PUSH2 0x5606 JUMPI JUMPDEST POP POP POP DUP2 SHL ADD SWAP1 SSTORE JUMP JUMPDEST ADD MLOAD PUSH0 NOT PUSH1 0xF8 DUP5 PUSH1 0x3 SHL AND SHR NOT AND SWAP1 SSTORE PUSH0 DUP1 DUP1 PUSH2 0x55FC JUMP JUMPDEST SWAP2 SWAP3 PUSH1 0x20 PUSH1 0x1 DUP2 SWAP3 DUP7 DUP12 ADD MLOAD DUP2 SSTORE ADD SWAP5 ADD SWAP3 ADD PUSH2 0x55E7 JUMP JUMPDEST PUSH2 0x5661 SWAP1 DUP4 PUSH0 MSTORE PUSH1 0x20 PUSH0 KECCAK256 PUSH1 0x1F DUP5 ADD PUSH1 0x5 SHR DUP2 ADD SWAP2 PUSH1 0x20 DUP6 LT PUSH2 0x5667 JUMPI JUMPDEST PUSH1 0x1F ADD PUSH1 0x5 SHR ADD SWAP1 PUSH2 0x501E JUMP JUMPDEST PUSH0 PUSH2 0x559F JUMP JUMPDEST SWAP1 SWAP2 POP DUP2 SWAP1 PUSH2 0x5654 JUMP JUMPDEST SWAP1 PUSH1 0x6 DUP2 LT ISZERO PUSH2 0x2DB9 JUMPI DUP2 SLOAD PUSH1 0xFF PUSH1 0xA0 SHL NOT AND PUSH1 0xA0 SWAP2 SWAP1 SWAP2 SHL PUSH1 0xFF PUSH1 0xA0 SHL AND OR SWAP1 SSTORE JUMP JUMPDEST SWAP1 DUP2 PUSH1 0x20 SWAP2 SUB SLT PUSH2 0x10B2 JUMPI MLOAD DUP1 ISZERO ISZERO DUP2 SUB PUSH2 0x10B2 JUMPI SWAP1 JUMP JUMPDEST ISZERO PUSH2 0x56B4 JUMPI JUMP JUMPDEST PUSH1 0x40 MLOAD PUSH3 0x461BCD PUSH1 0xE5 SHL DUP2 MSTORE PUSH1 0x20 PUSH1 0x4 DUP3 ADD MSTORE PUSH1 0x24 DUP1 DUP3 ADD MSTORE PUSH32 0x4F6E6C7920666F6C6C6F776572732063616E20766F746520696E207468697320 PUSH1 0x44 DUP3 ADD MSTORE PUSH4 0x1C1BDB1B PUSH1 0xE2 SHL PUSH1 0x64 DUP3 ADD MSTORE PUSH1 0x84 SWAP1 REVERT JUMPDEST ISZERO PUSH2 0x570C JUMPI JUMP JUMPDEST PUSH1 0x40 MLOAD PUSH3 0x461BCD PUSH1 0xE5 SHL DUP2 MSTORE PUSH1 0x20 PUSH1 0x4 DUP3 ADD MSTORE PUSH1 0x23 PUSH1 0x24 DUP3 ADD MSTORE PUSH32 0x5265717569726564204C53503820746F6B656E2061646472657373206E6F7420 PUSH1 0x44 DUP3 ADD MSTORE PUSH3 0x1CD95D PUSH1 0xEA SHL PUSH1 0x64 DUP3 ADD MSTORE PUSH1 0x84 SWAP1 REVERT JUMPDEST ISZERO PUSH2 0x5764 JUMPI JUMP JUMPDEST PUSH1 0x40 MLOAD PUSH3 0x461BCD PUSH1 0xE5 SHL DUP2 MSTORE PUSH1 0x20 PUSH1 0x4 DUP3 ADD MSTORE PUSH1 0x1E PUSH1 0x24 DUP3 ADD MSTORE PUSH32 0x4F6E6C79204C535038204E465420686F6C646572732063616E20766F74650000 PUSH1 0x44 DUP3 ADD MSTORE PUSH1 0x64 SWAP1 REVERT JUMPDEST ISZERO PUSH2 0x57B0 JUMPI JUMP JUMPDEST PUSH1 0x40 MLOAD PUSH3 0x461BCD PUSH1 0xE5 SHL DUP2 MSTORE PUSH1 0x20 PUSH1 0x4 DUP3 ADD MSTORE PUSH1 0x23 PUSH1 0x24 DUP3 ADD MSTORE PUSH32 0x5265717569726564204C53503720746F6B656E2061646472657373206E6F7420 PUSH1 0x44 DUP3 ADD MSTORE PUSH3 0x1CD95D PUSH1 0xEA SHL PUSH1 0x64 DUP3 ADD MSTORE PUSH1 0x84 SWAP1 REVERT JUMPDEST ISZERO PUSH2 0x5808 JUMPI JUMP JUMPDEST PUSH1 0x40 MLOAD PUSH3 0x461BCD PUSH1 0xE5 SHL DUP2 MSTORE PUSH1 0x20 PUSH1 0x4 DUP3 ADD MSTORE PUSH1 0x2D PUSH1 0x24 DUP3 ADD MSTORE PUSH32 0x5265717569726564204C53503720746F6B656E20616D6F756E74206E6F742073 PUSH1 0x44 DUP3 ADD MSTORE PUSH13 0x195D081BDC881A5B9D985B1A59 PUSH1 0x9A SHL PUSH1 0x64 DUP3 ADD MSTORE PUSH1 0x84 SWAP1 REVERT JUMPDEST ISZERO PUSH2 0x586A JUMPI JUMP JUMPDEST PUSH1 0x40 MLOAD PUSH3 0x461BCD PUSH1 0xE5 SHL DUP2 MSTORE PUSH1 0x20 PUSH1 0x4 DUP3 ADD MSTORE PUSH1 0x27 PUSH1 0x24 DUP3 ADD MSTORE PUSH32 0x496E73756666696369656E74204C53503720746F6B656E2062616C616E636520 PUSH1 0x44 DUP3 ADD MSTORE PUSH7 0x746F20766F7465 PUSH1 0xC8 SHL PUSH1 0x64 DUP3 ADD MSTORE PUSH1 0x84 SWAP1 REVERT JUMPDEST PUSH1 0x1 DUP1 PUSH1 0xA0 SHL SUB DUP2 AND SWAP1 DUP2 PUSH0 MSTORE PUSH1 0x9 PUSH1 0x20 MSTORE PUSH1 0x40 PUSH0 KECCAK256 DUP1 SLOAD SWAP1 PUSH1 0x1 DUP3 ADD DUP1 SWAP3 GT PUSH2 0x3191 JUMPI SSTORE DUP2 PUSH0 MSTORE PUSH1 0xB PUSH1 0x20 MSTORE PUSH1 0xFF PUSH1 0x40 PUSH0 KECCAK256 SLOAD AND ISZERO PUSH2 0x58FD JUMPI POP POP JUMP JUMPDEST PUSH2 0x5906 SWAP1 PUSH2 0x5212 JUMP JUMPDEST PUSH0 MSTORE PUSH1 0xB PUSH1 0x20 MSTORE PUSH1 0x40 PUSH0 KECCAK256 PUSH1 0x1 PUSH1 0xFF NOT DUP3 SLOAD AND OR SWAP1 SSTORE JUMP INVALID NUMBER PUSH16 0x6E747261637420696E73756666696369 PUSH6 0x6E742062616C PUSH2 0x6E63 PUSH6 0x20666FA26469 PUSH17 0x6673582212203D822FA1783464CE5423B0 PUSH16 0x6451DF55FAB7C11C6F9CCEB3727F3550 DUP15 SWAP7 0xF 0xDF PUSH5 0x736F6C6343 STOP ADDMOD BYTE STOP CALLER "
		},
		"gasEstimates": {
			"creation": {
				"codeDepositCost": "4580000",
				"executionCost": "123025",
				"totalCost": "4703025"
			},
			"external": {
				"addSupportedToken(address)": "infinite",
				"batchCleanupPollData(uint256[])": "infinite",
				"claimReward(uint256)": "infinite",
				"cleanupOldPolls(uint256)": "infinite",
				"cleanupPollData(uint256)": "infinite",
				"closePoll(uint256)": "63380",
				"combinedRequirementFee()": "2853",
				"commissionRate()": "2567",
				"createPoll(string,string,string[],uint128,uint128,bool,uint128,uint8,address,uint256)": "infinite",
				"createPollWithToken(string,string,string[],uint128,uint128,uint256,address,uint8,address,uint256)": "infinite",
				"creatorActivePollCount(address)": "2695",
				"extendPollDuration(uint256,uint32)": "36082",
				"getAllRankedUsers()": "infinite",
				"getAllSupportedTokens()": "infinite",
				"getContractBalance()": "557",
				"getContractTokenBalance(address)": "infinite",
				"getEarnedCommissionTokens()": "infinite",
				"getPollDetails(uint256)": "infinite",
				"getPollOptions(uint256)": "infinite",
				"getPollQuestion(uint256)": "infinite",
				"getPollStatus(uint256)": "9684",
				"getPollVotes(uint256,uint256)": "9187",
				"getTokenCommissionEarned(address)": "5617",
				"getTokenDetails(address)": "infinite",
				"getTotalLYXCommission()": "5107",
				"getUserPoints(address)": "3209",
				"getUserVotedPollIds(address)": "infinite",
				"getUserVotingHistory(address)": "infinite",
				"getVoters(uint256)": "infinite",
				"getVotersByOption(uint256,uint256)": "infinite",
				"hasClaimedReward(uint256,address)": "7843",
				"hasVoted(uint256,address)": "7079",
				"isPollCleaned(uint256)": "6940",
				"isPollDataDeleted(uint256)": "2402",
				"isTokenSupported(address)": "2839",
				"owner()": "2811",
				"pausePoll(uint256)": "41572",
				"pollCount()": "2809",
				"pollCreationFee()": "2391",
				"pollTokensClaimed(uint256)": "3410",
				"polls(uint256)": "infinite",
				"removeSupportedToken(address)": "infinite",
				"resumePoll(uint256)": "39631",
				"setCombinedRequirementFee(uint256)": "25774",
				"setCommissionRate(uint256)": "25557",
				"setPollCreationFee(uint256)": "26553",
				"supportedTokens(uint256)": "7560",
				"tokenCommissionEarned(address)": "3319",
				"totalCommissionEarned()": "3209",
				"userPoints(address)": "3539",
				"vote(uint256,uint256)": "infinite",
				"votedOption(uint256,address)": "9846",
				"withdrawCommission()": "infinite",
				"withdrawRemainingFunds(uint256)": "infinite",
				"withdrawTokenCommission(address)": "infinite"
			},
			"internal": {
				"_awardPoints(address,uint256)": "infinite",
				"_isRequirementCombined(enum PollContract.VotingRequirement)": "infinite"
			}
		},
		"methodIdentifiers": {
			"addSupportedToken(address)": "6d69fcaf",
			"batchCleanupPollData(uint256[])": "6d245c3a",
			"claimReward(uint256)": "ae169a50",
			"cleanupOldPolls(uint256)": "f7e5058c",
			"cleanupPollData(uint256)": "320d88f9",
			"closePoll(uint256)": "9534e637",
			"combinedRequirementFee()": "97a25461",
			"commissionRate()": "5ea1d6f8",
			"createPoll(string,string,string[],uint128,uint128,bool,uint128,uint8,address,uint256)": "f6ff3fe2",
			"createPollWithToken(string,string,string[],uint128,uint128,uint256,address,uint8,address,uint256)": "aeaa6d75",
			"creatorActivePollCount(address)": "52ecab6f",
			"extendPollDuration(uint256,uint32)": "9ecdc3a7",
			"getAllRankedUsers()": "bacc1f24",
			"getAllSupportedTokens()": "0107e472",
			"getContractBalance()": "6f9fb98a",
			"getContractTokenBalance(address)": "14205e28",
			"getEarnedCommissionTokens()": "4e17b8e9",
			"getPollDetails(uint256)": "9a0040e4",
			"getPollOptions(uint256)": "f7562765",
			"getPollQuestion(uint256)": "8ca34326",
			"getPollStatus(uint256)": "b0c095e3",
			"getPollVotes(uint256,uint256)": "37151279",
			"getTokenCommissionEarned(address)": "d7f644eb",
			"getTokenDetails(address)": "88aa8bee",
			"getTotalLYXCommission()": "a333e6df",
			"getUserPoints(address)": "aeefe31f",
			"getUserVotedPollIds(address)": "de12234b",
			"getUserVotingHistory(address)": "0ff7c4a5",
			"getVoters(uint256)": "86b646f2",
			"getVotersByOption(uint256,uint256)": "99664e9c",
			"hasClaimedReward(uint256,address)": "c8b727a1",
			"hasVoted(uint256,address)": "43859632",
			"isPollCleaned(uint256)": "43eb921b",
			"isPollDataDeleted(uint256)": "154d2093",
			"isTokenSupported(address)": "75151b63",
			"owner()": "8da5cb5b",
			"pausePoll(uint256)": "cde202c4",
			"pollCount()": "9207891d",
			"pollCreationFee()": "1e0412ab",
			"pollTokensClaimed(uint256)": "e271015b",
			"polls(uint256)": "ac2f0074",
			"removeSupportedToken(address)": "76319190",
			"resumePoll(uint256)": "1bd3528e",
			"setCombinedRequirementFee(uint256)": "5ead1c0e",
			"setCommissionRate(uint256)": "19fac8fd",
			"setPollCreationFee(uint256)": "f184bab1",
			"supportedTokens(uint256)": "c6255626",
			"tokenCommissionEarned(address)": "c31a8577",
			"totalCommissionEarned()": "c73cdd23",
			"userPoints(address)": "f50ddbc7",
			"vote(uint256,uint256)": "b384abef",
			"votedOption(uint256,address)": "aaaaea83",
			"withdrawCommission()": "3e25e837",
			"withdrawRemainingFunds(uint256)": "bd798a3f",
			"withdrawTokenCommission(address)": "d7b363e4"
		}
	},
	"abi": [
		{
			"inputs": [],
			"stateMutability": "nonpayable",
			"type": "constructor"
		},
		{
			"anonymous": false,
			"inputs": [
				{
					"indexed": false,
					"internalType": "uint256",
					"name": "newFee",
					"type": "uint256"
				}
			],
			"name": "CombinedRequirementFeeChanged",
			"type": "event"
		},
		{
			"anonymous": false,
			"inputs": [
				{
					"indexed": false,
					"internalType": "uint256",
					"name": "newRate",
					"type": "uint256"
				}
			],
			"name": "CommissionRateChanged",
			"type": "event"
		},
		{
			"anonymous": false,
			"inputs": [
				{
					"indexed": false,
					"internalType": "address",
					"name": "owner",
					"type": "address"
				},
				{
					"indexed": false,
					"internalType": "uint256",
					"name": "amount",
					"type": "uint256"
				},
				{
					"indexed": false,
					"internalType": "address",
					"name": "token",
					"type": "address"
				}
			],
			"name": "CommissionWithdrawn",
			"type": "event"
		},
		{
			"anonymous": false,
			"inputs": [
				{
					"indexed": false,
					"internalType": "uint256",
					"name": "pollId",
					"type": "uint256"
				},
				{
					"indexed": false,
					"internalType": "address",
					"name": "creator",
					"type": "address"
				},
				{
					"indexed": false,
					"internalType": "uint256",
					"name": "amount",
					"type": "uint256"
				},
				{
					"indexed": false,
					"internalType": "address",
					"name": "token",
					"type": "address"
				}
			],
			"name": "CreatorWithdrewRemainingFunds",
			"type": "event"
		},
		{
			"anonymous": false,
			"inputs": [
				{
					"indexed": false,
					"internalType": "uint256",
					"name": "pollId",
					"type": "uint256"
				}
			],
			"name": "PollClosed",
			"type": "event"
		},
		{
			"anonymous": false,
			"inputs": [
				{
					"indexed": false,
					"internalType": "uint256",
					"name": "pollId",
					"type": "uint256"
				},
				{
					"indexed": false,
					"internalType": "string",
					"name": "question",
					"type": "string"
				},
				{
					"indexed": false,
					"internalType": "string",
					"name": "description",
					"type": "string"
				},
				{
					"indexed": false,
					"internalType": "string[]",
					"name": "options",
					"type": "string[]"
				},
				{
					"indexed": false,
					"internalType": "uint256",
					"name": "duration",
					"type": "uint256"
				},
				{
					"indexed": false,
					"internalType": "uint256",
					"name": "rewardPerVote",
					"type": "uint256"
				},
				{
					"indexed": false,
					"internalType": "uint256",
					"name": "targetVoterCount",
					"type": "uint256"
				},
				{
					"indexed": false,
					"internalType": "address",
					"name": "rewardToken",
					"type": "address"
				},
				{
					"indexed": false,
					"internalType": "enum PollContract.VotingRequirement",
					"name": "votingRequirement",
					"type": "uint8"
				},
				{
					"indexed": false,
					"internalType": "address",
					"name": "requiredTokenAddress",
					"type": "address"
				},
				{
					"indexed": false,
					"internalType": "uint256",
					"name": "requiredTokenAmount",
					"type": "uint256"
				}
			],
			"name": "PollCreated",
			"type": "event"
		},
		{
			"anonymous": false,
			"inputs": [
				{
					"indexed": false,
					"internalType": "uint256",
					"name": "newFee",
					"type": "uint256"
				}
			],
			"name": "PollCreationFeeChanged",
			"type": "event"
		},
		{
			"anonymous": false,
			"inputs": [
				{
					"indexed": false,
					"internalType": "uint256",
					"name": "pollId",
					"type": "uint256"
				},
				{
					"indexed": false,
					"internalType": "address",
					"name": "voter",
					"type": "address"
				},
				{
					"indexed": false,
					"internalType": "uint256",
					"name": "amount",
					"type": "uint256"
				},
				{
					"indexed": false,
					"internalType": "address",
					"name": "token",
					"type": "address"
				}
			],
			"name": "RewardClaimed",
			"type": "event"
		},
		{
			"anonymous": false,
			"inputs": [
				{
					"indexed": false,
					"internalType": "address",
					"name": "token",
					"type": "address"
				},
				{
					"indexed": false,
					"internalType": "string",
					"name": "name",
					"type": "string"
				},
				{
					"indexed": false,
					"internalType": "string",
					"name": "symbol",
					"type": "string"
				}
			],
			"name": "TokenAdded",
			"type": "event"
		},
		{
			"anonymous": false,
			"inputs": [
				{
					"indexed": false,
					"internalType": "address",
					"name": "token",
					"type": "address"
				}
			],
			"name": "TokenRemoved",
			"type": "event"
		},
		{
			"anonymous": false,
			"inputs": [
				{
					"indexed": false,
					"internalType": "uint256",
					"name": "pollId",
					"type": "uint256"
				},
				{
					"indexed": false,
					"internalType": "uint256",
					"name": "optionId",
					"type": "uint256"
				},
				{
					"indexed": false,
					"internalType": "address",
					"name": "voter",
					"type": "address"
				}
			],
			"name": "Voted",
			"type": "event"
		},
		{
			"inputs": [
				{
					"internalType": "address",
					"name": "_tokenAddress",
					"type": "address"
				}
			],
			"name": "addSupportedToken",
			"outputs": [],
			"stateMutability": "nonpayable",
			"type": "function"
		},
		{
			"inputs": [
				{
					"internalType": "uint256[]",
					"name": "_pollIds",
					"type": "uint256[]"
				}
			],
			"name": "batchCleanupPollData",
			"outputs": [],
			"stateMutability": "nonpayable",
			"type": "function"
		},
		{
			"inputs": [
				{
					"internalType": "uint256",
					"name": "_pollId",
					"type": "uint256"
				}
			],
			"name": "claimReward",
			"outputs": [],
			"stateMutability": "nonpayable",
			"type": "function"
		},
		{
			"inputs": [
				{
					"internalType": "uint256",
					"name": "_olderThanDays",
					"type": "uint256"
				}
			],
			"name": "cleanupOldPolls",
			"outputs": [],
			"stateMutability": "nonpayable",
			"type": "function"
		},
		{
			"inputs": [
				{
					"internalType": "uint256",
					"name": "_pollId",
					"type": "uint256"
				}
			],
			"name": "cleanupPollData",
			"outputs": [],
			"stateMutability": "nonpayable",
			"type": "function"
		},
		{
			"inputs": [
				{
					"internalType": "uint256",
					"name": "_pollId",
					"type": "uint256"
				}
			],
			"name": "closePoll",
			"outputs": [],
			"stateMutability": "nonpayable",
			"type": "function"
		},
		{
			"inputs": [],
			"name": "combinedRequirementFee",
			"outputs": [
				{
					"internalType": "uint256",
					"name": "",
					"type": "uint256"
				}
			],
			"stateMutability": "view",
			"type": "function"
		},
		{
			"inputs": [],
			"name": "commissionRate",
			"outputs": [
				{
					"internalType": "uint256",
					"name": "",
					"type": "uint256"
				}
			],
			"stateMutability": "view",
			"type": "function"
		},
		{
			"inputs": [
				{
					"internalType": "string",
					"name": "_question",
					"type": "string"
				},
				{
					"internalType": "string",
					"name": "_description",
					"type": "string"
				},
				{
					"internalType": "string[]",
					"name": "_options",
					"type": "string[]"
				},
				{
					"internalType": "uint128",
					"name": "_durationInHours",
					"type": "uint128"
				},
				{
					"internalType": "uint128",
					"name": "_targetVoterCount",
					"type": "uint128"
				},
				{
					"internalType": "bool",
					"name": "_enableRewards",
					"type": "bool"
				},
				{
					"internalType": "uint128",
					"name": "_rewardPerVote",
					"type": "uint128"
				},
				{
					"internalType": "enum PollContract.VotingRequirement",
					"name": "_votingRequirement",
					"type": "uint8"
				},
				{
					"internalType": "address",
					"name": "_requiredTokenAddress",
					"type": "address"
				},
				{
					"internalType": "uint256",
					"name": "_requiredTokenAmount",
					"type": "uint256"
				}
			],
			"name": "createPoll",
			"outputs": [],
			"stateMutability": "payable",
			"type": "function"
		},
		{
			"inputs": [
				{
					"internalType": "string",
					"name": "_question",
					"type": "string"
				},
				{
					"internalType": "string",
					"name": "_description",
					"type": "string"
				},
				{
					"internalType": "string[]",
					"name": "_options",
					"type": "string[]"
				},
				{
					"internalType": "uint128",
					"name": "_durationInHours",
					"type": "uint128"
				},
				{
					"internalType": "uint128",
					"name": "_targetVoterCount",
					"type": "uint128"
				},
				{
					"internalType": "uint256",
					"name": "_rewardPerVoteToken",
					"type": "uint256"
				},
				{
					"internalType": "address",
					"name": "_rewardTokenAddress",
					"type": "address"
				},
				{
					"internalType": "enum PollContract.VotingRequirement",
					"name": "_votingRequirement",
					"type": "uint8"
				},
				{
					"internalType": "address",
					"name": "_requiredTokenAddress",
					"type": "address"
				},
				{
					"internalType": "uint256",
					"name": "_requiredTokenAmount",
					"type": "uint256"
				}
			],
			"name": "createPollWithToken",
			"outputs": [],
			"stateMutability": "payable",
			"type": "function"
		},
		{
			"inputs": [
				{
					"internalType": "address",
					"name": "",
					"type": "address"
				}
			],
			"name": "creatorActivePollCount",
			"outputs": [
				{
					"internalType": "uint256",
					"name": "",
					"type": "uint256"
				}
			],
			"stateMutability": "view",
			"type": "function"
		},
		{
			"inputs": [
				{
					"internalType": "uint256",
					"name": "_pollId",
					"type": "uint256"
				},
				{
					"internalType": "uint32",
					"name": "_additionalHours",
					"type": "uint32"
				}
			],
			"name": "extendPollDuration",
			"outputs": [],
			"stateMutability": "nonpayable",
			"type": "function"
		},
		{
			"inputs": [],
			"name": "getAllRankedUsers",
			"outputs": [
				{
					"internalType": "address[]",
					"name": "",
					"type": "address[]"
				}
			],
			"stateMutability": "view",
			"type": "function"
		},
		{
			"inputs": [],
			"name": "getAllSupportedTokens",
			"outputs": [
				{
					"internalType": "address[]",
					"name": "",
					"type": "address[]"
				}
			],
			"stateMutability": "view",
			"type": "function"
		},
		{
			"inputs": [],
			"name": "getContractBalance",
			"outputs": [
				{
					"internalType": "uint256",
					"name": "",
					"type": "uint256"
				}
			],
			"stateMutability": "view",
			"type": "function"
		},
		{
			"inputs": [
				{
					"internalType": "address",
					"name": "_tokenAddress",
					"type": "address"
				}
			],
			"name": "getContractTokenBalance",
			"outputs": [
				{
					"internalType": "uint256",
					"name": "",
					"type": "uint256"
				}
			],
			"stateMutability": "view",
			"type": "function"
		},
		{
			"inputs": [],
			"name": "getEarnedCommissionTokens",
			"outputs": [
				{
					"internalType": "address[]",
					"name": "",
					"type": "address[]"
				}
			],
			"stateMutability": "view",
			"type": "function"
		},
		{
			"inputs": [
				{
					"internalType": "uint256",
					"name": "_pollId",
					"type": "uint256"
				}
			],
			"name": "getPollDetails",
			"outputs": [
				{
					"internalType": "string",
					"name": "question",
					"type": "string"
				},
				{
					"internalType": "string",
					"name": "description",
					"type": "string"
				},
				{
					"internalType": "uint256",
					"name": "startTime",
					"type": "uint256"
				},
				{
					"internalType": "uint256",
					"name": "endTime",
					"type": "uint256"
				},
				{
					"internalType": "bool",
					"name": "isActive",
					"type": "bool"
				},
				{
					"internalType": "uint256",
					"name": "totalVotes",
					"type": "uint256"
				},
				{
					"internalType": "uint256",
					"name": "targetVoterCount",
					"type": "uint256"
				},
				{
					"internalType": "uint256",
					"name": "rewardPerVote",
					"type": "uint256"
				},
				{
					"internalType": "address",
					"name": "creator",
					"type": "address"
				},
				{
					"internalType": "bool",
					"name": "rewardsEnabled",
					"type": "bool"
				},
				{
					"internalType": "enum PollContract.RewardType",
					"name": "rewardType",
					"type": "uint8"
				},
				{
					"internalType": "address",
					"name": "rewardToken",
					"type": "address"
				},
				{
					"internalType": "enum PollContract.VotingRequirement",
					"name": "votingRequirement",
					"type": "uint8"
				},
				{
					"internalType": "address",
					"name": "requiredTokenAddress",
					"type": "address"
				},
				{
					"internalType": "uint256",
					"name": "requiredTokenAmount",
					"type": "uint256"
				}
			],
			"stateMutability": "view",
			"type": "function"
		},
		{
			"inputs": [
				{
					"internalType": "uint256",
					"name": "_pollId",
					"type": "uint256"
				}
			],
			"name": "getPollOptions",
			"outputs": [
				{
					"internalType": "string[]",
					"name": "",
					"type": "string[]"
				}
			],
			"stateMutability": "view",
			"type": "function"
		},
		{
			"inputs": [
				{
					"internalType": "uint256",
					"name": "_pollId",
					"type": "uint256"
				}
			],
			"name": "getPollQuestion",
			"outputs": [
				{
					"internalType": "string",
					"name": "",
					"type": "string"
				}
			],
			"stateMutability": "view",
			"type": "function"
		},
		{
			"inputs": [
				{
					"internalType": "uint256",
					"name": "_pollId",
					"type": "uint256"
				}
			],
			"name": "getPollStatus",
			"outputs": [
				{
					"internalType": "bool",
					"name": "isActive",
					"type": "bool"
				},
				{
					"internalType": "bool",
					"name": "hasEnded",
					"type": "bool"
				},
				{
					"internalType": "uint256",
					"name": "endTime",
					"type": "uint256"
				}
			],
			"stateMutability": "view",
			"type": "function"
		},
		{
			"inputs": [
				{
					"internalType": "uint256",
					"name": "_pollId",
					"type": "uint256"
				},
				{
					"internalType": "uint256",
					"name": "_optionId",
					"type": "uint256"
				}
			],
			"name": "getPollVotes",
			"outputs": [
				{
					"internalType": "uint256",
					"name": "",
					"type": "uint256"
				}
			],
			"stateMutability": "view",
			"type": "function"
		},
		{
			"inputs": [
				{
					"internalType": "address",
					"name": "_tokenAddress",
					"type": "address"
				}
			],
			"name": "getTokenCommissionEarned",
			"outputs": [
				{
					"internalType": "uint256",
					"name": "",
					"type": "uint256"
				}
			],
			"stateMutability": "view",
			"type": "function"
		},
		{
			"inputs": [
				{
					"internalType": "address",
					"name": "_tokenAddress",
					"type": "address"
				}
			],
			"name": "getTokenDetails",
			"outputs": [
				{
					"internalType": "string",
					"name": "name",
					"type": "string"
				},
				{
					"internalType": "string",
					"name": "symbol",
					"type": "string"
				},
				{
					"internalType": "uint8",
					"name": "decimals",
					"type": "uint8"
				},
				{
					"internalType": "bool",
					"name": "isSupported",
					"type": "bool"
				}
			],
			"stateMutability": "view",
			"type": "function"
		},
		{
			"inputs": [],
			"name": "getTotalLYXCommission",
			"outputs": [
				{
					"internalType": "uint256",
					"name": "",
					"type": "uint256"
				}
			],
			"stateMutability": "view",
			"type": "function"
		},
		{
			"inputs": [
				{
					"internalType": "address",
					"name": "_user",
					"type": "address"
				}
			],
			"name": "getUserPoints",
			"outputs": [
				{
					"internalType": "uint256",
					"name": "",
					"type": "uint256"
				}
			],
			"stateMutability": "view",
			"type": "function"
		},
		{
			"inputs": [
				{
					"internalType": "address",
					"name": "_user",
					"type": "address"
				}
			],
			"name": "getUserVotedPollIds",
			"outputs": [
				{
					"internalType": "uint256[]",
					"name": "",
					"type": "uint256[]"
				}
			],
			"stateMutability": "view",
			"type": "function"
		},
		{
			"inputs": [
				{
					"internalType": "address",
					"name": "_user",
					"type": "address"
				}
			],
			"name": "getUserVotingHistory",
			"outputs": [
				{
					"internalType": "uint256[]",
					"name": "pollIds",
					"type": "uint256[]"
				},
				{
					"internalType": "uint256[]",
					"name": "optionIds",
					"type": "uint256[]"
				},
				{
					"internalType": "string[]",
					"name": "questions",
					"type": "string[]"
				},
				{
					"internalType": "string[]",
					"name": "options",
					"type": "string[]"
				}
			],
			"stateMutability": "view",
			"type": "function"
		},
		{
			"inputs": [
				{
					"internalType": "uint256",
					"name": "_pollId",
					"type": "uint256"
				}
			],
			"name": "getVoters",
			"outputs": [
				{
					"internalType": "address[]",
					"name": "",
					"type": "address[]"
				}
			],
			"stateMutability": "view",
			"type": "function"
		},
		{
			"inputs": [
				{
					"internalType": "uint256",
					"name": "_pollId",
					"type": "uint256"
				},
				{
					"internalType": "uint256",
					"name": "_optionId",
					"type": "uint256"
				}
			],
			"name": "getVotersByOption",
			"outputs": [
				{
					"internalType": "address[]",
					"name": "",
					"type": "address[]"
				}
			],
			"stateMutability": "view",
			"type": "function"
		},
		{
			"inputs": [
				{
					"internalType": "uint256",
					"name": "_pollId",
					"type": "uint256"
				},
				{
					"internalType": "address",
					"name": "_voter",
					"type": "address"
				}
			],
			"name": "hasClaimedReward",
			"outputs": [
				{
					"internalType": "bool",
					"name": "",
					"type": "bool"
				}
			],
			"stateMutability": "view",
			"type": "function"
		},
		{
			"inputs": [
				{
					"internalType": "uint256",
					"name": "_pollId",
					"type": "uint256"
				},
				{
					"internalType": "address",
					"name": "_voter",
					"type": "address"
				}
			],
			"name": "hasVoted",
			"outputs": [
				{
					"internalType": "bool",
					"name": "",
					"type": "bool"
				}
			],
			"stateMutability": "view",
			"type": "function"
		},
		{
			"inputs": [
				{
					"internalType": "uint256",
					"name": "_pollId",
					"type": "uint256"
				}
			],
			"name": "isPollCleaned",
			"outputs": [
				{
					"internalType": "bool",
					"name": "",
					"type": "bool"
				}
			],
			"stateMutability": "view",
			"type": "function"
		},
		{
			"inputs": [
				{
					"internalType": "uint256",
					"name": "",
					"type": "uint256"
				}
			],
			"name": "isPollDataDeleted",
			"outputs": [
				{
					"internalType": "bool",
					"name": "",
					"type": "bool"
				}
			],
			"stateMutability": "view",
			"type": "function"
		},
		{
			"inputs": [
				{
					"internalType": "address",
					"name": "",
					"type": "address"
				}
			],
			"name": "isTokenSupported",
			"outputs": [
				{
					"internalType": "bool",
					"name": "",
					"type": "bool"
				}
			],
			"stateMutability": "view",
			"type": "function"
		},
		{
			"inputs": [],
			"name": "owner",
			"outputs": [
				{
					"internalType": "address",
					"name": "",
					"type": "address"
				}
			],
			"stateMutability": "view",
			"type": "function"
		},
		{
			"inputs": [
				{
					"internalType": "uint256",
					"name": "_pollId",
					"type": "uint256"
				}
			],
			"name": "pausePoll",
			"outputs": [],
			"stateMutability": "nonpayable",
			"type": "function"
		},
		{
			"inputs": [],
			"name": "pollCount",
			"outputs": [
				{
					"internalType": "uint256",
					"name": "",
					"type": "uint256"
				}
			],
			"stateMutability": "view",
			"type": "function"
		},
		{
			"inputs": [],
			"name": "pollCreationFee",
			"outputs": [
				{
					"internalType": "uint256",
					"name": "",
					"type": "uint256"
				}
			],
			"stateMutability": "view",
			"type": "function"
		},
		{
			"inputs": [
				{
					"internalType": "uint256",
					"name": "",
					"type": "uint256"
				}
			],
			"name": "pollTokensClaimed",
			"outputs": [
				{
					"internalType": "uint256",
					"name": "",
					"type": "uint256"
				}
			],
			"stateMutability": "view",
			"type": "function"
		},
		{
			"inputs": [
				{
					"internalType": "uint256",
					"name": "",
					"type": "uint256"
				}
			],
			"name": "polls",
			"outputs": [
				{
					"internalType": "string",
					"name": "question",
					"type": "string"
				},
				{
					"internalType": "string",
					"name": "description",
					"type": "string"
				},
				{
					"internalType": "uint256",
					"name": "startTime",
					"type": "uint256"
				},
				{
					"internalType": "uint256",
					"name": "endTime",
					"type": "uint256"
				},
				{
					"internalType": "bool",
					"name": "isActive",
					"type": "bool"
				},
				{
					"internalType": "uint256",
					"name": "totalVotes",
					"type": "uint256"
				},
				{
					"internalType": "uint256",
					"name": "rewardPerVote",
					"type": "uint256"
				},
				{
					"internalType": "uint256",
					"name": "targetVoterCount",
					"type": "uint256"
				},
				{
					"internalType": "uint256",
					"name": "claimedVoterCount",
					"type": "uint256"
				},
				{
					"internalType": "address",
					"name": "creator",
					"type": "address"
				},
				{
					"internalType": "bool",
					"name": "rewardsEnabled",
					"type": "bool"
				},
				{
					"internalType": "enum PollContract.RewardType",
					"name": "rewardType",
					"type": "uint8"
				},
				{
					"internalType": "address",
					"name": "rewardToken",
					"type": "address"
				},
				{
					"internalType": "enum PollContract.VotingRequirement",
					"name": "votingRequirement",
					"type": "uint8"
				},
				{
					"internalType": "address",
					"name": "requiredTokenAddress",
					"type": "address"
				},
				{
					"internalType": "uint256",
					"name": "requiredTokenAmount",
					"type": "uint256"
				},
				{
					"internalType": "bool",
					"name": "fundsWithdrawn",
					"type": "bool"
				},
				{
					"internalType": "uint256",
					"name": "totalRewardTokenLocked",
					"type": "uint256"
				}
			],
			"stateMutability": "view",
			"type": "function"
		},
		{
			"inputs": [
				{
					"internalType": "address",
					"name": "_tokenAddress",
					"type": "address"
				}
			],
			"name": "removeSupportedToken",
			"outputs": [],
			"stateMutability": "nonpayable",
			"type": "function"
		},
		{
			"inputs": [
				{
					"internalType": "uint256",
					"name": "_pollId",
					"type": "uint256"
				}
			],
			"name": "resumePoll",
			"outputs": [],
			"stateMutability": "nonpayable",
			"type": "function"
		},
		{
			"inputs": [
				{
					"internalType": "uint256",
					"name": "_newFee",
					"type": "uint256"
				}
			],
			"name": "setCombinedRequirementFee",
			"outputs": [],
			"stateMutability": "nonpayable",
			"type": "function"
		},
		{
			"inputs": [
				{
					"internalType": "uint256",
					"name": "_newRate",
					"type": "uint256"
				}
			],
			"name": "setCommissionRate",
			"outputs": [],
			"stateMutability": "nonpayable",
			"type": "function"
		},
		{
			"inputs": [
				{
					"internalType": "uint256",
					"name": "_newFee",
					"type": "uint256"
				}
			],
			"name": "setPollCreationFee",
			"outputs": [],
			"stateMutability": "nonpayable",
			"type": "function"
		},
		{
			"inputs": [
				{
					"internalType": "uint256",
					"name": "",
					"type": "uint256"
				}
			],
			"name": "supportedTokens",
			"outputs": [
				{
					"internalType": "address",
					"name": "",
					"type": "address"
				}
			],
			"stateMutability": "view",
			"type": "function"
		},
		{
			"inputs": [
				{
					"internalType": "address",
					"name": "",
					"type": "address"
				}
			],
			"name": "tokenCommissionEarned",
			"outputs": [
				{
					"internalType": "uint256",
					"name": "",
					"type": "uint256"
				}
			],
			"stateMutability": "view",
			"type": "function"
		},
		{
			"inputs": [],
			"name": "totalCommissionEarned",
			"outputs": [
				{
					"internalType": "uint256",
					"name": "",
					"type": "uint256"
				}
			],
			"stateMutability": "view",
			"type": "function"
		},
		{
			"inputs": [
				{
					"internalType": "address",
					"name": "",
					"type": "address"
				}
			],
			"name": "userPoints",
			"outputs": [
				{
					"internalType": "uint256",
					"name": "",
					"type": "uint256"
				}
			],
			"stateMutability": "view",
			"type": "function"
		},
		{
			"inputs": [
				{
					"internalType": "uint256",
					"name": "_pollId",
					"type": "uint256"
				},
				{
					"internalType": "uint256",
					"name": "_optionId",
					"type": "uint256"
				}
			],
			"name": "vote",
			"outputs": [],
			"stateMutability": "nonpayable",
			"type": "function"
		},
		{
			"inputs": [
				{
					"internalType": "uint256",
					"name": "_pollId",
					"type": "uint256"
				},
				{
					"internalType": "address",
					"name": "_voter",
					"type": "address"
				}
			],
			"name": "votedOption",
			"outputs": [
				{
					"internalType": "uint256",
					"name": "",
					"type": "uint256"
				}
			],
			"stateMutability": "view",
			"type": "function"
		},
		{
			"inputs": [],
			"name": "withdrawCommission",
			"outputs": [],
			"stateMutability": "nonpayable",
			"type": "function"
		},
		{
			"inputs": [
				{
					"internalType": "uint256",
					"name": "_pollId",
					"type": "uint256"
				}
			],
			"name": "withdrawRemainingFunds",
			"outputs": [],
			"stateMutability": "nonpayable",
			"type": "function"
		},
		{
			"inputs": [
				{
					"internalType": "address",
					"name": "_tokenAddress",
					"type": "address"
				}
			],
			"name": "withdrawTokenCommission",
			"outputs": [],
			"stateMutability": "nonpayable",
			"type": "function"
		}
	]
}